:20000000100C001081020000A3330000914D00000000000000000000000000003B70FFEFE4
:20002000000000000000000000000000973900000000000000000000873C0000394C0000A8
:200040008B0200008B0200008B0200005D4D00005F4D00008B020000000000008B02000089
:200060008B0200008B0200006D4C00008B0200008B0200008B0200008B0200006B4D0000C1
:200080008B0200008B0200008B0200008B0200008B0200008B0200008B0200008D020000F6
:2000A000C94C0000ED4C0000034D00001D4D00004D4D00008B0200008B0200008B020000F7
:2000C00070B5474CE06847490140E160210D4648E26802400A43E260444D296044490B681D
:2000E000012213400B600B6913400B610023DB438B604B699B079B0F1A434A613D493E4AAA
:200100004A603E4A13681B021B0AC02636061E43166000228A6007220A60E168384A0A4043
:20012000E260E1680840610D0143E1600121354802F02CFF2068022101432160802000022B
:20014000286031490A68314B13401843086070BD274801684907490F01220A430260704763
:20016000234841688907890F01220A434260016806220A40026070474100081880008021BB
:200180000906884200D3C843014321480160704700B5204841680022D24302605008401AD2
:2001A0000C2101F0A0FE00BDEFF3108272B61A4803C882F31088704730B581B00400114DC1
:2001C000280002F0EEFE4443EC6001B030BD0D4801684907490F04220A43026070470000B6
:2001E0007C800440F0FBFDFBF0FFFDFB00E100E00840004010E000E0DF2E000020ED00E0E2
:20020000F0FDFDFB0080004014820440BBB960C0004000401040004088030010094205D000
:2002200083070BD00270401C491EF9D1704700001206130A1A43130C1A4300BF130030B4DF
:2002400014001500103902D310393CC0FCD2490700D30CC000D504C0890002D30280801C40
:20026000002900D5027030BC704700000022D5E70022E3E780B5012005F074FC01BD000028
:20028000004800473B5D0000FEE7FEE77047FC00FEA58100D1000308080064FC000301004E
:2002A000104BCB00FE01FC000001DD000040F9000040FD0000059B000050D6000001F10011
:2002C00009100E100E100E100E100EEF000040F1000040F600054006E803000000000000F3
:2002E000000000000000000000000000000000000000000000000000000000007073694E64
:20030000F0B581B004000D00FFF74EFF06000F002100924C9248814211DA0CCC083C002BD0
:2003200007D1002A05D1C0C4083C00BF3EA001F071F903CC083C00220A30514138E089483B
:2003400081420DDA884885420ADA0CCC083C002B27D1002A25D1C0C4083C00BF34A01EE0C0
:20036000AD4881420CDAAD48854209DA0CCC083C002B16D1002A14D1C0C4083C2EA00EE07F
:20038000A748814218DABA48854228DA0CCC083C002B06D1002A04D1C0C4083C28A001F050
:2003A00039F90CCC083C962040000021801859412200083203C228E0C820000181420EDBE8
:2003C0000CCC083C002B01D1002A05D01EA001F021F90020002103C4002001B0F0BD200096
:2003E000083003C8B94210D301D8B0420DD303CC083C002901D10028EED00020002103C475
:20040000083C00BF13A001F005F92000083003C8B942E1D801D3B042DED203CC002901D120
:200420000028D9D00120D8E755566D402564000055563140256400005556324025640000DF
:200440005556334025640000555672656C402564000000005556636C00000000F0B581B0EE
:2004600004000E001700834DA868A04212DA28003030C079C009002805D1696928003030C3
:2004800001F055F913E02800303001F06FF900285ED10CE028003030C079C009002802D082
:2004A00032A001F0B7F82800303001F081F96868A04212DA28002830C079C009002805D1B9
:2004C00029692800283001F032F914E02800283001F04CF900283BD10DE028002830C0796A
:2004E000C009002803D000BF22A001F093F82800283001F05DF92868A04212DA280020309E
:20050000C079C009002805D1E9682800203001F00EF918E02800203001F028F9002817D188
:2005200011E0A349401886420DDA28002030C079C009002803D000BF10A001F06BF8280077
:20054000203001F035F9002F04D0BC48844201DB012000E0002001B0F0BD00009003001061
:20056000DC050000580C0000891300004F4333636C0000004F4332636C0000004F4331634D
:200580006C000000F1B586B001A81421FFF770FE002469460C800120887001AFBD487881AB
:2005A000BC8101AE651C6946E8B201F057FA69460988002923D0002829D13180F8896946E4
:2005C00009884018F881B88969460988884201D2B9817D7408467989884203D2684600884B
:2005E00078813D74641CB61C052CDBD30698122201A901F045FC6846807807B0F0BD611CEB
:2006000008A001F007F8002069468870F3E700BF06A000F0FFFFF6E73E080000214E0000BC
:200620005A0600005A56433A25640000414645436F6D6D45727228562900000030B581B066
:200640009E4C002809D00125E5610A2001F030F825609BA000F0DEFF08E09AA000F0DAFF88
:20066000002525600A2001F023F8E56101B030BD419C000078010010F0B581B00400012550
:20068000002904D1FFF77EFF0500012842D12000143001F027FA002804D000BF34A000F0B3
:2006A000B9FF5FE06069A1694A00511809188910A1616E2101F014FC1C21615E0F00226ADA
:2006C000A36AFB1ADE00F31A9B02D21803004343D0187D4A904200D37C482062C20E192951
:2006E00003DD1923591A0911521A910089188900FA2292008E186662754901F0F4FB381820
:20070000A062744846433000FA21890001F0EBFB71494860012D11D1684601F027FA6E48FF
:20072000009909B28902826913019A1A8918091181614812800D40188012A083002D11D088
:20074000A089664988420DDA608900280AD06069634940186349884204D21C20205E2330FF
:200760007E2801D3002000E0012001B0F0BD0000414645436F6D6D45727228492900000065
:2007800081B001000020584A914201DB04200DE0783A914201DB032008E0BE3A914201DB92
:2007A000022003E0A03A914200DB012001B0704748F4FFFF30B581B004000025022913D19B
:2007C0000125002C34D1494C2000C079C00900281BD0200000F0CAFF00282CD0200000F0EB
:2007E000E7FF002516A020E001F0A4FC002804D015A000F00FFF01251DE0002C18D03B4C3A
:200800002000C079C009002805D1FA218900204600F08DFF0FE0200000F0A8FF00280AD08A
:20082000200000F0C5FF012509A000F0F3FE02E02E4800F0BDFF280001B030BD71170000E2
:2008400054314C2B544F000041746563680000005431482B544F000030B581B0140000252A
:20086000002800D001252248814207DB01252149214800F05CFF280001B030BD2800F6D152
:200880001D4800F073FF0028F1D1032CEFD10125F1E70000E8FD000030B581B0174C002537
:2008A00025606560032807D006A000F0B3FE25620A2000F0FDFEE56301B030BD401000A033
:2008C000464F6E00464F660001286BEE00286BEE002D3101C0D40100780100101127000062
:2008E000409C0000C1B606003D0F0000C0030010D1070000983A0000C8030010201000A02B
:20090000F3B583B001260125002769460F70AD4C002A0BD0A7702000383000F049FF200065
:20092000403000F045FFA8A000F074FE0398408903998989091AFF229232914221DBA34994
:2009400088421EDB20003830C079C009002808D19F4800F05FFE9F492000383000F0E7FED0
:2009600013E02000383000F001FF00280DD09A4800F050FE04980078202101430498017041
:2009800003E02000383000F013FF03984089FA21890088421FDA20004030C079C009002865
:2009A00009D1BE4800F036FEFA2189002000403000F0BDFE13E02000403000F0D7FE0028E4
:2009C0000DD0B74800F026FE04980078402101430498017003E02000403000F0E9FE01F026
:2009E000A9FB02902078032805D103991C22895E302916DD0BE00028039904D11C22895E72
:200A0000022908DB09E01C22895E322901DD032108E0002901D5002104E00A2901DA012141
:200A200000E002216170617881420CD02000183000F09CFE00280CD062782178B24800F017
:200A4000E9FD60782070FA2189002000183000F06EFEA078002807D0022800D1BEE050D30D
:200A6000032800D1D5E012E15A48206160612670E77127726772FA2189002000183000F092
:200A800056FEFA212000203000F051FE9F492000283000F04CFE9D492000303000F047FE03
:200AA00003988089FFF76CFE607120003830C079C009002805D120004030C079C00900281F
:200AC00001D0002002E001200521E170039989898F4A914202DB0121032000E00021A1721B
:200AE0008C4961612161A070607920712000483000F063FE03984189FA39A18189B28648B7
:200B00005DE003988089854988424EDBA672844800F080FD0298012834D12000203000F0BA
:200B200025FE00280CD0FA212000203000F0FFFD6169C82904DD323961617A4800F06AFD35
:200B4000039880897849884212DB784800F062FDE079401CE071C0B2042802DD0320A070B4
:200B600007E0606972494018C82802DB606100E0E7716069C82843DDB6492000303000F0A4
:200B8000D6FD85E02000283000F0F0FD002800D17EE05E492000283000F0C9FDAE49200085
:200BA000303000F0C4FD022031E00A3988426FDA6169206981426BDA32316161A74800F03C
:200BC00029FD65E02801001043685300E50C0000FC5B0000C4090000085C00000398808956
:200BE0009F4988420CDA2000283000F0BFFD002806D046492000283000F099FDA67047E071
:200C00002000303000F0B2FD002841D00320A0703EE06761207A002817D1924800F0FAFCF9
:200C2000267266729049882001F0ACFA8F492000303000F07CFD03984089AA214900411A98
:200C4000A18189B2344800F0E5FC03988089B249884215DA2000303000F088FD00280FD096
:200C6000B54800F0D7FC29492000283000F05FFD26492000203000F05AFD2772A67002E0C7
:200C8000A078032804D0002001F05EF800E0A7702078012806D1A94808E000BF145C00003F
:200CA000205C0000A07A012804D11A486169814200DD606103988089FFF762FD01902179EF
:200CC00088421CDB20004830C079C009002804D19B492000483000F02AFD2000483000F0A1
:200CE00045FD00280BD02000483000F061FD2079401C20710199C0B2814200DA217120796F
:200D0000042817D187201EE02C5C0000E2040000F10F0000B80B0000385C000054100000F1
:200D2000445C0000505C000068100000585C0000D4FEFFFF032801D1862004E0022801D1E8
:200D4000852000E08420A17904291EDCA178012901D0022904D1637A012B01D1042514E01D
:200D6000022901D102250AE0032901D103250CE0002909D02178022901D0012904D1FA21A2
:200D8000890001F0FFF900E000252B0001222178606901F0FFF805000298012806D128007D
:200DA00001F02BF901F03CF90028FBD1A648C663A178002903D0022901D0032901D1076077
:200DC00012E0A179042901DD07600DE02178002901D0032905D107600299002905D146606C
:200DE00003E06A4616700660476069460978016268460078E17A884205D068460078E072A2
:200E0000642001F0A0F92900207802F05AF8A078012812D103984189A08981420DD2A27950
:200E2000521CA271D2B200BF11A000F0F3FBA079042803DD0520A0710AE0A771A178E07891
:200E4000814204D00FA000F0E5FBA078E070A07805B0F0BD50460000C8320000605C00004E
:200E600004100000685C000060EA0000E0930400436867563A2025646D562025642066613B
:200E8000696C0000436853743A25640070B582B01500AA89984C994B9A4223DB6B89D21A27
:200EA000332A1FDB012806D002281BD108784007400F032816D101202070607800281AD003
:200EC0002000083000F052FC002808D0002000F03BFF0020607000BF10A000F09BFB607875
:200EE00002B070BD00262670002000F02DFF667020780128F3D1687C00F026FF01206070D6
:200F0000FA2189002000083000F011FC6A89A98904A000F07FFBE2E7D20F000042616C20CC
:200F2000446E000042616C25753E2575000000007148007870470000705C0000C4090000FD
:200F400030750000F0B581B004000E0061696089FFF7D6F93178DF220A4040011043307064
:200F60001C21675E000701D5322000E04420644D874236DA2800C079C009002803D000BF8E
:200F800032A000F047FB280000F012FC00203178F7220A40C000104330701C20275E212046
:200FA000C043874235DB2800083000F001FC00203178EF220A400001104330704007C20FD8
:200FC000A1696069FFF74AFA3178FB220A408000104330703C210140481E8041C00F01B03C
:200FE000F0BD2800C079C00900280AD1390000BF18A000F00FFBFA21C900280000F097FBDF
:20100000C4E7280000F0B2FB401E8041C043C00FBDE728000830C079C00900280AD139002D
:201020000EA000F0F7FAFA21C9002800083000F07EFBBCE72800083000F098FB401E8041CF
:20104000C043C00FB4E70000201000A04F5450636C0000004F54504025640000555450409C
:201060002564000010B582B01400FF23F433C918244B994220D22449884201DA03210AE056
:20108000B431884201DA022105E0B431884201DA012100E000211D4891420BD00278521E14
:2010A0000270120608D1642202700C0004A000F0B1FA01E064210170200002B010BD000014
:2010C0004C77566C743A25750000000000B581B00F4800BF02A1182200F0D2FE01B000BD3C
:2010E00060EA0000C0D40100400D030086010000BE00000005000000B0030010D30F0000D2
:20110000A0030010C3090000FE0B0000B700001078010010F6B581B005001C00002000904A
:201120000127019885421FD3064677432800390000F0D9FEB04214D377432800390000F023
:20114000D2FEB0420DD377432800390000F0CBFEB04206D377432800390000F0C4FEB0428F
:20116000E3D20196002F27D02800390000F0BBFE06002800390000F0B6FE0D003800019909
:2011800000F0B1FE07000098002803D1002E01DC002FE7D12000441C0A2E01DA302105E05A
:2011A0000299002901D0372100E05721711801700098401C0090D5E70020207003B0F0BDA0
:2011C000F0B58BB00C000592049301E02800A047050005980178401C0590080000D156E1E9
:2011E0002529F3D100206A4610700790059800780599491C0591302804D10878491C0591A0
:2012000001211170010030390A2900D343E1059900220EE0413B062B00D33AE10300373BD9
:201220000A2B00D935E1900080184000C2180878491C03001E00303E0A2E01D2303BEFE788
:201240001E00613E062EE5D2573BE9E75721069A511801700898401C08905EE100200999FD
:20126000087001A80690079968460078002801D0302000E020206A46107001AA2800130072
:201280005A1C1B78002B00D16AE1002900DC67E1491EF4E70D0069460E786D1E3100A0478A
:2012A000002DFADC06990978069A521C06920A008ED0A047F6E7049800680499091D0491DD
:2012C00001A9002806D5414208002D216A46117101A9491C09910690002008900127069899
:2012E0000A2827D30646B800C7197F003000390000F0F9FD0A281AD3B800C7197F003000AA
:20130000390000F0F0FD0A2811D3B800C7197F003000390000F0E7FD0A2808D3B800C719A8
:201320007F003000390000F0DEFD0A28DBD20696002F23D00698390000F0D5FD0600069820
:20134000390000F0D0FD069138000A2100F0CBFD07000898002803D1002E01DC002FE7D150
:201360000998411C09910A2E01DA302100E05721711801700898401C0890D9E70020099909
:20138000087001A80690079968460078002801D0302000E020206A46107001AA2800130051
:2013A0005A1C1B78002B00D1DEE0002900DCDBE0491EF4E70D0069460E786D1E3100A04783
:2013C000002DFADC06990978069A521C06920A0000D1FDE6A047F5E7582801D1012200E06E
:2013E0000022049800680499091D049101AB1021FFF790FE01AF079968460078002801D09F
:20140000302000E020206A46107001AA280013005A1C1B78002B00D1AAE0002900DCA7E02B
:20142000491EF4E70D0069460E786D1E3100A047002DFADC39787F1C0A0000D1C8E6A047C6
:20144000F8E7049800680499091D0491C1B2BDE604980668001D0490079932002800130073
:201460005A1C1B78002B00D186E0002900DC83E0491EF4E70D006D1E2021A047002DFADC94
:201480003178761C0A0000D1A2E6A047F8E70BB0F0BD059107920100F9D0252800D195E6EE
:2014A000582899D06328CCD0642800D103E77328CED0752802D078288ED08AE604980668B5
:2014C000001D049001A809900020089001270A2E26D3B800C7197F003000390000F003FD98
:2014E0000A281AD3B800C7197F003000390000F0FAFC0A2811D3B800C7197F0030003900D1
:2015000000F0F1FC0A2808D3B800C7197F003000390000F0E8FC0A28DBD2002F00D19DE62B
:201520003000390000F0DFFC06903000390000F0DAFC0E0038000A2100F0D5FC07000898D9
:20154000002804D10698002801DC002FE5D10998411C099106990A2900DB77E6302176E6B7
:20156000002900DC9EE695E6002900DC2AE721E7002900DC5EE755E7002900DC80E779E7F7
:2015800030B581B00C0000280CD1414D287801F0D3FD21003F4801F07CFE287801F0B9FDDB
:2015A000002001E00470401C01B030BD0EB400B5020001AB384801684068FFF701FE009879
:2015C00004B0004770B50C001100314DAA78002A16D1060001F0FCFC2100300001F00CFDE3
:2015E0002D4CFF222100083185208000201801F027FE2A482060002060600120A8702E70DB
:2016000070BD10B5224C0020A070207801F0DCFD207810BD0EB410B581B01D49897801292A
:2016200011D1040001F065FE010000BF1DA0FFF7BDFF03AB1848220001684068FFF7C0FD4D
:2016400017A0FFF7B3FF01B0019810BC04B0004700B581B00F4801F003FE401E8041C00FFD
:2016600001B000BD00B581B00A4801F0F5FD01B000BD07488178012900D0704700B581B094
:2016800000220449007801F05BFE01B000BD0000B4000010F0050010DC030010811500005D
:2016A0000D0A00002539757C200000000000000000BF00BF00BF401EFAD17047FA218900E3
:2016C00000BF00BF00BF491EFAD1401EF6D1704770B582B0060000BF3DA003C832A430CC29
:2016E0000022C0231B060B4000920193FEF75CFD0B000021301859412940009A019B104305
:2017000019436A4603C26846C079BF210140802008436946C871FEF747FD6A460CCA2B40F3
:201720009942F8D301D89042F5D302B070BDB0B504000D00FEF738FD02000B0003CC083CF1
:20174000C0273F060F400021A818594102000B0015A003C810401940394303C4083CE0797D
:20176000BF21014080200843E071B0BDD0B50400E0798109C90712D4C00913D0FEF714FDCB
:201780000CCC083C08A6C0CE16401F40B94208D301D8B04205D3E07940210143E171012052
:2017A000D0BD0020D0BD0000FFFFFFFFFFFFFF3FC1794906490EC1717047C1798906890E8E
:2017C000C1717047000000000000000000000000000000000000000070B586B004000D0AAA
:2017E0000E0004A8BD490A68026044708570C670042101F0D7FD03A90C704D708E70C87071
:2018000002A80021017001910090042303AA2921B348007801F026FF401E8041C043C00FD2
:2018200006B070BD70B584B004000D006846047203A8002101600320019003A800900123F7
:2018400002AA2921A648007801F00CFF002801D0012017E003A84178027812020A432A8036
:201860006A46BE4B60CB60C26A4654700378D3701171807850710621684601F093FD002877
:2018800000D0022004B070BDF0B585B0944A10700320FFF7A1FF070004A890490A68026024
:2018A00005264670002484701025C570042101F079FD03A90E704C708D70C87002A8047000
:2018C00001940090042303AA29218548007801F0C9FE032001F012FD781E8041C00F05B0CA
:2018E000F0BD70B582B0002669460E80002420252720FFF797FF002805D16846008800050C
:20190000000D6946088068460088241869460E806D1EEDD17248610941800221405E904A0B
:201920008118292901D3002000E080B202B070BDF4B582B007000E000020019069460880FF
:20194000019C20252720FFF76DFF002805D1684600880005000D694608806846008824180D
:201960000198694608806D1EECD15D4D38B2E10209140222AA5E891A00F0B2FA04006C6080
:2019800078487949614300F0AEFAB04205D369460989814201D3200000E0002003B0F0BD67
:2019A0004F4948800220085E6D49401829288041C00F70474A49486021388F214900884242
:2019C0008041C00F7047F0B585B00024032569460D7203A8046001950090012302AA29211D
:2019E0003F48007801F03EFE002813D103A84178027814020C436A46584BC0CBC0C26A465C
:201A000055700378D3701171807850710621684601F0C8FC200005B0F0BD30B585B004A836
:201A20002E490A68026002244470FF258570C570042101F0B7FC03A90C704D708D70C87050
:201A400002A80021017001910090042303AA29212348007801F006FE05B030BDF0B585B0B6
:201A60000C006946203008726846007A487203A8002101600320019003A80090012302AA13
:201A8000521C29211648007801F0ECFD002801D0012020E003A84178027815020D436A46CF
:201AA0002E4BC0CBC0C26A466B461B7A53700378D3701171807850710621684601F072FCBA
:201AC000002801D0022006E02905090D8A0051188902090B218005B0F0BD0000741E00009A
:201AE00000020010F1B584B0002427206946087203A80460AC4D0320019003A8009001234B
:201B000002AA2921287801F0ADFD002801D001201AE003A84178027814020C436A460F4B33
:201B2000C0CBC0C26A46272353700378D3701171807850710621684601F034FC002801D0F3
:201B4000022001E02405240D04990222AA5EA21A6B685A430A6005B0F0BD0000781E0000D1
:201B6000D4F9FFFF00809698C39C0000F1B586B00024002569464C812020087203A8046023
:201B80000320019003A80090012302AA29218648007801F067FD002801D001261CE003A8DA
:201BA0004178027815020D436A4600BFB2A3C0CBC0C26A46202353700378D37011718078CC
:201BC00050710621684601F0EDFB002801D0022600E000262D052D0D6846058100899B4962
:201BE000884271DB03206946087304A804600320019004A80090012303AA29216A4800783D
:201C000001F030FD002816D104A841786A4603781B020B43538100BF97A3A0CBA0C26A4652
:201C2000032353700378D3701171807850710621684601F0B7FB0120049068464089844A50
:201C40000240012111430320FFF7C6FD20206946087305A804600320019005A80090012360
:201C600003AA29215048007801F0FCFC002816D105A841786A4603781B020B43138100BF16
:201C80007DA3A0CBA0C26A46202353700378D3701171807850710621684601F083FB6846B6
:201CA00000890105090D00226A4B1504ED135D5BA94202D3233A049C00E0521C10B23228B0
:201CC00016DA200615D1F0E700220025624B684600895700DF5BB84203D315000A3501242C
:201CE00001E0521C12B2502A28DA210027D1F0E70F220698028068464089070A6846448911
:201D000004A800BF5BA10A680260032545708770C470042101F046FB03A90D704F708C7045
:201D2000C87002A80021017001910090042303AA29211D48007801F095FC02E05A25069891
:201D40000580300007B0F0BD70B586B0010006D0062804D201218140C0240C4300E0C0245A
:201D600004A800BF43A10A6802600E264670FF258570C470042101F015FB03A90E704D70FC
:201D80008C70C87002A80021017001910090042303AA29210448007801F064FC401E80415F
:201DA000C043C00F06B070BD0002001000B581B069460220FFF736FD68464078C106C80F78
:201DC00001B000BDF0B587B0002402A9497810220A4302A94A7004AFFF260590022502A807
:201DE0004078C0062DD500BF22A003A902680A6003A845708670C670042101F0D3FA3D7046
:201E00007E70BE70F87000BF19A002A9891C02780A7012480021019102A9891C009104236D
:201E200004AA2921007801F01DFC02A90220FFF7F9FCA1B2059A914206D2002804D1641C56
:201E4000CDE7002007B0F0BD0120FBE7660D0000FCFF0000385A0000945900000002001048
:201E600000B581B001000220FFF7DCFC01B000BD0000000052000000520053000000000026
:201E800070B4103A03D378C9103A78C0FBD2530701D318C918C001D508C908C0D20704D368
:201EA0000B880380891C801C002A01D50B78037070BC7047F446002804D4494200F013F832
:201EC000404260474042002905D45FD000F00BF8404249426047494200F005F849426047D5
:201EE00003460B43E6D40022030A8B420BD203098B4219D243088B422ED2411A00D2014668
:201F0000524110467047FF2209023FD012068B4205D3121209028B4201D31212090203091E
:201F20008B4219D300E0090AC3098B4201D3CB01C01A524183098B4201D38B01C01A524129
:201F400043098B4201D34B01C01A524103098B4201D30B01C01A5241C3088B4201D3CB007E
:201F6000C01A524183088B4201D38B00C01A524143088B4201D34B00C01A5241884200D38F
:201F8000401A5241CFD201461046704708B5C046C04608BD10B55B07140680225204144044
:201FA0001C43002905D002290BD006D303290CD00FE021008A2424040AE021009024240311
:201FC00006E02100C824640302E02100DC24A4030C436349884200D908003221FFF783FF8C
:201FE0000002FF21090201402143080E0A0C4240080A5040C0B2084310BD70B505000026E5
:20200000584C6670FEF7ACF8A67066702670256101206070FEF79CF85348FEF7ADF870BDC9
:20202000504840787047F0B581B04E4C607800284ED020000830C0C8FEF7B6F88F4247D898
:2020400001D3864244D22078002806D0022813D00BD3042835D020D33AE0012543480560F9
:202060004348FEF789F8257032E000203F4908603F48FEF781F821E001203C490860A0788C
:20208000202805D2FA204000FEF776F8032016E03748FEF771F8042011E000203349086055
:2020A0002069A178C840C00701D5324801E0FA204000FEF761F8A078401CA07002202070A0
:2020C00006E000202949086060706070FEF748F801B0F0BD10B5234C2279002A29D1E278A0
:2020E000002A03D0022A0ED004D320E0012920D101201DE000291AD11F4940181F498842C3
:2021000015D2022014E0012911D11B4940181B4988420CD20020E07001202071FEF744F89B
:202120000022503051412200083203C210BD0020E07010BD0B4800797047002009490871D2
:20214000C8704870704730B581B00400FEF72CF8002524184D410A4830C001B030BD0000D6
:20216000E02E00006803001088130000241000A094110000DC05000030F8FFFF891300001F
:202180007003001030B581B00400044D28000830FFF7CDFA2C7001B030BD0000E801001001
:2021A00010B582B0D24C20000830FFF7DFFA002801D00020207060782178884208D0002106
:2021C00020001030FFF7B3FA20786070002060802078C11E0F2902D2C649C74A1160401E22
:2021E0008B2800D94AE202A14000095A8F4400BF180122014C0154015C0164016A017201D1
:202200007A018001880190019801A001A601AC0118018C048C048C048C048C048C048C0411
:202220008C048C048C048C048C048C048C048C048C048C048C048C048C048C048C048C049E
:202240008C048C048C048C048C048C048C048C048C048C048C048C048C048C048C048C047E
:202260008C048C048C048C048C048C048C048C048C048C048C048C048C048C048C048C045E
:202280008C048C048C048C048C048C048C048C048C048C048C048C048C048C048C048C043E
:2022A0008C048C048C048C048C048C048C048C048C048C048C048C048C048C048C048C041E
:2022C0008C048C048C048C048C048C048C048C048C048C048C048C048C048C048C048C04FE
:2022E0008C048C048C048C048C048C048C04B401DC01FC011E0254027C02AA02D8021801CC
:202300000C034603C6034A04012060807948C749B6E120001030FFF729FA002800D1B0E1E2
:2023200074486188002903D0C0490860002002E07149086001206080FA219AE10120BC49AA
:2023400008629EE10120BA49C8619AE10120B849886196E10120B64992E1C0204005B34996
:202360008EE1A0204005B1498AE1C748AF4987E1C0200005AD4983E181200005AB497FE1DC
:202380008220C004A9497BE1E0204005A74977E1BE48A64974E1BE48A44971E1C120000587
:2023A000A2496DE16088002834D020001030FFF7DDF9002800D164E1C12000054E49086081
:2023C00080204005B3490860FA2152E16088002820D020001030FFF7C9F9002800D150E124
:2023E000012093490862C120000548E16088002810D020001030FFF7B9F9002800D140E155
:20240000C0204005894908608220C00437E16088002809D1401C6080142120001030FFF72E
:2024200086F9344881492BE120001030FFF79EF9002800D125E1E02040057C49086000204D
:202440007B491DE1C12000052B49086020001030FFF78CF9002800D113E1FA2120001030B5
:20246000FFF765F9802040058A4909E10120704908628220C0042049086020001030FFF795
:2024800075F9002800D1FCE0FA2120001030FFF74EF9802000057F49F2E0C0204005634931
:2024A000086000206249086020001030FFF75EF9002800D1E5E0FA2120001030FFF737F975
:2024C0008020C0047349DBE0E02040055749086020001030FFF74AF9002800D1D1E0FA2176
:2024E00020001030FFF723F9802040036949C7E0E80100100000101C802200A02000103067
:20250000FFF734F9002800D1BBE0C82120001030FFF70DF96088052800D9B2E001A1095C38
:2025200049008F44212B333B670241490120C861002088617FE020001030FFF717F9002892
:2025400000D19EE0642120001030FFF7F0F860880100062900D994E001A2525C5200974486
:20256000030D151D25256900012031490862C12000056C4908606088401C5CE02C48012148
:20258000C161002101626088401C54E02848012181610021C1616088401C4CE02448012168
:2025A0000160002181616088401C44E00021204A1160401C3FE020001030FFF7D7F800288B
:2025C0005FD0642120001030FFF7B1F860880100062956D801A2525C974400BF0818283699
:2025E00044445800E02040054E49086001201049086020E00E480121816100210160608811
:20260000401C18E00A480121C16100218161032011E00748012101620021C16104200AE094
:202620000021034A1162401C05E000BF002200A0501000A00020608023E06088002809D10A
:20264000012060800A2120001030FFF770F83648364915E020001030FFF788F8002810D0C0
:20266000C12000052F49086080204005094908607D2120001030FFF75AF802E02A482949E9
:20268000086002B010BD0000000010100000101800001014002300A0F0B581B006000C003C
:2026A000234D244928000830FFF741F800202870FA208000FFF70CF820001DD06846B61CD5
:2026C000067096277F00FA267600310028000830FFF72DF8684600782870C820FEF7F8FF74
:2026E000310028000830FFF722F8002028703800FEF7EEFF641EE8D1FA208000FEF7E8FFB6
:2027000001B0F0BD10B50A4C20000830FFF72EF8002802D02078002800D0012010BD044808
:2027200000787047802200A00000101C002200A0E8010010DC05000000B581B000F006F88C
:2027400000F03EF800F060F801B000BD10B58AB0684600BF10A12822FFF792FB8F4C0A21AD
:2027600020005E30FDF782FDFF220A2120005430FDF75EFD20005030642141800021018071
:202780002822694620002830FFF77AFB0120844908720AB010BD00003133303539373030D5
:2027A000317C30303030303030303030303030307C5042503030327C000000000000000060
:2027C00010B5A6B0FC24E4010121200001F057F8002809D125222100684601F02DF8802287
:2027E00069466E48FFF74CFB26B010BD10B56C4C207A002807D02522FC21C901674800F0B1
:2028000079FF0020207210BD7F22654801781143017043781A43427082781F2313438370E6
:20282000FF22C270037901221A430271FF2303700221114301717047F1B582B0594C200004
:2028400002992C22FFF71CFB1C20215E534802005032534B5024045F8C4204DA11805C7822
:20286000012525435D700224145FA14204DA5180597802220A435A7000214B4A029C03006F
:202880005433019410880401201A019C248800190009108014881888844214D21C80404D39
:2028A00068466E780670012683206F463F7838406F463F78BC468E40B700664637437C26A5
:2028C0003E4006436E705889A04211D25C8134486C468578257001241F25E0266F463F7835
:2028E0003E406F463F788C403C43254035438570491C9B1C0198801C0190921C0429C1DD76
:20290000274C20003030FEF731FF002838D0274920003030FEF70BFF0420410022000E32B9
:20292000525A230010335A52401EC0B2002820D0410022000E32525A230010335A52401E32
:20294000C0B2002815D0410022000E32525A230010335A52401EC0B200280AD04100220062
:202960000E32525A230010335A52401EC0B20028D3D10C48C089208220798021014321716E
:2029800002984069C046C0460020C046012803D1207904210143217103B0F0BD00000010C1
:2029A000B001001038030010CC010010C0D40100FFB587B06846007F0290BA4EBA4C0228B7
:2029C00000D083E0099800784007400F01284BD1E079012807D0B54920002030FEF7A7FE6F
:2029E0000020A07140E020002030FEF7BFFE00283AD0A079002837D10127A771AC4D280088
:202A00007230C188491CC18030790121014331713772286A002808D100F091FF6862286264
:202A20003078602101433170377200F088FF696A401A009000F083FF68623178402008431B
:202A40003070E969009A914203D2EA61102101433170A8698018A861307808210143317079
:202A600037720020A06120720725099800780721014003290FD1E07903280CD000F05FFF92
:202A80008B4948623078402101433170012030720020A0612072099800780540E571C0469A
:202AA000C0466846007F60716846007F012800D1BBE0022800D1B8E0032800D1B5E0FE2806
:202AC00000D1ADE0FF2800D1ACE0ADE00020E08002980328E3D1764D01276079032811D0BE
:202AE000FDF762FB2200103203C228008030C046C0460020C046012850D1307904210143F6
:202B000031714BE0FDF750FB04AA9446220010320CCA801A9941624603C2200010300CC8D2
:202B200004A803C8801859412200103203C22800103003C800900191A1484069C11704AA56
:202B40000CCA00F00FFF009A019B801859412A00103203C2280008300CC804A803C88018C5
:202B600059412A00083203C23078062101433170A26904A803C81018A061217A00290DD191
:202B8000904988420AD3280072308188491C8180F07880210143F170377227720898007874
:202BA00040063AD5C046C046607A002800D078E7677208980078400708D57220285A401CFE
:202BC00072216852F07820210143F17008980078000708D5280072304188491C4180F0783D
:202BE00040210143F17008980078800613D57448007C4100691866228A5A521C6623CA52D0
:202C0000F278E0211140401E012383401343D806C00E0843F070377243E70020607240E71A
:202C2000052002E0072000E00020B072B07A2179814204D0317920220A4332712071A94D86
:202C4000297808980078020702D501220A4301E0FE220A402A70410703D5697820220A43F6
:202C600007E03179490605D4410603D46978DF220A406A706978820602D502220A4301E0E5
:202C8000FD220A406A704E4F0299032912D1400610D41C20385E01280CDA28780821014392
:202CA0000BE000BFB001001008030010C0270900000000102878F721014029700A980178E1
:202CC000022901D0032908D1287880210143297068780121014369700CE02A78FE200029E1
:202CE00002D08021114301E05106490E29706978084068700298022830D1099800784007BF
:202D0000400F03282AD168780421014369702878DB2101402970FA20C000796981425EDAEF
:202D2000B96981425BDAB8896F49884257DB69780907798934D4401A382850DB200028302C
:202D4000C079C009002834D020002830FEF70EFD012848D16878082101433EE0FB20697824
:202D60000140697002990229D1D1099909784907490F012901D00229C9D1327B2978032ACB
:202D800004D1DF20084004210143C3E7002A03D1084020210143BDE7DB2008402870BAE719
:202DA000401A2D281BDA20002830C079C00900280AD14E4920002830FEF7B9FC13E000BF87
:202DC00038030010E193040020002830FEF7CEFC012808D16878F7210140697003E02000E2
:202DE0002830FEF7E5FC0298012801D0FE2827D11C20385E27280DDBE069002811D000F0A8
:202E00009EFDE169401A3A4988421FD32878022101431AE01121C943884211DAE0690028CF
:202E200003D100F08CFDE06110E000F088FDE169401A2F49884209D328781021014304E0E4
:202E40000020E0612878ED2101402970A978FE200840A87069784906490E6970F521014033
:202E6000707B40000843A87020682968884205D030794021014331712868206009980078F3
:202E8000000715D5099800784007400F03280FD0FFF745FC842801D101200CE0852801D147
:202EA000022008E0862801D1032004E0042002E07889FDF765FCF0720BB0F0BD0E4908609C
:202EC000704781B00B4A1073080A517AC3B2994204D05072107910210143117101B0704787
:202EE000000000007C030010670D000088130000312A0000B00100100000001010B481B013
:202F00000121084205D01E4A7A23D35C5B1C7A241355820703D51B4A53785B1C53704207AB
:202F200003D5184A93785B1C9370C00603D515480279521C02710248017201B010BC70478A
:202F4000B0010010012010494873704700200E49487370470A485A210171417170470848E3
:202F60000079A52801D0012070470020704704484079A52801D00120704700207047000039
:202F8000000000107A000010B00100100129016803D101220A43026070470122914301608E
:202FA00070470068C00701D40148704701487047B0710B0040420F0000B581B000F0ECFCDB
:202FC000E12292030021022000F09EFD01B000BD00B581B0574A8300D150002802D00128CF
:202FE00003D007E01168C9B202E05168C9B2112000F0E6FD01B000BD70B582B0002803D049
:20300000012817D1534C1AE0534C0222534B1A61002C47D0002802D0012814D024E080223A
:20302000D2014E4B1D680826B54315431D609D684B4E12E000240028E7D00128E8D102220B
:20304000464B5A61E4E780221202444B1D680826B54315431D609D68424E2E409E609D688E
:20306000414E2E4032439A602268404B13402360002803D0012809D1364D00E0364D0E0007
:2030800000F08AFC3100280000F0F0FD20684C49014004200843206020684A4901400120BA
:2030A0000843206002B070BD30B581B0002803D0012808D1274C00E0554C04252561200090
:2030C00000F0A0FDE56001B030BD002803D151480068C0B2704700207047002802D0012860
:2030E00002D006E04C4800E04C4800684107C80F704700207047002802D0012802D006E020
:20310000454800E045480168C807C00F704700207047002802D0012805D0704704204049C4
:203120000860082003E004203E49086010203E4908607047FC050010002802D0012803D02C
:2031400070470420394901E0042039490860704700000000008006400040064080800440DC
:20316000F0BFFDFBF07FFDFBF0FFFDFB7CDA000081B0002805D001280AD104202C490860D1
:203180000AE004202949086001202849086014E00028F9D001280BD101202549086010203C
:2031A00024490860BFF34F8FBFF36F8F01B07047002802D00128F2D0F8E70820F0E70000CF
:2031C00001DA00007DDA000010B50400FFF7D0FF002C02D0012C0CD010BD0D480168174A3C
:2031E0000A400260FF21002000F0EAFCFF2101200AE011480168114A0A400260FF211120C8
:2032000000F0DEFCFF21122000F0DAFC10BD00000040064014400640084006400880064083
:203220000C4006400C80064000E100E0104006401080064080E100E0008006407CDA0000A0
:2032400030B400230024002538C00C38016002818380C38030BC704700218180C1807047FB
:2032600001000020CA8889888A4200D10120704730B4010000208B885B1C0D899CB2AC42F4
:2032800000D30023C9889BB28B4200D1012030BC7047D0B504000F000026FFF7E9FF002874
:2032A0000BD101262068A1884754A088401C228981B2914200D30020A0803000D0BD30B4D6
:2032C00002000020D4889588AC420BD0012015682C5D0C70D188491C15898CB2AC4200D38C
:2032E0000021D18030BC704714480168491C0160704772B61148006862B6704782B06946DE
:20330000002200230CC172B60C490A6862B6101801906A461278FD23134001221A436B46FD
:203320001A7009D46A461278D207FBD572B60A6862B6821A002AF9DC02B07047D4030010A6
:2033400070B582B004000D001600FFF7C6FE012817D12000FFF7C1FE012819D16946280065
:20336000FFF7ADFF012813D1012269462000FFF79BFEEEE72000FFF7A8FE01003000FFF765
:2033800088FF2000FFF7B7FE0128F3D002B070BD2800FFF765FF0028F3D02000FFF7CCFEC3
:2033A000EFE7FEE7F3B483B0002002906A4610703A498A78002A4BD100240D0080225200A6
:2033C00001928023E6B21E4201D0072700E0002776007740FFB21F4201D0072600E0002676
:2033E0007F007E40F6B21E4201D0072700E0002776007740FFB21F4201D0072600E000263F
:203400007F007E40F6B21E4201D0072700E0002776007740FFB21F4201D0072600E000261E
:203420007F007E40F6B21E4201D0072700E0002776007740FFB21F4201D0072600E00026FE
:203440007F007E402E70641C6D1C019EB442B9DB049C039B002C1CD002986A4612781D5CBC
:2034600055404A5D401CA04211D21D5C55404A5D401CA0420BD21D5C55404A5D401CA0422C
:2034800005D21D5C55404A5D401CA042E7D3684602706846007805B0F0BC70470802001030
:2034A00070B504001D001600200007D0012C0CD1712000F085FB3100722004E0502000F0A7
:2034C0007FFB3100512000F07BFB2900200000F044F870BD30B581B0040003D0012C03D1DA
:2034E0005C4803E05C4801E00020C04301681E220A400260016817220A400260802149040C
:20350000C160554A904204D0524A904203D1152202E0052200E0FF22012191404F4A1368BB
:203520004F4D0D43AB43136013686B4D1D400D43156000F0A9FB002C02D0012C05D00AE06B
:20354000502000F04EFB512003E0712000F049FB722000F046FB01B030BD30B581B004002E
:2035600000F01AFA5D48002C02D0012C08D00EE001680822914320220A43026005230DE044
:2035800001680822914392040A43026003E0002CF4D0012C01D1152300E0FF23012101222E
:2035A0009A4083682E4D1543AB43836083684A4D1D4015438560002C03D0012C04D18162A2
:2035C00006E04162464804E0002CFBD0012C02D12048143000E013200E210160002C03D0AB
:2035E000012C03D11B4803E03D4801E00020C0430122002100F05CFB002C03D0012C03D170
:20360000144803E0364801E00020C04300F058FB01B030BD81B0002803D0012804D10D4988
:2036200000E02F49103100E00F212E4A0A60002803D0012803D1074803E0294801E0002063
:20364000C0430168C906C90E08220A43026001B07047000000400540000005408880044001
:203660000F00020470B584B004000898099E6D466973002129732B816E810092019000F097
:20368000F1FC002C03D0012C03D1174803E0144801E00020C043694600F0A4FB002815D14F
:2036A000002C03D0012C03D1152002E0052000E0FF20012181400D4802680D4B0B439A43AA
:2036C00002600268044B13400B43036000F0BAFC287B04B070BD0000F0FFFDFB8080044076
:2036E000000005405F08000000400540888004400F000204F0B5A5B007000D00FC20C0014D
:20370000854201D3A80701D001208CE0019200F043F9EFF31080039072B6A806800E281A97
:20372000291A8E0801997118491E0909491C0025002974D00090029100F02EF904A9009A9C
:203740000424042013680B6053684B6093688B60D368CB6010321031401EF3D1A8003858A8
:2037600004A9B20088506D1C0198854202D2761C102EF3D31F211F2000F09CFC002844D17B
:2037800000988009010000F0B9FC002801D064303BE01F211F2000F08DFC002801D0C830D1
:2037A00033E0402204A9009800F092FC002803D096214900401828E000F0EEF814A800994B
:2037C0000A6802604A6842608A688260CA68C26010311030641EF3D1002014A904AA0B68D4
:2037E0001468A34221D14B685468A3421DD18B689468A34219D1CB68D468A34215D1001D1F
:2038000010321031102802D2E9E701040FD100984030009000260298401E02908CD1039824
:2038200080F31088002025B0F0BDFA208000039981F3108880B2F6E770B504000D0016003E
:2038400000F0AAF8002E18D0B007800F06D029682160401E2D1D241D0028F8D1B0080CD024
:203860002968216069686160A968A160E968E160401E103510340028F2D1002070BD30B5FC
:20388000C1B005000C0000F087F8002C19D06846A107890F06D02A680260491E2D1D001D9C
:2038A0000029F8D1A1080CD02A6802606A684260AA688260EA68C260491E103510300029AC
:2038C000F2D100206946A04219D20A68002A14D1401CA04213D24A68002A0ED1401CA042EC
:2038E0000DD28A68002A08D1401CA04207D2CA68002A02D1401C1031E5E7002000E0012024
:2039000041B030BD30B581B0FCF74EFC124C2568FA229200002300F005FC28180F49884267
:2039200001D20F482060FCF73FFC2568FA229200002300F0F7FB2818206001B030BD10B54C
:20394000FCF732FC044A1468FA229200002300F0E9FB201810BD0000D0030010008EA45469
:20396000704AE64F30B4434351435D18010C0C00130C5C432D1980B2434392B25143002414
:20398000C918644124040B04090C09195043C018694130BC7047FEE700B581B000F008F8C0
:2039A0000149086001B000BD640300104C48704700B500204D4903228B6C134013D0012B3C
:2039C0001DD18B6B1A4007D0022A03D0032A04D1454802E0424800E042480A68D206D20E44
:2039E000521C50430BE08B6C1A4007D0022A03D0032A04D13C4802E0394800E03948096DF4
:203A0000C9B2FEF770FA00BD00B581B000F002F801B000BD10B581B0010000220020344C18
:203A2000A14212D0334CA14212D0334CA14212D0324CA14203D0324CA14203D00DE031496A
:203A40000B680AE02F494B6807E02E494B6904E02C498B6901E02B494B6A5907490F06D0E7
:203A600002292DD005D3042937D02CD336E01D4834E01E480321836C0B4013D0012B1DD1C3
:203A8000836B194007D0022903D0032904D1464A02E0134A00E0134A0068C006C00E401CA5
:203AA00042430BE0806C014007D0022903D0032904D13D4A02E00A4A00E00A4A10000DE0A5
:203AC0001048816C01E00F48816D416C3748802252008918FEF707FA00E0334801B010BDEB
:203AE00040420F00001BB700808D5B0008800440000005400040054000800540004006401A
:203B0000008006409080044070B5150049D00600022E03D129488160FF2202600024032012
:203B2000014028D0022901D002D325E0204905E01F498A6C024013D0012A1DD18A6B104047
:203B400007D0022803D0032804D1174C02E0194C00E0194C0868C006C00E401C44430BE0D0
:203B6000896C084007D0022803D0032804D10E4C02E0104C00E0104C20002900FEF7B3F976
:203B80000100000600D101212000C9B2FEF7ABF900022900FEF7A7F9022E02D1C0B2074972
:203BA000486070BD00000000808D5B0000001BB70880044040420F00001BB700D080044033
:203BC00010B4C30078221A4000090D4B800018180368FF249440A34391401943016010BCB7
:203BE0007047C200782111400009054A800010180268FF238B409A431343036070470000BE
:203C000000C0004003000020002A00DC704770B49407A40F09D004259E68354024D00D785C
:203C2000DD61491C401C641EF5D194081CD00A0004219D680D4017D01578DD61401C9D6821
:203C40000D4011D05578DD61401C9D680D400BD09578DD61401C9D68294005D0D178D96135
:203C6000121D401C641EE3D170BC704730B581B004000D00FFF7C8FE2901FEF734F9401E13
:203C8000206201B030BDFEE70749884201D1152000E0052005490A680123834008201843CF
:203CA00082430A60704700000040054080800440090170230B405107490F19434162704707
:203CC00001210268D206D20E0A4302600A064368DB0704D443681340F9D0504801707047F5
:203CE00030B481B043681022134207D005230B734260087BFF284FD001204EE0402213428F
:203D000001D00323F3E79204134205D006230B73426004220262ECE7012213403AD0436841
:203D20001B075B0F06D0022B16D006D3042B2ED02AD32FE000220A73EBE74B89002B08D0B4
:203D40004B685C1C4C60846A1C704B895B1E4B81E0E700220A73DCE70B89002B07D00C68C6
:203D6000651C0D60247884625B1E0B81D2E74B89002B06D04B7B5B001A43D2B28262022236
:203D8000C8E700220A73C4E702220A73C1E704220A73BFE70A73AFE7002001B030BC704711
:203DA000FF220A73426880231B03134343601C4A42600A89521E9241D20F497B49000A43E8
:203DC000D2B2826202210162144900220A70802252044368DB0704D443681340F9D00120B7
:203DE00008707047F0B581B005000C00FFF7D8FF01273E0621002800FFF772FF6968C90723
:203E000004D469683140F9D004490F700028F1D0207B401E8041C00F01B0F0BDD803001038
:203E20005000000310B5864801688A4A0A43026089480168894A0A4302600168884A0A436C
:203E400002608E4801688E4A0A4302608D4C00220021200000F09CF900220221200000F024
:203E600097F900220421200000F092F900220721200000F08DF900220C21200000F088F910
:203E800000221021200000F083F900220B21200000F07EF900221721200000F079F9002270
:203EA0000F21200000F074F900221121200000F06FF9200DA16E0143A166616E0843606622
:203EC00000220821200000F063F900221D21200000F05EF900220A21200000F059F9002293
:203EE0000121200000F054F900221A21200000F04FF900221921200000F04AF90222182182
:203F0000200000F045F92020216A01432162616F01436167216E01432166616801436160BD
:203F2000A16A0143A162E1680843E06010BD10B5544C00221821200000F02AF9206E2021CC
:203F4000014321660020504908603D480168802212030A43026010BD10B500204A49086074
:203F60004A480168802212030A430260454C02221821200000F00CF9206E20210143216643
:203F800010BD70B54248016808229143414A0A430260FFF747FF40490868FE2202400A6003
:203FA0000120486188603D4A0A231360486248623B4B04061C603B4C2568EDB20543256048
:203FC00002250E68F6B22E430E608D60122656604D624D6246061E602668F6B23543256087
:203FE0000D68F7262E400E6008254D611325D5600D68FB262E400E6004258D604D610F26A0
:2040000096604D624D62810619602168C9B20D43256025494A6802434A6080224B681343B9
:204020004B600B6818430860086802430A6070BD02201E49086000061949086070470000DB
:20404000802300A008201949086000061449086070470000935BF37F802200A00003951C53
:20406000931822608020000511490860BFF34F8FBFF36F8F08200D4908607047002200A00D
:2040800000C44003004004404C1000A0002400A080800440C0C62610004000A078810440B8
:2040A00000E100E00482044020000240244000A080E100E000B58BB03222009201900291D4
:2040C00005A96846154A90470598C0B20BB000BD00B58BB0332300930190029103921048DD
:2040E0000068FA218900FDF7FEFE049005A968460A4A90470598C0B20BB000BD00B58BB032
:204100003B220092019002910020039005A96846024A90470598C0B20BB000BDF11F000FB4
:2041200064030010124224D0994228D970B500251B4202D00C00002109E0002401264918A9
:204140006441944200D3A41A7641F8D33100012601E0764109D2001864416D41A41A9D41FF
:20416000F7D2A4185D41B619F5D3300022002B0070BD1B42D8D108B5C046C04608BD01D175
:204180009042D3D202000B00002100207047000089004018016818239943D2000A430260C1
:2041A00070470000F0B589B0C24CC34D01F027FA00280DD00120287038216054BF484368BD
:2041C000006800220021801859412A00083203C201F04AFA60680090FEF770FE0720C046BC
:2041E000C046012001F022F80400B54E7069002806D0F06800283AD102E06420FDF768FA68
:2042000070690028F9D0F068002813D1E00701D500F0F5FEA00701D500F07CFFC6498A202F
:20422000FDF7B0FF00F0E8FD01210020FDF7AAFF012019E004202040A10710D0002812D0F7
:20424000BE498B20FDF79EFF6420FDF741FAF0680028F5D102210420FEF71EFA01E00028C5
:2042600001D000F090FF002000F0E0FF04000D22E12189020120FDF7A5F98E4F3820385CC3
:20428000002819D0AE48FDF7C5F90020AD49087012E0AD498920FDF775FFFA20FDF718FABE
:2042A0002878002808D0381D01F09CF90020287021000120FEF7F0F91826344005D0002004
:2042C00000F0B4FF04002640E3D13C463920205CFCF7E2FA01F036FA0122CF4920004C30FF
:2042E000FFF7AAFAE06C0021C943884201D10020E064E06C3B216054200034300790002014
:20430000069031E006983A21605415E02000603001F0D6F800280FD120006830FDF726FA11
:20432000012809D1BD483B21615CFDF773F93C20215C012000F0E4FF3920205C3A21615C42
:2043400088420ED0B6483A21625C3921615CFDF761F93A20205CFCF79FFA3A20205C3921A7
:2043600060540698079908805548C068002807D10C203B21615C014202D0A06C401C00E05C
:204380000698A064A06CC92813D3FA2189000B20FDF7F8FE3B20215CF32008403B2160549C
:2043A000E0649D49012220004C30FFF7A3F90698A064FBF7F9FE9B4A0023994201D8904269
:2043C0000CD33720205C002808D1FEF7BFF9FEF7C1FDFEF70BFA0120372160542200083247
:2043E000210044313920205CFCF750FD694608756846017D20000830FCF73EF9002869D1D6
:204400000520FDF765F96846017D20000830FCF733F900285ED10520FDF75AF96846017D93
:2044200020000830FCF728F9002853D10520FDF74FF96846017D20000830FCF71DF90028AE
:2044400048D10520FDF744F901253920205C022838D1BC48FDF7DEF8194E069830610A2031
:20446000FDF736F935611E20C046FDF731F9CB4B182219210120FFF713F8C9490120FFF74C
:20448000C9F80520FDF724F9C6490120FDF7FCF96846017D20000830FCF7EEF8002811D0A6
:2044A000C148FDF7B7F8FE203B21615C08403B2160540FE0B8000010800300101000024025
:2044C000281000A03B20205C05433B202554B748FDF7A0F8B64E307800280CD00698307098
:2044E00010203421615C084307990870201D01F079F806982065AF4D2868401E8041C00FDB
:204500003921615CFCF756F900281FD0F72104203422A25C11400843079908703920205C12
:20452000022806D0FF2804D0A34920006030FDF7FEF80698206511E0809698001027000001
:20454000785B0000F000001080EE3600FB2008213422A25C104001430798017030790028D7
:204560000AD002203421615C0843079908700698307192A0FDF74EF8286A401E8041C0436B
:20458000C00F3921625CE169FCF766F9002804D001203421615C084303E0FE203421615C0B
:2045A0000840079908707F273420205C384007990870F17800290BD00699F17020210143A3
:2045C00007980170216D491C2165002001F028F83620205C002808D002203521615C0843CF
:2045E00035216054069836216054707801280AD10698707040203421615C084307990870C9
:204600006F48FDF707F8686A00280DD006983F216054FEF79BFC2DE0947E0000E45B00007D
:20462000F05B0000A08601006846FDF719FC654869460988FCF7EEFFFDF7B8FB01280BD1D8
:204640000020FBF7FBFF40203421615C0843079908700520FDF73CF8FDF7DFF93F20205C85
:20466000FA2804DB06D1FEF76DFC3F20205C401C3F2160547079012811D13920205C0228C6
:204680000DD05148FCF7C6FF069870713920205CFF2804D0484920006030FDF748F8B07800
:2046A000002815D00698B0704848216A0491E16903912421615E0291618A0191217E00915D
:2046C000A38A627E3921615CFCF7A4FF01F047F8F07800280DD00698F07020203421615C33
:2046E000084307990870216D491C2165002000F097FF3C20225C216A608AFCF7B3FC3C21EA
:204700006054C048A18A81421EDB3B20205CC0071AD4FEF724FC002816D04020205C401C0F
:2047200040216054C0B2C92811DB04203B21615C08433B216054B4A0FCF76CFF0020FBF7B9
:204740007DFF04E0805B0000069840216054C548618A81423CDA3B20205CC00738D4392097
:20476000205C022834D0032832D0FEF700FC00282ED04120205C401C41216054C0B2C92899
:2047800029DB08203B21615C08433B216054B6A0FCF740FF0020FBF751FF1CE0801A0600F3
:2047A000FF0F00009CFC0000E84D0000885B000080030010281000A08813000044440000AD
:2047C000905B0000985B0000A45B0000AC5B00000698412160542420205E552811DB4220B4
:2047E000205C401C42216054C0B2C9280CDB02203B21615C08433B216054B9A0FCF70AFF95
:2048000002E00698422160543420205CC0060BD53C20205C0090230008332200210044310D
:204820003920205C00F061FE20000830FEF704F823003C332200443221003920205CFEF7F6
:20484000B7F8210020000830FCF77CFBFD26217831404000084320703921615C00290DD061
:20486000012929D0022942D0032900D19BE0FE2900D147E1FF2900D161E143E54320205CFE
:20488000012804D1069843216054FFF7DBFB3B20205C002804D0FF2006993E22A15406E0CC
:2048A0003420205CC00701D4012000E0FE203A216054FDF742FC3FE53B20205C002800D039
:2048C00024E13420205C410700D526E1C00703D503203A21605435E52000603000F0F0FD67
:2048E000002800D028E53C20215C002022E54420215C080707D40820084344216054012239
:204900003D21625405E03D20205C421E9241D243D20F21003B3120000830FBF7F1FFF825B8
:2049200007214422A25C2A40084010434422A054069A3D23E2540140052918D1200060304E
:2049400000F0BEFD00280BD13C20215C022000F0D7FC00F015FE002802D101203A216054BC
:2049600001204421615C0D402843442160543A20205C3B21615C002901D0FF2004E03421E2
:20498000615C090700D501203A216054605C022800D1D1E406986064FDF7CFFB0021002078
:2049A000FDF7F0FBC8E4C10702D40121014321703420205C40060BD57D2104202278114034
:2049C00008432070A848FCF725FE0520FCF780FE3520205CC00705D5207806402670B8A022
:2049E000FCF718FE3B20205C002801D0FF2074E03420205C400709D5B2A0FCF70BFE022006
:204A00006BE000BFCC100000464F5600207841062CD5296A00291AD1BF210140217020006C
:204A20005830FCF7C5FEB0A0FCF7F4FD6420FDF7C9F9002808D0FF203A21605410203B2110
:204A4000615C08433B2101E001203A21605420005830FCF78BFE00284AD0AFA0FCF7DAFD62
:204A6000FE203AE0E903000046555600810708D5C1091ED18021014321700120FBF7DEFD9F
:204A800017E00020FBF7DAFD65A021880091FCF7C1FD4020217808432070AB4920005830D6
:204AA000FCF745FE20780740277000210020FDF769FB3420205CC0071AD4A6A0FCF7AAFD4C
:204AC0000020FBF7BBFDA44E286A00280AD10120FCF7EEFD761EF7D101203A2160540CE00E
:204AE000464F54000120FBF7A9FDA8A0FCF792FD3A20205C032800D11EE43E202178084037
:204B0000207019E43B20205C002802D0FF20FFF7FAFB3420205C400702D50220FFF7F3FB39
:204B2000286A002809D02000603000F0C9FC002801D0FFF701FCFFF7FAFB0120C9E63E2078
:204B4000205C012802D106983E2160543B20205CE16CCAB282420DD009020843E064954973
:204B6000012220004C30FEF7C5FD00BF2FA0E16CFCF750FD3B20205CC00714D58E49012025
:204B8000FCF782FE6846017D20000830FBF774FD002808D094A0FCF73DFDFE203B21615C23
:204BA00008403B2160543B20205CC00611D5686A00280ED16420FDF705F9002809D100BF0A
:204BC0008BA0FCF727FDEF203B21615C08403B2160543B20205C810706D52421615E32297A
:204BE00002DA06403B2026543B20205C002801D0FFF78CFBE06C0002E0646E4901222000E5
:204C00004C30FEF777FD0120296A002901D0FE2100E001213A22A1543E21FFF775FB0000CA
:204C200057464C523A782558000000004632466C73683A782558000010B5604C200008300D
:204C400003C80022401C51412200083203C2FEF74BFBFDF7A5FA2000083003C8C00401D1D1
:204C60000120A07010BD0000DC5B000030B581B05348046801252C4207D0FDF7D4F951481D
:204C800001688907890F29430160A00705D54D4801698907890F29430161600705D549486E
:204CA000016A8907890F29430162200705D54548016B8907890F0D43056301B030BD00001A
:204CC000447453004344000010B5FBF761FA01243A4A54713C490968002900D00121FDF7BD
:204CE000F9F93A48046010BD4C52000002203749086037480068002802D001202F49087174
:204D0000704734480068002802D101202B49087004202E49086070474C526C0030B581B016
:204D20000220FDF74FF8002809D02B4C002525600A20FCF7BDFCE56101202049487008206E
:204D40002249086001B030BD60EA000010201F49086070474C4E4400400D0300704700B547
:204D600081B0FCF786FC01B000BD00B581B001201249C87000F0A4FA184801684907490F86
:204D800002220A43026001B000BD0000424F000030B581B0104C002525600A20FCF788FC84
:204DA000E561BFF34F8F0E480E490860BFF34F8F00BFFDE7947E00009CFC00008003001098
:204DC000F84000400C400040281000A0244000A0481000A03C1000A0401000A0008000405F
:204DE0000400FA050CED00E04146455263000000444F43526300000010B5C54C02E064208F
:204E0000FCF766FC20680028F9D120680028FCD010BDF1B586B00F00160001A81421FBF7A9
:204E200027FA00246420FCF753FC102569460120FCF714FE019869460988401801906946EC
:204E400009888E4203D368460088B84200D2641C69460220FCF702FE0298694609884018A3
:204E60000290694609888E4203D368460088B84200D2641C69460320FCF7F0FD039869463C
:204E8000098840180390694609888E4203D368460088B84200D2641C69460420FCF7DEFD8D
:204EA00004986946098840180490694609888E4203D368460088B84200D2641C69460520EE
:204EC000FCF7CCFD059869460988401805908E4203D369460988B94200D2641C6D1EA5D118
:204EE0000699019A12090192029A12090292039A12090392049A120904920009059000291C
:204F000003D0052201A8FEF7F5FB032C05D3FA2189000220FDF736F9F9E707B0F0BDF3B52D
:204F200083B016000024002710256846FCF71EFE009800B224186D1EF7D1049800B2E110D3
:204F4000090F09190A11824201DB964200DA012703990192012201A8FEF7CCFB002F05D0C7
:204F6000FA2189000220FDF70DF9F9E705B0F0BD10B582B0040000200090FCF7B2FC009053
:204F8000012221006846FEF7B5FB0122CE496846FEF7B0FB0098002805D1FA218900022096
:204FA000FDF7F0F8F9E702B010BD10B582B00400002000900120FBF741FBC820FCF788FB5E
:204FC0009622920064219848FCF7B2FC0090012221006846FEF78EFB0122BC496846FEF7B6
:204FE00089FB0020FBF72AFB0098002805D1FA2189000220FDF7C6F8F9E702B010BDF0B5E4
:2050000083B0002600960122B1496846FEF772FBB04F39000620FDF7B5F8FFF7EDFE002173
:205020000020FDF7AFF8FCF7CEFCAB4C0125A5633220FCF74DFB0021012000F061F9390081
:205040000620FDF79FF8FFF7D7FE3220FCF740FBA06A00284ED039000520FDF793F8FFF731
:20506000CBFE0220FCF734FBA068002848D1A5630120FBF7E3FA6560256039000420FDF747
:2050800081F8FFF7B9FEA6630020FBF7D7FA6660266039000320FDF775F8FFF7ADFE002133
:2050A0000020FDF76FF88D4A8D498E48FFF7B1FE39000620FDF766F8FFF79EFE00210020C9
:2050C000FDF760F83C220921C9438748FFF727FF01967F4C0122210001A8FEF7ADFB019880
:2050E000A907014301910122210001A8FEF702FB03B0F0BDFA2189000220FDF743F8F9E716
:20510000FA2189000220FDF73DF8F9E7000000003C1000A030B581B06E4C21000320FDF7CC
:2051200031F8FFF769FE7148FFF722FF21000620FDF728F8FFF760FE6D48FFF736FF002466
:205140000094634D012229006846FEF775FB00988021090601430091012229006846FEF7A0
:20516000C9FA0094012229006846FEF765FB00988021890501430091012229006846FEF7FE
:20518000B9FA01B030BD10B582B0524C21000720FCF7F8FFFFF730FE564A57490020FFF77D
:2051A00038FE21000A20FCF7EDFFFFF725FE3C220921C9435148FFF7B2FE21000C20FCF763
:2051C000E1FFFFF719FE4048FFF7D2FE21000A20FCF7D8FFFFF710FE3C48FFF7E6FE2100FC
:2051E0000C20FCF7CFFFB24C012020616420FCF76FFA20680028F9D10021FCF7C3FF0020D2
:205200000090AC4C012221006846FEF715FB00988021890501430091012221006846FEF78C
:2052200069FA02B010BD0000204E0000F0B583B005000027002402970122254902A8FEF72D
:20524000FBFA0298400000D401240298002802D42000022404430298800002D42000042429
:20526000044301970126012D02D1214D1F4901E0164D1549012201A8FEF7DEFA411E8941ED
:20528000C90F00910198FCF78BFB0099014203D100262000082404430122290001A8FEF740
:2052A000CBFA451EAD41ED0F35400198FCF782FB054202D1200010240443200003B0F0BD29
:2052C0000120C34908707047E87E0000EC7E0000C07E000080EE3600201000A08B10000055
:2052E00045100000C47E0000D87E0000DC7E0000E07E000068100000B80B0000E47E00006C
:20530000F1B586B00D00B34801680907090F01600020FBF793F9FCF710FF0020AE49886117
:20532000FEF7A0FEFEF703FE0A246846007E002803D002280DD003D31AE09624640017E0A3
:205340000020A5498863A5480168FD220A4002600EE0A14800218163016041609F48016805
:20536000FE220A4002600168FD220A40026005246846017E9A48FCF74DF905216846FCF7F5
:20538000D6F9FCF765F9002804D06846FCF7EEF90028F6D0FCF766F9DC20FCF789F9FCF7C5
:2053A00030F9FDF723FA9C4800689C490F68039502959E4E059404906846057E00F0CFF9DA
:2053C000022D0BD00298032808D199A0FCF722F96420FCF76DF9FAF7FAFE02E00598FAF7A8
:2053E000EBFE7D48806A00282DD1022D12D0029803280FD1B5600398F0608E4A03CA083A52
:20540000306103CA71613068032101433160300000F0C1F93900049800F0CAF9E1218902DC
:205420000D220120FCF7CEF869480178002913D000210170022D0FD100F091F900F0A0F88A
:205440000028BBD108E00D22E12189020120FCF7B9F879A0FCF7DEF8FAF7B9FEFEF77CFD37
:2054600001245D4EB463FEF7E3FD5C480168C9B202220A4302600168C9B221430160B46157
:205480001E20C046FCF724F96C490120FCF7FCF9FEF7D8FD4F480168C906C90E10220A430B
:2054A0000260290004A0FCF7B5F807B0F0BD0000481000A0C07E000021536C702025750079
:2054C00030B581B004000025FDF71CF9002808D12000FCF74BF9002803D0FBF729FD0028F1
:2054E00000D00125280001B030BDF0B581B004000F0015001E00387800070ED5FBF718FD33
:20550000002803D0FA21C900872035E03878000703D5FDF704F9002830D1200003280AD121
:20552000297849062AD40699FA24E400032908D121008C2020E0FF28F5D1FA21C900022017
:205540001AE0FE2816D07089FBF71AF9042802D12100012010E0032802D1210083200BE069
:20556000022802D12100822006E0012802D12100812001E021008020FCF704FE01B0F0BDD2
:20558000F0B583B02EA0FCF745F82E4C206B471EBF41FF43FF0F002631A003C86A4603C244
:2055A000012525630F216846FCF7C1F803E02068002800D101266846FCF7D8F83043F6D07E
:2055C00027630220FCF784F8300003B0F0BD0000D903001050810440201000A00482044085
:2055E000B954000000B581B0C178009183784278017800BF15A0FCF70DF801B000BD802046
:2056000000010A490A68024004D00A68104308600120704700207047002000A0002100A051
:20562000052802D2084A800011507047000002405600000088030010444431009CFC0000FB
:2056400053436300281000A0040002407625642E25642E25642D2563000000000000000011
:20566000000000000000000010B5FEF78AFC0020FBF712F9C820FCF721F8FAF721FD1B4B64
:20568000182219210120FDF70BFF19490120FDF7C1FF1F241749086820400860FDF72EFC47
:2056A0000120154908601E20C046FCF707F813490120FCF7E9F8002804D111490220FCF710
:2056C00061FDFEE7FDF778FC00F01EF8FBF7FEFCFEF718F9FDF730F80A48052101600168C9
:2056E0000C4010212143016010BD00BF801A0600FF0F000038800440381000A09CFC0000B2
:2057000080EE36005081044010B5402000F009F98024E405200000F017F920201649086005
:20572000FEF744F980080101081A4000606020688006800E0221014321600C21200000F0CA
:2057400019F910BD8020C00501688906890E01220A430260AA218160552181607047EFF308
:20576000108072B60549AA220A6055220A6080F3108870470000000024800440080000401A
:205780000A490A681623134004221A430A600221016030BF704705490A681623134004222F
:2057A0001A430A600321016030BF704710ED00E0F2B5A0B00500434C20680C210143216015
:2057C000414E30680421014331604048016808220A4302600120FDF77DFEC0208004216861
:2057E000014321603168084330608020384C21680091206001216F468A00A3181E68BE5002
:205800001860491C8A00A3181E68BE501860491C8A00A3181E68BE501860491C1F29EBD339
:20582000209928002B4A156810602B4806680160082000F05FF84F20C04300F062F8082090
:2058400000F066F8254F38680121884338602448FFF796FF3868012101433960002081002A
:205860006A4652586250401C81006A4652586250401C81006A4652586250401C81006A46BD
:2058800052586250401C1F28E9D9134806601148056014480C2102680A4302600B48026869
:2058A00011430160104B182219210120FDF7F8FD0E490120FDF7AEFE01200D49087021B082
:2058C000F0BD00BF802300A0002200A0802200A000400440002000A0002100A07C800440D0
:2058E00000000240002400A0801A0600FF0F0000EE000010482101400E4808430E490860EC
:2059000070470E490140202008430D49086070470C490A681043094A02402020104308608E
:20592000704708490A68824304481040202202430A607047B7FF0000308204405FA0000039
:20594000348204403882044007490A6808239A439B0313430B6000210160FF214160034997
:20596000416103498161704780800440FFFF0000FFFFFF004A0703D502681B2313400360DA
:205980000822114004D001688906890E0A43026070470000650D510D3C0D270D110DFB0C51
:2059A000E40CCD0CB50C9D0C850C6C0C530C390C1F0C040CEA0BCF0BB30B980B7B0B5F0BAC
:2059C000420B250B070BE90ACB0AAD0A8E0A6F0A500A310A110AF209D209B2099209720951
:2059E000520932091209F108D108B10891087108510831081208F307D307B4079507760705
:205A0000580739071B07FE06E006C306A60689066C06500635061906FE05E305C805AE054A
:205A200094057B0561054805300518050005E904D104BB04A40400003E0B100BE20AB30A0D
:205A4000840A540A240AF409C309920960092F09FD08CC089A08690838080708D607A50763
:205A6000750746071707E806BA068C065F0633060706DD05B2058905610539051205EC0482
:205A8000C604A2047E045C043A041904F803D903BB039D038003640349032E0315030000A5
:205AA000F0B585B001000831009101684908C900009A521804920200083254184068C50708
:205AC000ED0F4008C000261800200021009A049B9A4240D01368D2180192009B5B68D218DE
:205AE0000392009A08320092019A039B9A42EDD017787FB2521C0192019A039B9A420AD128
:205B0000009A1368D2180192009B5B68D2180392009A08320092019A12786B461A72019AB3
:205B2000521C019288420DD1B44201D1FAF7A2FB2068290001D0494640186168411808349F
:205B40008842F1D06A46127A0270401C002F05D57F1CE7D1C8E7300005B0F0BD7F1ECBD5D6
:205B6000C2E7000080B500BF00BF024A11001820ABBEFBE72600020044504457414B4500C1
:205B8000414645504E5200004146454E5200000041444F430000000041494E543A30782593
:205BA00058000000436867576B4900004842202575206D782025752D2534646D56206D6EC5
:205BC0002025752D2534646D5620256443202537646D41202537646D4100000041444F433F
:205BE0005F4500004661696C3A7825580000000050533A2575202575000000004555422029
:205C000054696D652053740045554220466C6167000000004555562054696D652053740012
:205C200045555620466C616700000000436854202564202564000000424348525F46563A35
:205C400025640000636C6C563E43465600000000496465633A256400563E434D560000005B
:205C600049696E633A256400436846756C000000436852730000000070B40123002413E03D
:205C80000168001D194202D04D466D1E49190C60091D121F042AFAD20D00960701D50C8008
:205CA000AD1C1A4000D02C700268001D002AE7D170BC704710B5074979441831064C7C44DC
:205CC000163404E0081D0A68891888470100A142F8D110BD08000000300000009DFFFFFF43
:205CE000D40100000802001000000000B5FDFFFF020000000200000096A5FFFF4E0000007A
:205D000000000010080200000120C046002801D0FFF7D0FF00BF00BF002000BF00BFFEF773
:205D200041FA00F000F880B500F002F801BD000007463846FFF716FFFBE700BF00BF00BF6E
:205D400000BFFFF7E1FF0000000000000000000000000000000000000000000000000000AE
:205D6000000000000000000000000000000000000000000000000000000000000000000023
:205D8000000000000000000000000000000000000000000000000000000000000000000003
:205DA0000000000000000000000000000000000000000000000000000000000000000000E3
:205DC0000000000000000000000000000000000000000000000000000000000000000000C3
:207E00000100104B5A5A0000A744000000000000AEA1AE100000000000000000000000005A
:207E2000D44CE64FD44CE64F3133303539373030317C3030303030303030303030303030B2
:207E40007C5042503030327C0000000000000000200014002F0E2F0E2F0E9F092F0E3210A4
:207E600034103110F30FED1300000000000000000000010000000000010001010000000077
:207E800000000000000000000000000000000000000000002420212000000000000000005D
:207EA0000000000000000000000000000000000000000000000000000000000000000000C2
:207EC000000000E06A1000006C1000006B1000006B10000063100000180000003D06000008
:207EE000F3000000000000003D060000F30000000000000000000000000000000000000059
:207F0000000000000000000000000000000000000000000000000000000000000000000061
:207F2000000000000000000000000000000000000000000000000000000000000000000041
:207F4000000000000000000000000000000000000000000000000000000000000000000021
:207F6000000000000000000000000000000000000000000000000000000000000000000001
:00000001FF
