:20000000380C0010095F000057170000294E00000000000000000000000000003F2FFFEFE3
:200020000000000000000000000000002F340000000000000000000093390000D94C00006C
:20004000135F0000135F0000135F0000F14D0000F34D0000135F000000000000135F0000E8
:20006000135F0000135F0000074D0000135F0000135F0000135F0000135F0000FF4D000034
:20008000135F0000135F0000135F0000135F0000135F0000135F0000135F0000155F0000CE
:2000A000594D0000814D00009D4D0000B94D0000E94D0000135F0000135F0000135F000050
:2000C00044504457414B4500414645504E5200004146454E5200000041444F4300000000E1
:2000E00041494E543A30782558000000436867576B490000454F5673000000004555567398
:2001000000000000454F5473000000004661696C3A7825580000000050533A2575202575A8
:20012000000000000000000000BF00BF00BF401EFAD17047FA21890000BF00BF00BF491E5A
:20014000FAD1401EF6D1704770B582B0060000BF3DA003C832A430CC0022C0231B060B40F1
:200160000092019302F038FF0B000021301859412940009A019B104319436A4603C26846B1
:20018000C0798106890E802008436946C87102F023FF6A460CCA2B409942F8D301D89042DF
:2001A000F5D302B070BDB0B504000D0002F014FF02000B0003CC083CC0273F060F40002161
:2001C000A818594102000B0015A003C810401940394303C4083CE0798006800E80210143B6
:2001E000E171B0BDD0B50400E0798109C90712D4C00913D002F0F0FE0CCC083C08A6C0CE3A
:2002000016401F40B94208D301D8B04205D3E07940210143E1710120D0BD0020D0BD000005
:20022000FFFFFFFFFFFFFF3FC1794906490EC1717047C1798906890EC17170470000000074
:20024000000000000000000000000000000000000A490A681623134004221A430A6002213D
:20026000016030BF704705490A681623134004221A430A600321016030BF704710ED00E036
:2002800080B500BF00BF024A11001820ABBEFBE726000200FC00FEA58100D100030808009F
:2002A0006497000050CE00030100834BF70002010001DD000040F9000040E6000005A70070
:2002C0000001F10009100E100E100E100E100EEF000040F1000040F8000701004006E803FC
:2002E000000000000000000000000000000000000000000000000000000000007073694E64
:20030000B148704730B581B0994C002809D00125E5610A20FFF708FF2560ACA001F09EF945
:2003200008E0B4A001F09AF9002525600A20FFF7FBFEE56101B030BDF0B587B0070000294A
:200340003BD1122101A801F0E7F9002469460C80A94801A948818C8101AE651C6946E8B29B
:2003600001F050FB6946098800291CD000282DD1318001A8C1896A4612888918C1818189EB
:200380006A461288914201D28281457411464289914203D26946098841810574641CB61C1A
:2003A000052CDAD304E0611C3AA001F057F96CE0122201A9380001F02FFD3800143001F0F7
:2003C00065FB002806D000BF34A000E037A001F045F95AE07869B9694A005118091889109C
:2003E000B9616E2101F048FD1C21795E0E003A6ABB6A9B1BDC001B1B9B02D218030043435B
:20040000D4187E48844200D37D4CE50E192903DD1920401A00112D1A20007A4901F02FFDC8
:200420003018B8623C62A80040198000FA21890041187962744C60684843FA21890001F0BB
:200440001EFDF862684601F067FB009800B28002A16E0A01511A40180011A0664112890D7D
:2004600008188012B883B889684988420DDA788900280AD07869664940186649884204D2B2
:200480001C20385E23307E2801D3002000E0012007B0F0BD5A56433A256400004146454373
:2004A0006F6D6D457272284929000000414645436F6D6D45727228562900000001000020E7
:2004C000554A914201DB04207047DC3A914201DB03207047823A914201DB022070476E3A68
:2004E000914200DB0120704730B581B004000025022913D10125002C34D1484C2000C079E4
:20050000C00900281BD02000FFF76CFE00282CD02000FFF789FE002516A020E001F0D7FD1E
:20052000002804D015A001F099F801251DE0002C18D03A4C2000C079C009002805D1FA2190
:2005400089002046FFF72FFE0FE02000FFF74AFE00280AD02000FFF767FE012509A001F0FF
:200560007DF802E02D48FFF75FFE280001B030BD401000A054314C2B544F0000417465638A
:20058000680000005431482B544F000030B581B014000025002800D001252148814207DBDD
:2005A000012520492048FFF7FEFD280001B030BD2800F6D11C48FFF715FE0028F1D1032C18
:2005C000EFD10125F1E70000D0000010464F6E0030B581B0154C002525606560032807D092
:2005E00004A001F03BF825620A20FFF79DFDE56301B030BD464F6600E8FD000001286BEEAA
:2006000000286BEE002D3101B800001011270000409C0000C1B606003D0F0000E80300105A
:20062000D1070000983A0000F0030010201000A0F2B586B00500BB4C6078694648700127ED
:2006400000200870002A0BD0487020003830FFF7EBFD20004030FFF7E7FDB3A000F0FEFF35
:20066000019526696889069D01998989091AFF22923291421FDBAD4988421CDB2000383001
:20068000C079C009002808D1A94800F0E7FFA94920003830FFF787FD11E020003830FFF72D
:2006A000A1FD00280BD0A44800F0D8FF287820210143297003E020003830FFF7B5FD01987C
:2006C0004089FA21890088421DDA20004030C079C009002809D1994800F0C0FFFA21890024
:2006E00020004030FFF75FFD11E020004030FFF779FD00280BD0924800F0B0FF28784021AE
:200700000143297003E020004030FFF78DFD01F0DEFC03902078032805D101981C21405E9E
:2007200030282BDC0AE00028019809D11C21405E01280DDD0A2801DA012513E0022511E0A9
:200740001C21405E322801DD03250BE0002801D5002504E00A2801DA012500E00225217899
:200760008D420BD020001830FFF73CFD00280BD02A002178B74800F071FF2570FA218900DA
:2007800020001830FFF70FFD60896946488068464578002D07D0022D00D1D3E04FD3032D1B
:2007A00000D1E1E021E1277000206071A071E071FA21890020001830FFF7F5FCFA2120008D
:2007C0002030FFF7F0FCA44D290020002830FFF7EAFC290020003030FFF7E5FC0198808957
:2007E000FFF76CFE060020003830C079C009002805D120004030C079C009002801D000255B
:2008000002E001250520A070019880899349884202DB0120032500E00020FA214901E16087
:200820002072E67020004830FFF703FD01984689FA3EB1B28A4800F011FF668140E00198CD
:200840008089884988425FDB2772874800F006FF0398012846D120002030FFF7C3FC002835
:200860000DD0FA2120002030FFF79DFC2069C82805DD0600323E31007C4800F0EFFE019845
:2008800080897B49884223DB7A4800F0E7FE6079401CC1B2052915DB03256071C82E19DD81
:2008A000754920003030FFF77EFC6846408860812078012800D09AE01E48864200DC9EE0A0
:2008C0001C4E9CE0BD497118C829E6DB0E00E4E70020E2E720003030FFF784FC0028E4D05D
:2008E0000325E2E720002830FFF77CFC0028DCD0594920002830FFF756FCB1492000303071
:20090000FFF751FC0225D0E70A398842CDDA2069E1688842C9DA060032363100A94800F043
:200920009DFEC2E7A801001043685300E50C0000745B0000C4090000805B00008C5B00006D
:20094000985B0000019880899F498842C2DA20002830FFF747FC0028BCD03F49200028304F
:20096000FFF721FC0125A0E70026A079002819D1964800F073FEA771E7719549882001F040
:20098000CFFB944920003030FFF70DFC01984089C3214900401A69464880684641883048E2
:2009A00000F05CFE01988089B349884216DA20003030FFF717FC002810D0B74800F04EFEC9
:2009C000254D290020002830FFF7EDFB290020002030FFF7E8FBA671012502E0032D00D194
:2009E00063E7002001F07AF95FE700255DE7207A012804D1FA204001864200DD0600019843
:200A00008089FFF75BFD0290E17888421CDB20004830C079C009002804D1A04920004830BB
:200A2000FFF7C1FB20004830FFF7DCFB00280BD020004830FFF7F8FBE078401C0299C2B258
:200A4000914200DA0846E070E078042816D187201DE000BFA45B0000E2040000F10F000098
:200A6000B05B000054100000BC5B0000C85B000068100000D05B000050460000032801D197
:200A8000862004E0022801D1852000E084202179049105291DDA012D01D0022D04D1E179F6
:200AA000012901D1042714E0022D01D102270AE0032D01D103270CE0290009D02178022929
:200AC00001D0012904D1FA21890001F029FB00E000273B0001222178300001F027FA0290BB
:200AE0000398012806D1029801F053FA01F064FA0028FBD16A480127C763290003D0022D11
:200B000001D0032D02D10021016015E00499052902DB002101600FE02178002901D00329B2
:200B200006D1002101600399002906D1476004E06A46177007600021416069460978016242
:200B400068460078617A884205D0684600786072642001F0C5FA0299207802F069F9012D14
:200B600017D1019841896089814212D22079401C6A461070684600780190024616A000F0D0
:200B80006DFD0198052807DB052020712661677011E0002069460870684600782071A17827
:200BA0008D4205D0290000BF10A000F057FDA57026616570280007B0F0BD00BFD4FEFFFF29
:200BC000C8320000D85B000004100000E05B000060EA0000E0930400436867563A2025648D
:200BE0006D56202564206661696C0000436853743A25640070B516002A4D6C7872892A4B92
:200C00009A4221DBB3899A1A332A1DDB012806D0022819D108784007400F032814D101205D
:200C20002870200018D028000830FFF7DBFA002807D0002001F052F8002400BF0FA000F00D
:200C40000DFD6C70200070BD00242C70002001F045F828780128F4D1707C01F03FF801248C
:200C6000FA21890028000830FFF79DFA7289B18904A000F0F3FCE4E7D20F000042616C2050
:200C8000446E000042616C25753E2575000000000448007870470000E85B000030750000BE
:200CA000201000A0D8030010610E0000F3B587B0984CA66CE76C02F08FF902AA03C2079858
:200CC000408900900798C08901900798406900250099914A914207DA002F35D1002E33D146
:200CE00002A8C0C88D482DE08D4A91420BDA8D49884208DA002F27D1002E25D102A8C0C852
:200D0000009989481EE00099884A91420BDA8849884208DA002F17D1002E15D102A8C0C86E
:200D2000009984480EE00099834A914262DA834988426EDA002F07D1002E05D102A8C0C8D0
:200D400000997F4800F08AFC9620400000218019794120656165A664E764226D636D02A8AA
:200D600003C88B4207D801D3824204D2002F01D1002E00D00125A06DE16D04AA03C2019A00
:200D8000704B9A4259DA002909D1002807D102A803C804AA03C201996B4800F05FFC04A85A
:200DA00003C800220A3051412066616604A803C8A065E165226E636E02A803C88B4209D8E7
:200DC00001D3824206D2A06DE16D002901D1002800D0012508980078DF2101406801084322
:200DE0000899087007991C228F5E082630424ED032204DE00846A74988420ADB002F01D1E4
:200E0000002EA8D00146A44800F028FC00260027A1E7226D636D02A803C88B429BD301D828
:200E2000824298D3002F04D1002E02D1A564E564A1E79A4800F012FCF8E7009A954B9A428F
:200E40000CDB002901D10028B0D01146B44800F005FC0020002104AA03C2A7E7266E676E19
:200E600002AA0CCA9F42A1D301D896429ED3002906D1002804D104A803C8A065E165A9E72A
:200E8000B74800F0EBFB0020A065E065A2E7442025008835874259DA2800C079C0090028F6
:200EA00002D0B04800F0DAFB2800FFF7BDF9002608980078F72101400E4308980670079832
:200EC0001C21465E250090352120C043864252DB2800FFF7A9F9002008990978EF220A40B1
:200EE0001043089908704007C70F079846698069009025008035A068B04259DA2800C0793A
:200F0000C00900284ED161690A392800FFF74BF95AE000BFB8000010DC0500001C5B000039
:200F2000120C000089130000245B0000A9090000214E00002C5B000071060000419C00007C
:200F4000345B00004C1D0000505B00002800C079C009002809D1390051A000F07FFBFA2113
:200F6000C9002800FFF71FF9A1E72800FFF73AF900289CD09CE72800C079C00900280AD155
:200F8000310000BF48A000F069FBFA21C9002800FFF709F99FE72800FFF724F900289AD0CE
:200FA000102099E72800FFF71DF9002860D10BE02800C079C009002803D000BF3CA000F059
:200FC0004DFB2800FFF730F90798C06AB04213DA20007830C079C009002806D121690A3944
:200FE00020007830FFF7DFF813E020007830FFF7F9F800283CD10CE020007830C079C009CF
:20100000002802D02CA000F029FB20007830FFF70BF92068B04213DA20007030C079C0090B
:20102000002806D1E1680A3920007030FFF7BBF819E020007030FFF7D5F8002818D112E03D
:201040000099494A801881420DDA20007030C079C009002803D000BF19A000F0FFFA2000E4
:201060007030FFF7E1F8002F04D04048864201DB042000E0002008990978FB220A401043D2
:20108000089908703C210140481E8041C00F09B0F0BD00001C0C00003C5B0000485B0000DB
:2010A0004F5450402564000055545040256400004F4333636C0000004F4332636C0000008B
:2010C0004F4331636C00000070B51400FF23F433C918274B99421FD2AF210901884201DA5E
:2010E00003200AE02349884201DA022005E06431884201DA012000E000201F4E90420DD054
:2011000035786D1E290606D164250400210000BF04A000F0A3FA3570200070BD6425FAE797
:20112000585B00004C77566C743A25750000000010B5124C200000BF03A1182200F06CFEF5
:201140000F48606410BD000060EA0000C0D40100400D030090010000C80000000F00000010
:20116000645B00006C5B000048F4FFFF71170000C30900000C0D0000B7000010B8000010B3
:20118000C0D40100F6B581B005001C00002000900127019885421FD306467743280039002C
:2011A00000F06DFEB04214D377432800390000F066FEB0420DD377432800390000F05FFE52
:2011C000B04206D377432800390000F058FEB042E3D20196002F27D02800390000F04FFEE1
:2011E00006002800390000F04AFE0D003800019900F045FE07000098002803D1002E01DC98
:20120000002FE7D12000441C0A2E01DA302105E00299002901D0372100E0572171180170DF
:201220000098401C0090D5E70020207003B0F0BDF0B58BB00D000592049301E02000A84753
:20124000040005980178401C0590080000D1B8E12529F3D10020694608700790059800780C
:201260000599491C0591302805D10878491C059101216A461170010030390A291ED20599AE
:20128000002205E0900080184000C2180878491C03001E00303E0A2E01D2303B0AE01E0013
:2012A000613E062E01D2573B04E0413B062B03D20300373B0A2BE5D905910792010000D127
:2012C0007FE12528BAD0582800D11FE1632800D151E1642800D18CE0732800D152E17528F3
:2012E00003D0782800D111E1ABE7049800680499091D049101A90991069000200890012710
:2013000006980A2827D30646B800C7197F003000390000F0B4FD0A281AD3B800C7197F0060
:201320003000390000F0ABFD0A2811D3B800C7197F003000390000F0A2FD0A2808D3B800C2
:20134000C7197F003000390000F099FD0A28DBD20696002F23D00698390000F090FD060048
:201360000698390000F08BFD069138000A2100F086FD07000898002803D1002E01DC002FD4
:20138000E7D10998411C09910A2E01DA302100E05721711801700898401C0890D9E70020D3
:2013A0000999087001AF079968460078002801D0302600E0202601AA200000E0491E130003
:2013C0005A1C1B78002B01D00029F7DC002907DD2C000D006D1E3100A047002DFADC02E03E
:2013E0002C0000E0A04739787F1C0A00FAD1250026E7049800680499091D049101A9002879
:2014000006D5414208002D216A46117101A9491C0991069000200890012706980A2827D3FD
:201420000646B800C7197F003000390000F027FD0A281AD3B800C7197F003000390000F03D
:201440001EFD0A2811D3B800C7197F003000390000F015FD0A2808D3B800C7197F00300085
:20146000390000F00CFD0A28DBD20696002F23D00698390000F003FD06000698390000F009
:20148000FEFC069138000A2100F0F9FC07000898002803D1002E01DC002FE7D10998411CE0
:2014A00009910A2E01DA302100E05721711801700898401C0890D9E700200999087001AF9E
:2014C000079968460078002801D0302600E0202601AA200000E0491E13005A1C1B78002B78
:2014E00001D00029F7DC002907DD2C000D006D1E3100A047002DFADC02E02C0000E0A0475E
:2015000039787F1C0A00FAD1250099E6582801D1012200E00022049800680499091D049133
:2015200001AB1021FFF72EFE01AF079968460078002801D0302600E0202601AA200000E016
:20154000491E13005A1C1B78002B01D00029F7DC002907DD2C000D006D1E3100A047002DFA
:20156000FADC02E02C0000E0A04739787F1C0A00FAD1250064E6049800680499091D0491D4
:20158000C1B25BE604980668001D049007993200200000E0491E13005A1C1B78002B01D08B
:2015A0000029F7DC002907DD0C00641E2021A847002CFADC00E0A8473178761C0A00FAD183
:2015C0003EE60BB0F0BD30B581B00C0000280CD1414D287801F0F8FD2100404801F09FFE0D
:2015E000287801F0DEFD002001E00470401C01B030BD0EB400B5020001AB39480168406859
:20160000FFF716FE009804B0004770B50C001100314DAA78002A16D1060001F023FD210002
:20162000300001F033FD2E4CFF222100083185208000201801F04AFE2A48206000206060FC
:201640000120A8702E7070BD10B5234C0020A070207801F0FFFD207810BD00000EB410B5B1
:2016600081B01D498978012911D1040001F087FE010000BF1DA0FFF7BCFF03AB18482200EE
:2016800001684068FFF7D4FD17A0FFF7B2FF01B0019810BC04B0004700B581B00F4801F0D5
:2016A00025FE401E8041C00F01B000BD00B581B00A4801F017FE01B000BD0748817801298D
:2016C00000D0704700B581B000220449007801F07DFE01B000BD0000B40000101C060010E6
:2016E00008040010C71500000D0A00002539757C200000001206130A1A43130C1A4300BF9F
:20170000094205D083070FD00270401C491EF9D1704700000022F3E7002205E01206130A52
:201720001A43130C1A4300BF1300103906D330B41400150010393CC0FCD230BC490700D3AD
:201740000CC000D504C0890002D30280801C002900D502707047FEE770B586B004000D0A26
:201760000E0004A8A6490A68026044708570C670042101F05DFE03A90C704D708E70C87081
:201780000122002102A801F0CDFE0020019002A80090042303AA2921BB48007801F0ACFF7F
:2017A000401E8041C043C00F06B070BD70B584B004000D00684604720322002103A801F0E5
:2017C000B1FE0320019003A80090012302AA2921AD48007801F090FF002801D0012017E053
:2017E00003A84178027812020A432A806A46C64B60CB60C26A4654700378D3701171807846
:2018000050710621684601F013FE002800D0022004B070BDF0B585B09B4A10700320FFF7DD
:201820009BFF070004A876490A68026005264670002484701025C570042101F0F9FD03A9AD
:201840000E704C708D70C8700122002102A801F069FE019402A80090042303AA29218A4814
:20186000007801F049FF032001F08EFD781E8041C00F05B0F0BD70B582B0002669460E80D6
:20188000002420252720FFF791FF002805D1684600880005000D6946088068460088241823
:2018A00069460E806D1EEDD17748610941800221405E964A8118292901D3002000E080B226
:2018C00002B070BDF4B582B007000E00002069460880002420252720FFF768FF002805D1D7
:2018E000684600880005000D694608806846008824180020694608806D1EECD1624D38B2BF
:20190000E10209140222AA5E891A00F0B5FA04006C607F487F49614300F0B1FAB04205D3F1
:2019200069460989814201D3200000E0002003B0F0BD010000B2754A801829288041C00F64
:20194000514A51807047010021388F22520090428041C00F4C4A51607047F0B585B00024A9
:20196000032569460D720322002103A801F0DAFD019503A80090012302AA2921424800786B
:2019800001F0BAFE002813D103A84178027814020C436A465C4BC0CBC0C26A4655700378FB
:2019A000D3701171807850710621684601F040FD200005B0F0BD30B585B004A810490A6893
:2019C000026002244470FF258570C570042101F02FFD03A90C704D708D70C87001220021DD
:2019E00002A801F09FFD0020019002A80090042303AA2921D348007801F07EFE05B030BD05
:201A00000C1E0000F0B585B00C002030694608726846007A48720322002103A801F082FDFA
:201A20000320019003A80090012302AA521C29211548007801F060FE002801D0012020E0F1
:201A400003A84178027815020D436A462E4BC0CBC0C26A466B461B7A53700378D370117112
:201A6000807850710621684601F0E2FC002801D0022006E02905090D8A0051188902090B32
:201A8000218005B0F0BD000048020010F1B584B000242720694608720322002103A801F099
:201AA00041FDA84D0320019003A80090012302AA2921287801F020FE002801D001201AE027
:201AC00003A84178027814020C436A460E4BC0CBC0C26A46272353700378D37011718078B8
:201AE00050710621684601F0A3FC002801D0022001E02405240D04990222AA5EA21A6B6812
:201B00005A430A6005B0F0BD101E0000D4F9FFFF00809698C39C0000F0B587B0060000254F
:201B200069468D81202088720322002104A801F0F9FC0320019004A80090012302AA921C68
:201B400029218048007801F0D7FD002801D0012420E004A84178027812020A436B461A818C
:201B60006A4600BFAAA330CB30C26A46202353700378D3701171807850710621684601F047
:201B800057FC002801D0022400E000246846008905052D0D68460581059600899249884257
:201BA00000DA80E0032569468D720322002104A801F0B8FC019504A80090012302AA921C2E
:201BC00029216048007801F097FD002816D104A84178027812020A436B469A816A4600BF8C
:201BE0008BA3C0CBC0C26A4655700378D3701171807850710621684601F01AFC68468089A9
:201C00007A4A0240012111430320FFF7A5FD2025684685720322002104A801F083FC03201E
:201C2000019004A80090012302AA921C29214548007801F061FD002816D104A841780278CD
:201C400012020A436B461A816A4600BF70A3C0CBC0C26A4655700378D370117180785071DA
:201C60000621684601F0E4FB684600890205120D002500235E491E04F6138E5BB24202D396
:201C8000233B012500E05B1C18B2322809DA2800F1D005980380684681890320FFF75CFD2F
:201CA00017E00F23F5E7002600220023514D684600897700EF5BB84203D332000A320123BC
:201CC00001E0761C36B2502E06DA1900F1D005980280200007B0F0BD5A22F8E770B586B018
:201CE000010006D0062804D201218140C0240C4300E0C02404A800BF44A10A6802600E26D7
:201D00004670FF258570C470042101F091FB03A90E704D708C70C8700122002102A801F024
:201D200001FC0020019002A80090042303AA29210448007801F0E0FC401E8041C043C00F1B
:201D400006B070BD4802001000B581B069460220FFF72CFD68464078C106C80F01B000BDFE
:201D6000F0B587B0002402A9497810220A4302A94A7004AFFF260590022500E0641C02A875
:201D80004078C0062CD503A820A10A68026003A94D708670C670042101F04AFB3D707E70F9
:201DA000BE70F8700122002102A8801C01F0BAFB0020019002A8801C0090042304AA2921B7
:201DC0000D48007801F098FC02A90220FFF7EEFCA1B2059A914201D20028CFD0012000E0A4
:201DE000002007B0F0BD0000660D0000FCFF0000685D0000C45C00004802001000B581B0CC
:201E000001000220FFF7D2FC01B000BD52000000520053000000000070B4103A03D378C9F1
:201E2000103A78C0FBD2530701D318C918C001D508C908C0D20704D30B880380891C801CF6
:201E4000002A01D50B78037070BC7047F446002804D4494200F013F8404260474042002915
:201E600005D45FD000F00BF8404249426047494200F005F84942604703460B43E6D4002296
:201E8000030A8B420BD203098B4219D243088B422ED2411A00D20146524110467047FF227A
:201EA00009023FD012068B4205D3121209028B4201D31212090203098B4219D300E0090A94
:201EC000C3098B4201D3CB01C01A524183098B4201D38B01C01A524143098B4201D34B01FD
:201EE000C01A524103098B4201D30B01C01A5241C3088B4201D3CB00C01A524183088B4253
:201F000001D38B00C01A524143088B4201D34B00C01A5241884200D3401A5241CFD20146DF
:201F20001046704708B5C046C04608BD10B55B0714068022520414401C43002905D00229F1
:201F40000BD006D303290CD00FE021008A2424040AE021009024240306E02100C82464039F
:201F600002E02100DC24A4030C436449884200D908003221FFF783FF0002FF2109020140D7
:201F80002143080E0A0C4240080A5040C0B2084310BD70B505000026594C667000F0F8FF51
:201FA000A6706670267025610120607000F0E8FF544800F0F9FF70BD514840787047F0B5F3
:201FC00081B04F4C607800284FD020000830C0C801F002F88F4248D801D3864245D220780F
:201FE000002806D0022813D00BD3042835D020D33BE0012544480560444800F0D5FF2570BD
:2020000033E0002040490860404800F0CDFF21E001203D490860A078202805D2FA204000B7
:2020200000F0C2FF032016E0384800F0BDFF042011E00020344908602069A178C840C0071F
:2020400001D5334801E0FA20400000F0ADFFA078401CA0700220207007E000202A49086040
:2020600000216170607000F093FF01B0F0BD10B5234C2279002A29D1E278002A03D0022A48
:202080000ED004D320E0012920D101201DE000291AD1204940182049884215D2022014E04D
:2020A000012911D11B4940181B4988420CD20020E0700120207100F08FFF00225030514178
:2020C0002200083203C210BD0020E07010BD0C480079704700200A490871C87048707047BE
:2020E00030B581B0040000F077FF002524184D410A4830C001B030BD00000000E02E000083
:20210000B003001088130000241000A094110000DC05000030F8FFFF89130000B80300107A
:2021200030B581B00400044D28000830FEF73BF82C7001B030BD00003002001070B5CF4EEE
:2021400030000830FEF74EF8002801D000203070748870783178884207D000213000103064
:20216000FEF721F83078707000243078C11E0F2902D2C349C34A11602500401E8B2800D979
:2021800030E202A14000095A8F4400BF1801200146014E0156015E0164016C0174017A010D
:2021A00082018A0192019A01A001A601180158045804580458045804580458045804580446
:2021C00058045804580458045804580458045804580458045804580458045804580458043F
:2021E00058045804580458045804580458045804580458045804580458045804580458041F
:202200005804580458045804580458045804580458045804580458045804580458045804FE
:202220005804580458045804580458045804580458045804580458045804580458045804DE
:202240005804580458045804580458045804580458045804580458045804580458045804BE
:2022600058045804580458045804580458045804580458045804580458045804580458049E
:2022800058045804580458045804AE01D401F201120244026C029A02C8021801FC0236037D
:2022A000A403160401257648C3499DE130001030FDF798FF002800D197E17148002C03D0CB
:2022C000BD490860002502E06E4908600125FA2183E10120C649086287E10120C449C8616C
:2022E00083E10120C24988617FE10120C0497BE1C0204005B04977E1A0204005AE4973E1B9
:20230000BC48AD4970E1C0200005AB496CE181200005A94968E18220C004A74964E1E020D0
:202320004005A54960E1B448A3495DE1B348A2495AE1C1200005A04956E1200031D030008B
:202340001030FDF74FFF002800D14EE1C12000054C49086080204005C4490860FA213CE15E
:2023600020001ED030001030FDF73CFF002800D13BE101209E490862C120000533E120000F
:202380000FD030001030FDF72DFF002800D12CE1C0204005884908608220C00423E12000E0
:2023A00008D1651C142130001030FDF7FCFE3448814919E130001030FDF714FF002800D180
:2023C00013E1E02040057C490860002088490BE1C12000052B49086030001030FDF702FF93
:2023E000002800D101E1FA2130001030FDF7DBFE802040059D49F7E001207D490862822015
:20240000C0042049086030001030FDF7EBFE002800D1EAE0FA2130001030FDF7C4FE802036
:2024200000059249E0E0C02040056349086000206F49086030001030FDF7D4FE002800D154
:20244000D3E0FA2130001030FDF7ADFE8020C0048649C9E0E0204005574908603000103006
:20246000FDF7C0FE002800D1BFE0FA2130001030FDF799FE802040037C49B5E0300200107D
:202480000000101C802200A030001030FDF7AAFE002800D1A9E0C82130001030FDF783FE72
:2024A0002000052800D9A0E001A1095C49008F4421292F355D024E480121C1610025856161
:2024C00093E030001030FDF78DFE002800D18CE0642130001030FDF766FE2000062800D9C1
:2024E00083E002A1095C49008F4400BF040C12181E1E590001203E490862C1200005644922
:2025000008604AE03A480121C1610021016244E03748012181610021C1613EE03448012139
:2025200001600021816138E000203149086034E030001030FDF756FE002856D0642130004E
:202540001030FDF730FE200006284ED801A1095C8F4400BF0818243240404A00E020400587
:202560004B4908600125224805603EE02048012181610021016010E01D480121C1610021A4
:202580008161032531E01A48012101620021C16104252AE0002016490862651C25E000252F
:2025A00023E0002C0AD101250A2130001030FDF7FAFD3848004917E0002200A03000103073
:2025C000FDF710FE002810D0C12000053049086080204005254908607D2130001030FDF76D
:2025E000E2FD02E02B482A490860758070BD0000501000A00000101000001018000010143E
:20260000F0B581B006000D00234C244920000830FDF7C9FD00202070FA208000FDF794FD14
:2026200028001DD0B61C6846067096277F00FA267600310020000830FDF7B5FD6846007868
:202640002070C820FDF780FD310020000830FDF7AAFD002020703800FDF776FD6D1EE8D1DA
:20266000FA208000FDF770FD01B0F0BD002300A010B5094C20000830FDF7B4FD002802D02D
:202680002078002800D0012010BD034800787047802200A00000101C30020010DC050000B1
:2026A00000B581B000F006F800F028F800F04AF801B000BD10B58AB0684686492822FFF7DA
:2026C000ABFB854C0A2120005E30FFF723F8FF220A2120005430FFF721F820005030642175
:2026E0004180002101802822694620002830FFF793FB0120794908720AB010BD10B5A6B083
:20270000FC24E4010121200001F000F9002809D125222100684601F0D6F8802269466E48AA
:20272000FFF77AFB26B010BD10B56C4C207A002807D02522FC21C901674801F025F800206A
:20274000207210BD7F22654801781143017043781A43427082781F2313438370FF22C270EC
:20276000037901221A43027180230B4303700221114301717047F1B582B059480299302280
:20278000FFF74AFB56481C21405E534B1900503150229A5E824206DA0880504A527801242E
:2027A00014434E4A547002228A5E904205DA48804A48417802220A4342700021494A029825
:2027C0000090148825012C1B009D2D88641924091D0054350195414D5427DF5BA6B2BE428D
:2027E0000ED2019E34806F7883263E40B44601268E40B6003E437C273740664637436F7053
:20280000019E7689A7B2BE420DD2019E7481AF78E0263E40B44601268E403E43F606F60E33
:2028200067463E43AE70491C9B1C009DAD1C00951480921C0429C4DD284C20003030FDF73D
:20284000D1FC002838D0284920003030FDF7ABFC0420410022000E32525A230010335A526A
:20286000401EC0B2002820D0410022000E32525A230010335A52401EC0B2002815D04100F1
:2028800022000E32525A230010335A52401EC0B200280AD0410022000E32525A2300103391
:2028A0005A52401EC0B20028D3D10D48C0892082207980210143217102984069C046C04631
:2028C0000020C046012803D1207904210143217103B0F0BD3C5E000000000010F80100102E
:2028E0005003001014020010C0D40100FFB587B0BF4EB579B0690390307A69460872BD4C0C
:202900006846007F02286BD1099800784007400F012849D1F079012806D0B749300020304A
:20292000FDF741FC00253FE030002030FDF75AFC002839D0280037D10125B04F38007230F8
:20294000C188491CC18020790121014321712572386A002808D101F03AF87862386220788E
:20296000602101432170257201F031F8796A401A009001F02CF878622178402008432070C0
:20298000F969009A914203D2FA61102101432170B8698018B8612078082101432170257233
:2029A000002003906946087207270998007807210140032910D1F07903280DD001F007F81D
:2029C0008E494862207840210143217001202072002003906946087209980078074001E0D8
:2029E00000250027F771B5716846007F032800D0A8E0824F7079032811D000F0EDFA32007E
:202A0000103203C238008030C046C0460020C046012851D120790421014321714CE000F09A
:202A2000DBFA320010320CCA801A994104AA03C2300010300CC804A803C880185941320071
:202A4000103203C23800103003C800900191B1484069C11704AA0CCA00F0CCFF009A019B1B
:202A6000801859413A00103203C2380008300CC804A803C8801859413A00083203C2207825
:202A8000062101432170039A04A803C810186946097A00290FD1A04988420CD33900723155
:202AA0008A88521C8A80E17880220A43E270012121726A46117203900325089800784006F1
:202AC0003DD5C046C046707A002802D0757103204FE00121717208980078400708D57220E9
:202AE000385A401C7222B852E07820220243E27008980078000708D5380072304288521C0B
:202B00004280E07840220243E27008980078800613D58048007C4200BA186623D35A5B1C97
:202B20006627D353E778E0223A40401E012383403B43D806C00E1043E0702172C6E7002095
:202B40007072C3E7C046C0466846007F70716846007F01280DD002280BD00328B7D0FE28BF
:202B600002D0FF2802D003E0052002E0072000E00020A072A17A202032798A4204D0227926
:202B80002023134323713171A84D2A78089909780B0702D50123134301E0FE2313402B705A
:202BA0004A0703D56A782023134307E02279520605D44A0603D46A78DF2313406B706A78A3
:202BC000014202D00223134301E0FD2313406B706A46127F032A13D1490611D44D491C22DC
:202BE000895E01290CDA297808220A430BE000BF80030010F8010010C02709000000001080
:202C00002978F7220A402A700A990A78022A01D0032A08D1297880220A432A7069780122C0
:202C20000A436A700CE02B78FE21002A02D080221A4301E05A06520E2A706A78114069707D
:202C40006946097F022933D1099909784907490F03292DD168780421014369702878DB215B
:202C600001402970FA20C0002A494969814260DA2849896981425CDA26498889734A904213
:202C800057DB6A781207498934D4401A382850DB30002830C079C009002834D0300028300A
:202CA000FDF7A0FA012848D16878082101433EE0FB216A780A406A706A46127F022ACDD1AC
:202CC000099A12785207520F012A01D0022AC5D1237B2A78032B04D1DB2010400421014358
:202CE000BFE7002B03D1114008432870BAE7DB201040FAE7401A2D281BDA30002830C079C9
:202D0000C00900280AD1524930002830FDF74BFA13E000BF50030010E19304003000283076
:202D2000FDF760FA012808D16878F7210140697003E030002830FDF777FAF7696846007FD4
:202D4000012803D06846007FFE2826D142481C21405E27280CDB002F10D000F038FEF16903
:202D6000401A3C4988421DD328780221014318E01121C943884210DA002F03D100F027FEB1
:202D800007000FE000F023FEF169401A3149884208D328781021014303E000272878ED218C
:202DA00001402970F761A978FE200840A87069784906490E6970F5210140607B4000084325
:202DC000A87030682968884205D020794021014321712868306009980078000715D5099878
:202DE00000784007400F03280FD0FFF74EFC842801D101200DE0852801D1022009E08628B7
:202E000001D1032005E0042003E013484089FDF755FBE0726846007A30720398B0610BB0E6
:202E2000F0BD1F490860704700000000F80300100A4A1073080A517AC3B2994204D05072B9
:202E4000107910210143117170470000710D000088130000312A000050030010F80100105B
:202E600010B40121084205D00D4A7A23D35C5B1C7A241355820703D51B4A53785B1C5370E2
:202E8000420703D5184A93785B1C9370C00603D515480279521C02710248017210BC704793
:202EA00000000010F8010010012010494873704700200E49487370470A485A210171417133
:202EC000704708480079A52801D0012070470020704704484079A52801D00120704700208A
:202EE00070470000000000107A000010F801001070B5474CE06847490140E160210D4648AA
:202F0000E26802400A43E260444D296044490B68012213400B600B6913400B610023DB4327
:202F20008B604B699B079B0F1A434A613D493E4A4A603E4A13681B021B0AC02636061E431E
:202F4000166000228A6007220A60E168384A0A40E260E1680840610D0143E16001213548E2
:202F600000F062FD206802210143216080200002286031490A68314B13401843086070BDBD
:202F8000274801684907490F01220A4302607047234841688907890F01220A434260016871
:202FA00006220A400260704741000818800080210906884200D3C843014321480160704788
:202FC00000B5204841680022D24302605008401A0C21FEF754FF00BDEFF3108272B61A48B0
:202FE00003C882F31088704730B581B00400114D280000F024FD4443EC6001B030BD0D48CB
:2030000001684907490F04220A430260704700007C800440F0FBFDFBF0FFFDFB00E100E048
:203020000840004010E000E0DF2E000020ED00E0F0FDFDFB0080004014820440BBB960C02B
:203040000040004010400040D003001000B581B000F000FDE12292030021022000F0B0FD32
:2030600001B000BD00B581B0564A8300D150002802D0012803D007E01168C9B202E051684C
:20308000C9B2112000F0F8FD01B000BD70B5002803D0012817D1534C1AE0534C0222534B06
:2030A0001A61002C47D0002802D0012814D024E08022D2014D4B1D680826B54315431D60BA
:2030C0009D684B4E12E000240028E7D00128E8D10222464B5A61E4E780221202434B1D6877
:2030E0000826B54315431D609D68424E2E409E609D68414E2E4032439A6022683F4B1340FC
:203100002360002803D0012809D1364D00E0364D0E0000F09FFC3100280000F002FE2068DE
:203120004A49014004200843206020684849014001200843206070BD30B581B0002803D048
:20314000012808D1274C00E0544C04252561200000F0B4FDE56001B030BD002803D1504893
:203160000068C0B2704700207047002802D0012802D006E04B4800E04B4800684107C80F7F
:20318000704700207047002802D0012802D006E0444800E044480168C807C00F70470020F0
:2031A0007047002802D0012805D0704704203F490860082003E004203D49086010203D49C2
:2031C0000860704728060010002802D0012803D070470420384901E004203849086070479B
:2031E00000000000008006400040064080800440F0BFFDFBF07FFDFBF0FFFDFB7CDA0000F4
:20320000002805D001280AD104202C4908600AE004202949086001202749086013E00028B0
:20322000F9D001280AD1012024490860102024490860BFF34F8FBFF36F8F7047002802D0D5
:203240000128F3D070470820F1E7000001DA00007DDA000010B50400FFF7D2FF002C02D00B
:20326000012C0CD010BD0D480168174A0A400260FF21002000F000FDFF2101200AE01148FC
:203280000168114A0A400260FF21112000F0F4FCFF21122000F0F0FC10BD0000004006400C
:2032A0001440064008400640088006400C4006400C80064000E100E0104006401080064087
:2032C00080E100E0008006407CDA000030B400230024002538C00C38016002818380C380DB
:2032E00030BC704700218180C180704701000020CA8889888A4200D10120704730B4010033
:2033000000208B885B1C0D899CB2AC4200D30023C9889BB28B4200D1012030BC7047D0B5B6
:2033200004000F000026FFF7E9FF00280BD101262068A1884754A088401C228981B29142CA
:2033400000D30020A0803000D0BD30B402000020D4889588AC420BD0012015682C5D0C70B2
:20336000D188491C15898CB2AC4200D30021D18030BC704714480168491C0160704772B673
:203380001148006862B6704782B06946002200230CC172B60C490A6862B6101801906A463A
:2033A0001278FC23134001221A436B461A7009D46A461278D207FBD572B60A6862B6821A48
:2033C000002AF9DC02B070470004001070B582B004000D001600FFF7C8FE012820D104E039
:2033E000012269462000FFF7A7FE2000FFF7BDFE012805D169462800FFF7A7FF0128EFD015
:203400002800FFF773FF00280AD02000FFF7DCFE06E02000FFF7A1FE01003000FFF77FFFEA
:203420002000FFF7B0FE0128F3D002B070BDFEE7F3B482B0002001906A46107038498A78DB
:20344000002A47D100240D008023E6B21E4201D0072700E0002776007740FFB21F4201D048
:20346000072600E000267F007E40F6B21E4201D0072700E0002776007740FFB21F4201D0BE
:20348000072600E000267F007E40F6B21E4201D0072700E0002776007740FFB21F4201D09E
:2034A000072600E000267F007E40F6B21E4201D0072700E0002776007740FFB21F4201D07E
:2034C000072600E000267F007E402E70641C6D1CFF2CBADD039C029B002C1CD0019A684676
:2034E00000789D5C4540485D521CA24211D29E5C4640885D521CA2420BD29D5C4540485D45
:20350000521CA24205D29E5C4640885D521CA242E7D3694608706846007804B0F0BC7047AD
:203520005002001010B504000800110002002000FEF7E0F8200010BD70B504001D0016000F
:20354000200007D0012C0CD1712000F095FB3100722004E0502000F08FFB3100512000F036
:203560008BFB2900200000F044F870BD30B581B0040003D0012C03D15B4803E05B4801E02B
:203580000020C04301681E220A400260016817220A40026080214904C160544A904204D012
:2035A000514A904203D1152202E0052200E0FF22012191404E4A13684E4D0D43AB43136037
:2035C00013686A4D1D400D43156000F0B7FB002C02D0012C05D00AE0502000F05EFB5120E1
:2035E00003E0712000F059FB722000F056FB01B030BD30B581B0040000F02CFA5C48002CA2
:2036000002D0012C08D00EE001680822914320220A43026005230DE001680822914392047B
:203620000A43026003E0002CF4D0012C01D1152300E0FF23012101229A4083682D4D1543F3
:20364000AB4383608368494D1D4015438560002C03D0012C04D1816206E04162454804E0A0
:20366000002CFBD0012C02D11F48143000E0132005210160002C03D0012C03D11A4803E0C9
:203680003C4801E00020C0430122002100F07AFB002C03D0012C03D1134803E0354801E05D
:2036A0000020C04300F076FB01B030BD002803D0012804D10C4900E02E49103100E00F21F2
:2036C0002D4A0A60002803D0012803D1064803E0284801E00020C0430168C906C90E082233
:2036E0000A430260704700000040054000000540888004400F00020470B584B0040008983C
:20370000099E6D466973002129732B816E810092019000F0F9FC002C03D0012C03D11748B4
:2037200003E0144801E00020C043694600F0B9FB002815D1002C03D0012C03D1152002E0CE
:20374000052000E0FF20012181400D4802680D4B0B439A4302600268044B13400B43036001
:2037600000F0C9FC287B04B070BD0000F0FFFDFB8080044000000540BF0B00000040054051
:20378000888004400F000204F0B5A5B004000D00FC20C001854201D3A80701D001205BE069
:2037A000009200F057F9EFF31080049072B6A806800E2F1A860800983018401E0009401C53
:2037C0000025002844D00294019000F043F90397384605A90424042203680B6043684B60F5
:2037E00083688B60C368CB6010311030521EF3D10298A900405805A9B20088506D1C0098B4
:20380000854202D2761C102EF2D31F211F2000F0ABFC002819D1B809010000F0C9FC0028B1
:2038200001D0643011E01F211F2000F09DFC002801D0C83009E0402205A9380000F0A2FC7A
:2038400000280BD0962149004018010037D12DE0049880F31088002025B0F0BD00F0FAF8CC
:20386000039815A902680A6043684B6082688A60C368CB6010311030641EF3D1002015A9F6
:2038800005AA0B681468A34217D14B685468A34213D18B689468A3420FD1CB68D468A3427D
:2038A0000BD1001D103210311028EAD3403700260198401E019088D1CAE7FA208000049931
:2038C00081F31088C8E770B504000D00160000F0C1F8002E18D0B007800F06D029682160F4
:2038E000401E2D1D241D0028F8D1B0080CD0296821606A686260A968A160EA68E260401EB0
:20390000103410350028F2D1002070BD30B5C1B005000C0000F09EF8002C19D06846A1078E
:20392000890F06D02A680260491E2D1D001D0029F8D1A1080CD02A6802606B684360AA6864
:203940008260EB68C360491E103010350029F2D10020694601E0401C1031A04216D20A68AE
:20396000002A11D1401CA04210D24A68002A0BD1401CA0420AD28A68002A05D1401CA04219
:2039800004D2CA68002AE6D0002000E0012041B030BDFEE730B581B0FFF71EFB124C25684B
:2039A000FA229200002300F017FC28180F49884201D20F482060FFF70FFB2568FA229200EC
:2039C000002300F009FC2818206001B030BD10B5FFF702FB044A1468FA229200002300F02E
:2039E000FBFB201810BD0000FC030010008EA454704AE64F30B4434351435D18010C0C00BC
:203A0000130C5C432D1980B2434392B251430024C918644124040B04090C09195043C0188F
:203A2000694130BC704700000129016803D101220A430260704701229143016070470068D2
:203A4000C00701D40148704701487047B0710B0040420F0000B581B000F008F80149086085
:203A600001B000BDC40300104B48704700B500204C4903228B6C134013D0012B1DD18B6BEB
:203A80001A4007D0022A03D0032A04D1444802E0414800E041480A68D206D20E521C504369
:203AA0000BE08B6C1A4007D0022A03D0032A04D13B4802E0384800E03848096DC9B2FEF7C7
:203AC000DEF900BD00B581B000F002F801B000BD10B5010000220020334CA14212D0334C49
:203AE000A14212D0324CA14212D0324CA14203D0314CA14203D00DE030490B680AE02F491C
:203B00004B6807E02D494B6904E02C498B6901E02A494B6A5907490F06D002292DD005D3FD
:203B2000042937D02CD310BD1C4810BD1D480321836C0B4013D0012B1DD1836B194007D076
:203B4000022903D0032904D1454A02E0124A00E0124A0068C006C00E401C42430BE0806CA9
:203B6000014007D0022903D0032904D13C4A02E0094A00E0094A100010BD1048816C01E03D
:203B80000E48816D416C3748802252008918FEF776F910BD324810BD40420F00001BB70045
:203BA000808D5B0008800440000005400040054000800540004006400080064090800440A2
:203BC00070B515004AD00600022804D129480A008260FF22026000240320014028D0022901
:203BE00001D002D325E0204905E01F498A6C024013D0012A1DD18A6B104007D0022803D017
:203C0000032804D1164C02E0184C00E0184C0868C006C00E401C44430BE0896C084007D0D2
:203C2000022803D0032804D10D4C02E00F4C00E00F4C20002900FEF722F90100000600D185
:203C400001212000C9B2FEF71AF900022900FEF716F9022E02D1C0B20649486070BD0000D7
:203C6000808D5B0000001BB70880044040420F00001BB700D080044010B4C30078221A40CC
:203C800000090D4B800018180368FF249440A34391401943016010BC7047C200782111400E
:203CA0000009054A800010180268FF238B409A43134303607047000000C00040030000203D
:203CC000002A00DC704770B49407A40F08D09D686D0724D50D78DD61491C401C641EF6D19E
:203CE00094081CD00A0004219D680D4017D01578DD61401C9D680D4011D05678DE61401C11
:203D00009D680D400BD09578DD61401C9D68294005D0D178D961121D401C641EE3D170BC1C
:203D2000704730B581B004000D00FFF7CBFE2901FEF7A5F8401E206201B030BD0649884293
:203D400001D1074801E02820C04304490A681040086070470000000000400540808004401F
:203D6000F7FFDFFF10B401000122012003064C68E40705D44C681C40F9D0002057490A70D2
:203D800010BC7047090170230B405107490F19434162704700B581B00168C906C90E01223A
:203DA0000A430260FFF7DEFF01B000BD30B443681022134207D005230B734260087BFF2834
:203DC0004FD001204EE04022134201D00323F3E79204134205D006230B734260042202625A
:203DE000ECE7012213403AD043681B075B0F06D0022B16D006D3042B2ED02AD32FE000221C
:203E00000A73EBE74B89002B08D04B685C1C4C60846A1C704B895B1E4B81E0E700220A73AC
:203E2000DCE70B89002B07D00C68651C0D60247884625B1E0B81D2E74B89002B06D04B7BEC
:203E40005B001A43D2B282620222C8E700220A73C4E702220A73C1E704220A73BFE70A7316
:203E6000AFE7002030BC704700B581B0FF220A73426880231B0313434360194A42600A8969
:203E8000521E9241D20F497B49000A43D2B28262022101620021114A1170FFF763FF01B0B0
:203EA00000BDF0B581B006000C00FFF7DDFF01273D0621003000FFF779FF7168C90704D4E0
:203EC00071682940F9D005490F700028F1D0207B401E8041C00F01B0F0BD00000404001022
:203EE0005000000310B5874C00221821200000F0B1F9206E202101432166002088490860CF
:203F000089480168802212030A43026010BD10B500208349086083480168802212030A43E3
:203F20000260784C02221821200000F093F9206E20210143216610BD70B57C48016808227F
:203F400091437B4A0A43026077480168794A0A43026079480168794A0A4302600168784AB8
:203F60000A43026077480168774A0A430260654C00220021200000F06DF90022022120002B
:203F800000F068F900220421200000F063F900220721200000F05EF900220C21200000F00D
:203FA00059F900221021200000F054F900220B21200000F04FF900221721200000F04AF9AC
:203FC00000220F21200000F045F900221121200000F040F9200DA16E0143A166616E084303
:203FE000606600220821200000F034F900221D21200000F02FF900220A21200000F02AF95B
:2040000000220121200000F025F900221A21200000F020F900221921200000F01BF9022204
:204020001821200000F016F92020216A01432162616F01436167216E014321666168014353
:204040006160A16A0143A162E1680843E0603F490868FE2202400A600120486188603C4A7D
:204060000A231360486248623A4B04061C603A4C2568EDB20543256002250E68F6B22E430C
:204080000E608D60122656604D624D6246061E602668F6B2354325600D68F7262E400E600E
:2040A00008254D611325D5600D68FB262E400E6004258D604D610F2696604D624D62810672
:2040C00019602168C9B20D43256024494A6802434A6080224B6813434B600B6818430860F4
:2040E000086802430A6070BD02201D490860000618490860704708201949086000061549A8
:2041000008607047004004408020000515490860BFF34F8FBFF36F8F0820114908607047B0
:204120004C1000A0002400A0802300A080800440C0C62610935BF37F802200A00003951C26
:2041400093182260002200A000C44003004000A07881044000E100E004820440200002405F
:20416000244000A080E100E000B58BB0322200920190029105A96846154A90470598C0B25F
:204180000BB000BD00B58BB03323009301900291039210480068FA218900FDF770FE0490BB
:2041A00005A968460A4A90470598C0B20BB000BD00B58BB03B22009201900291002003903B
:2041C00005A96846024A90470598C0B20BB000BDF11F000FC403001012422DD0994231D9AD
:2041E00070B500251B4209D00C00002112E01100FDF745FE0A000021002370BD0942F6D04C
:204200000024012649186441944200D3A41A7641F8D33100012601E0764109D200186441DC
:204220006D41A41A9D41F7D2A4185D41B619F5D3300022002B0070BD1B42CFD108B5C04610
:20424000C04608BD01D19042CAD202000B0000210020704789004018016818239943D2001B
:204260000A43026070470000F0B58BB0C348067B01F0A7FA00280DD001260120C04908700C
:20428000C0484268006813000022002180185941BD4A03C201F0D0FAB84F78680090FEF789
:2042A000C0FD0720C046C046012001F0A3F80400B6484169002906D0C06800283DD102E076
:2042C0006420FBF741FFB14840690028F8D0AF4DE868002813D1E00701D500F0E5FEA00707
:2042E00001D500F0E3FFC5498A20FDF719FF00F0D3FD01210020FDF713FF01201AE020000F
:2043000004210840A10710D0002812D0CE498B20FDF706FF6420FBF717FFE8680028F5D119
:2043200002210420FEF76CF901E0002801D000F0FFFF002001F05EF804000D22E1218902ED
:204340000120FDF762F9002E17D0C048FDF786F913E0BF498920FDF7E3FEFA20FBF7F4FEE6
:20436000874D2878002808D0381D01F01DFA0020287021000120FEF743F918252C4205D0C1
:20438000002001F037F804002842E2D1FBF7B8FF05003C46667B3000FCF71AF901F0BAFAD0
:2043A0000122AC4920001C30FFF78DFAE0690021C943884201D10020E061E069E073E07A93
:2043C000A17C6A469175216AE27CA37B6F467B75CBA30993637C06956D46A87708916846C1
:2043E0004277067503772FE0002513E02000303001F048F900280DD120003830FBF7F2FEC6
:20440000012807D1E17BBF48FDF728F9217C012001F05CF868460078694608776846457564
:20442000007D497D88420DD068460A46017DB648FDF714F96846407DFCF7CAF86846407D8C
:204440006946087500202081504FF868002806D1E07B0C21014002D0A069401C00E0002071
:20446000A061A069C92811D3FA2189000B20FDF757FEE17BF3200840E073E0610122754919
:2044800020001C30FFF780F90020A061FEF7A4FD9E4A0023994201D890420CD36846807F6D
:2044A000002808D1FEF706F9FEF706FDFEF73CF9012069468877069A210014316846007DE5
:2044C000FCF798FB6946C8756846C17D0698FBF733FF002862D10520FBF736FE6846C17D2A
:2044E0000698FBF729FF002858D10520FBF72CFE6846C17D0698FBF71FFF00284ED105206C
:20450000FBF722FE6846C17D0698FBF715FF002844D10520FBF718FE01256846007D022814
:2045200036D1BC48FDF79AF8002038610A20FBF70BFE3D610E20C046FBF706FECA4B1822F5
:2045400019210120FEF7F8FFC8490120FFF7AEF80520FBF7F9FDC6490120FDF75BF9684613
:20456000C17D0698FBF7E8FE002811D0C148FDF775F8E07BFE210140E1730FE050010010B5
:20458000C803001010000240D0030010281000A0E07B0543E573B848FDF760F8B748007875
:2045A00000280BD00020B5490870207A102101432172201D01F0F8F8002008903868401EEC
:2045C0008041C00F257A6946097DFBF78DFF002816D0F72028400421014321726846007D45
:2045E000022808D06846007DFF2804D0C44920003030FBF7D8FD0020089006E080969800F3
:20460000F32028400821014321729C4E3079002808D0207A02210143217200203071B9A0DE
:20462000FDF71CF8386A401E8041C043C00F257A69460A7D06994969FBF7A8FF00280BD01D
:20464000012028430AE000BF10270000C000000080EE3600947E0000FE2028402072207AC6
:204660004006400E2072F17800290BD00021F1702021014321720898401C08900146002012
:2046800001F0B4F8A07A002805D0607A0221014361720020A0727078012808D10020707036
:2046A000207A4021014321729748FCF7D7FF786A401E8041C043C00F69468D7D2DD1684648
:2046C000FDF79CFB684601889048FCF7C7FFFDF73BFB012809D10020FBF714FE207A40213B
:2046E000014321720520FBF72FFDFDF764F96846807DFA2868460BDA857D6D1C10E000BFB5
:20470000424F00000C01000018010000A086010006D1FEF7C9FBFB2502E00025FEF7C8FB4C
:20472000684685757079012811D16846007D02280DD07748FCF792FF002070716846007D3C
:20474000FF2804D06E4920003030FBF72CFDB07800281BD00020B0700698806904900698D8
:204760004069039006981C21405E02900698408901900698007C009006988389427C68463A
:20478000017D6448FCF76AFF01F0D1F8F07800280CD00020F070207A20210143217208989B
:2047A000401C08900146002001F020F8227C069881694089FCF788FC207406988089564955
:2047C000884229DBE07BC00726D4FEF77AFB002822D020004030C079C009002809D1C148CE
:2047E000FCF73CFFFA21C90020004030FBF7DBFC16E020004030FBF7F5FC002810D0E07B82
:2048000004210143E173B8A0FCF728FF0020FBF779FD05E0C800000020004030FBF704FDB1
:2048200006984089B14988423BDAE07BC00738D46846007D022834D06846007D032830D05B
:20484000FEF747FB00282CD020004830C079C009002815D1BA48FCF701FFFA21C90020005C
:204860004830FBF7A0FC20E0801A0600FF0F0000ACFC0000844E0000D0000000C80300105F
:2048800020004830FBF7AEFC00280ED0E07B08210143E173ABA0FCF7E1FE0020FBF732FD64
:2048A00003E020004830FBF7BFFC06981C21405E552833DBE07BC00730D4FEF70AFB002884
:2048C0002CD020005030C079C009002809D1BA48FCF7C4FEFA21C90020005030FBF763FCAC
:2048E00020E020005030FBF77DFC00281AD0E07B02210143E173B1A0FCF7B0FE12E000BFE2
:204900008813000044440000D8000000E0000000EC0000000C5E0000CC10000020005030EA
:20492000FBF782FC267AF00609D5207C0090069B2200210014316846007D00F0B8FE6846BF
:20494000007F694608706846457D0698FDF713FF230010332200143221006846007DFDF78F
:20496000C5FF21000698FCF7A1F92178FD220A404000104320706946097D00290CD001299E
:2049800020D0022932D003297BD0FE2900D120E1FF2900D136E127E56846407F012804D103
:2049A000002069464877FFF7A6FBE07B002801D0FF2504E0F00701D4012500E0FE25FDF78D
:2049C00089FB27E5E07B002800D005E1700700D506E1F00701D503251CE52000303000F075
:2049E00051FE002800D015E5217C11E5207D08270821084203D101432175012205E0684640
:204A00000078421E9241D243D20F21000F310698FBF70EFE0721227DF82313400840184320
:204A2000207500226B461A700140052914D12000303000F027FE002808D1217C022000F0EB
:204A400045FD00F07FFE002800D10125207DF8210140012008432075E07B002801D0FF2518
:204A600006E03E4201D0012502E0022D00D1D1E400206061FDF72EFB00210020FDF750FBC4
:204A8000C8E4C10702D401210143217070060BD520787921014004200843207086A0FCF7F4
:204AA000DDFD0520FBF750FB607AC00706D52078FD2101402170B1A0FCF7D0FDE07B002822
:204AC00001D0FF2508E0700712D5B3A0FCF7C6FD0225032D00D19DE420783E210140217020
:204AE00098E400BFF4000000454F5600E90300002078410628D5396A002915D1BF21014002
:204B0000217020002830FBF78FFBAAA0FCF7A6FD6420FDF725F9002805D0FF25E07B1021ED
:204B20000143E17300E0012520002830FBF75AFB0028CED0ABA0FCF791FDFE25C9E700BFF4
:204B4000FC00000045555600810708D5C10921D18021014321700120FBF7D4FB1AE00020D6
:204B6000FBF7D0FB20880190019900BF54A0FCF775FD2078402101432170A9492000283055
:204B8000FBF711FB20784006400E207000210020FDF7C6FAF0079CD4A2A0FCF75FFD00204E
:204BA000FBF7B0FBA94E386A002809D10120FBF7BBFA761EF7D10AE004010000454F5400C2
:204BC0000120FBF79FFB0998FCF748FD81E701257FE7E07B002801D0FF251BE4700701D597
:204BE000022517E4386A002809D02000303000F049FD002801D0FFF70DFCFFF707FC012523
:204C0000FFF708FCE07BE169CAB282420DD009020843E06101228E4920001C30FEF7B4FD35
:204C2000E16900BF29A0FCF719FDE07BC00712D588490120FCF7EEFD6846C17D0698FBF744
:204C40007BFB002807D000BF8EA0FCF707FDE07BFE210140E173E07BC0060ED5786A0028DE
:204C60000BD16420FDF77CF8002806D187A0FCF7F5FCE07BEF210140E173E07B810707D5A3
:204C800006991C22895E322902DAFD210140E173E07B002801D0FFF7A9FBE0690002E061EC
:204CA00001226B4920001C30FEF76EFD386A0028A5D0FE25FFF7AEFB41444F435F45000095
:204CC00057464C523A782558000000004632466C73683A782558000010B55F4C200008306E
:204CE00003C80022401C51412200083203C2FEF741FBFDF723FA2000083003C8C00401D1BD
:204D00000120A07010BD30B581B05448046801252C4207D0FDF753F9514801688907890FA2
:204D200029430160A00705D54D4801698907890F29430161600705D54948016A8907890FCB
:204D400029430162200705D54548016B8907890F0D43056301B030BD10B5FEF731F9012403
:204D600001213D4A51713F490968002900D00121FDF77DF93C48046010BD0000447453008A
:204D800002203949086039480068002802D0012031490871704700004344000034480068EE
:204DA000002802D101202C49087004202E490860704700004C52000030B581B00220FCF767
:204DC000CFFF002809D02B4C002525600A20FBF7ABF9E561012020494870082022490860A0
:204DE00001B030BD4C526C0010201F4908607047704700B581B0FCF760FC01B000BD00B545
:204E000081B001201449C87000F03EFB1A4801684907490F02220A43026001B000BD0000CE
:204E200060EA00004C4E440030B581B0114C002525600A20FBF778F9E561BFF34F8F0F4873
:204E40000F490860BFF34F8F00BFFDE7400D0300947E0000ACFC0000C8030010F840004002
:204E60000C400040281000A0244000A0481000A03C1000A0401000A0008000400400FA0533
:204E80000CED00E04146455263000000444F4352630000000000000010B5824C02E0642034
:204EA000FBF752F920680028F9D120680028FCD010BDF1B586B00F00160001A80021002205
:204EC00000230EC006C000246420FBF73DF9102569460120FCF796FD01986946098840188F
:204EE0000190694609888E4203D368460088B84200D2641C69460220FCF784FD029869462B
:204F0000098840180290694609888E4203D368460088B84200D2641C69460320FCF772FD7A
:204F200003986946098840180390694609888E4203D368460088B84200D2641C6946042070
:204F4000FCF760FD04986946098840180490694609888E4203D368460088B84200D2641CD1
:204F600069460520FCF74EFD059869460988401805908E4203D369460988B94200D2641C22
:204F80006D1EA5D10699019A12090192029A12090292039A12090392049A12090492000938
:204FA0000590002903D0052201A8FEF7EDFB032C05D3FA2189000220FDF7B2F8F9E707B0B1
:204FC000F0BDF3B583B016000024002710256846FCF7A2FD009800B224186D1EF7D10498FE
:204FE00000B2E110090F09190A11824201DB964200DA012703990192012201A8FEF7C4FB90
:20500000002F05D0FA2189000220FDF789F8F9E705B0F0BD10B582B0040000200090FCF771
:205020002AFC0090012221006846FEF7ADFB0122BB496846FEF7A8FB0098002805D1FA210D
:2050400089000220FDF76CF8F9E702B010BD10B582B00400002000900120FBF753F9C820FC
:20506000FBF772F8962292006421AE48FCF72AFC0090012221006846FEF786FB0122D449BE
:205080006846FEF781FB0020FBF73CF90098002805D1FA2189000220FDF742F8F9E702B08E
:2050A00010BD00003C1000A0F0B585B0002500950122C8496846FEF767FB9B4F3900062021
:2050C000FDF72EF8FFF7E8FE00210020FDF728F8FCF743FC954C0126A6633220FBF734F8D2
:2050E000BD4800680007000FBB4908600020FBF709F9FCF7EFFFA561FFF706F8FEF7F2FEED
:20510000A563B6480068FD210140B44801600121B348FCF7A3FA052102A8FBF744F8FCF7C7
:20512000BBFA002804D002A8FBF75CF80028F6D0FCF7BCFADC20FAF7F7FFFCF785FAFDF7EE
:20514000F3FAA84800680490A7480068019000F0EEFB0A20FDF748FFA06A002809D00D2216
:20516000E12189020120FCF750FAA0A0FCF776FA0EE00199049800F0EBFB0D22E1218902EB
:205180000120FCF742FA9A480178002900D00570FDF735FFFEF7BBFEA663FEF7A5FF8F48A7
:2051A0000168C9B202220A4302600168C9B231430160A6610E20C046FAF7C6FFB449012070
:2051C000FCF728FBFEF797FF83480168C906C90E10220A4302600121AE48FCF73FFA3900F6
:2051E0000620FCF79DFFFFF757FE3220FAF7ACFFA06A00284ED039000520FCF791FFFFF79A
:205200004BFE0220FAF7A0FFA068002848D1A6630120FBF777F86660266039000420FCF723
:205220007FFFFFF739FEA5630020FBF76BF86560256039000320FCF773FFFFF72DFE0021F9
:205240000020FCF76DFF944A94499548FFF731FE39000620FCF764FFFFF71EFE002100200A
:20526000FCF75EFF3C220921C9438E48FFF7A9FE0195584C0122210001A8FEF724FB019803
:20528000B107014301910122210001A8FEF77CFA05B0F0BDFA2189000220FCF741FFF9E7ED
:2052A000FA2189000220FCF73BFFF9E730B581B01D4C21000320FCF733FFFFF7EDFD7A4891
:2052C000FFF7A8FE21000620FCF72AFFFFF7E4FD7648FFF7BCFE002400943E4D01222900FB
:2052E0006846FEF7F0FA00988021090601430091012229006846FEF747FA009401222900F4
:205300006846FEF7E0FA00988021890501430091012229006846FEF737FA01B030BD0000B6
:20532000E87E0000204E000080EE3600201000A010B582B05E4C21000720FCF7F1FEFFF764
:20534000ABFD5C4A5C490020FFF7B3FD21000A20FCF7E6FEFFF7A0FD3C220921C9435748AC
:20536000FFF72FFE21000C20FCF7DAFEFFF794FD5348FFF74FFE21000A20FCF7D1FEFFF78A
:205380008BFD1348FFF763FE21000C20FCF7C8FE4C4C012020616420FAF7D6FE206800289A
:2053A000F9D10021FCF7BCFE00200090B44C012221006846FEF787FA009880218905014332
:2053C0000091012221006846FEF7DEF902B010BDEC7E0000C07E0000508104400482044078
:2053E00025580000002000A0002100A04444310005040010F0B583B005000027002402971C
:2054000001229F4902A8FEF75EFA0298400000D401240298002802D42000022404430298F8
:20542000800002D420000424044301970126012D02D11E4D1C4901E0234D2149012201A870
:20544000FEF741FA411E8941C90F00910198FCF770FA0099014203D100262000082404432B
:205460000122290001A8FEF72EFA451EAD41ED0F35400198FCF767FA054202D120001024FD
:205480000443200003B0F0BD0120C24908707047ACFC0000245800008B10000045100000D6
:2054A000C47E0000D87E0000DC7E0000E07E000080EE360068100000B80B0000E47E00005B
:2054C000E87E0000481000A0EC7E0000F0B585B007000E00B04800680007000FAE49086040
:2054E0000020FAF70FFFFCF7F5FD0020AB498861FEF70AFEFEF7F6FC0A25380003D0022F5C
:205500000DD003D31AE096256D0017E00020A3498863A3480168FD220A4002600EE000209B
:205520009E498863086048609D480168FE220A4002600168FD220A400260052539009948F7
:20554000FCF78CF8052102A8FAF72DFEFCF7A4F8002804D002A8FAF745FE0028F6D0FCF79E
:20556000A5F8DC20FAF7E0FDFCF76EF8FDF7DCF89B4801689B4800689B4C32003E0017009E
:2055800001950091050000F0D2F9022E0AD0032F08D199A0FCF762F86420FAF7C5FDFDF75E
:2055A0002EFD02E00198FDF71FFD7C48806A00282ED1022E12D0032F10D13000A0600320E8
:2055C000E0608E4803C820618C4803C8616120680321014321602000FAF745FE2900009882
:2055E00000F0B6F90D22E12189020120FCF70DF868480078002814D0002066490870022E8C
:205600000FD100F094F900F09DF80028BBD108E00D22E12189020120FBF7F7FF78A0FCF73C
:205620001DF868460670FDF7EAFCFEF770FC01245A4DAC63FEF758FD59480168C9B2022228
:205640000A4302600168C9B221430160AC610E20C046FAF779FD6B490120FCF7DBF8FEF7BA
:205660004AFD4D480168C906C90E10220A430260684601786BA0FBF7F1FF05B0F0BD0000E8
:20568000C07E000030B581B004000025FCF7F0FF002808D12000FAF7A5FD002803D0FBF70A
:2056A000F7FA002800D00125280001B030BDF2B5040017001D000826087830420FD0FBF745
:2056C000E7FA002803D0FA21C900872036E000980078304203D0FCF7D8FF002830D12000E5
:2056E00003280AD1397849062AD40699FA24E400032908D121008C2020E0FF28F5D1FA212B
:20570000C90002201AE0FE2816D06889FAF7D6FE042802D12100012010E0032802D1210092
:2057200083200BE0022802D12100822006E0012802D12100812001E021008020FCF7F0FCF6
:2057400001B0F0BDF0B583B02FA0FBF787FF2F4C206B471EBF41FF43FF0F002634A003C84C
:205760006A4603C2012525630F216846FAF71BFD03E02068002800D101266846FAF732FDC6
:205780003043F6D027630220FAF7DEFC300003B0F0BD00000504001050810440201000A0CB
:2057A000048204402558000000B581B0C178009183784278017800BF16A0FBF74FFF01B05E
:2057C00000BD09480168C20C114202D00368134303600A40501E8041C043C00F7047000039
:2057E000002000A0002100A000000240052802D2074A80001150704756000000D0030010C3
:2058000044443100ACFC000053436300281000A0040002407625642E25642E25642D2563EE
:205820000000000021536C702025750000000000000000000000000010B5FEF77DFB00200C
:20584000FAF7C6FEC820FAF775FCFDF751FB1B4B182219210120FDF76FFE19490120FDF736
:2058600025FF1F241749086820400860FDF7F8FA0120154908600E20C046FAF75BFC134984
:205880000120FBF7C7FF002804D111490220FCF747FCFEE7FDF7DAFB00F01EF8FBF748FC96
:2058A000FEF778F8FCF7FCFE0A480521016001680C4010212143016010BD00BF801A0600E6
:2058C000FF0F000038800440381000A0ACFC000080EE36005081044010B5402000F0E5F883
:2058E0008024E405200000F0F3F8202016490860FEF7BAF880080101081A4000606020683E
:205900008006800E0221014321600C21200000F0F5F810BD8020C00501688906890E01227D
:205920000A430260AA218160552181607047EFF3108072B60549AA220A6055220A6080F38C
:2059400010887047000000002480044008000040F0B59FB007000D003C4C20680C2101433F
:2059600021603B4E30680421014331603948006808210143374801600120FDF7F7FDC0206C
:2059800080042168014321603168084330608021314C206800902160231D6846001D0A22D3
:2059A0001E68066019605E68466059609E68866099600C300C33521EF2D128003900274AF8
:2059C0001768116026490D680860082000F056F84F20C04300F059F8082000F05DF8214E96
:2059E00030680121884330601F48FAF731FC30680121014331606846082102682260426811
:205A000062608268A260C268E26010341030491EF3D1134805601148076014480C2102684A
:205A20000A4302600B48026811430160104B182219210120FDF780FD0E490120FDF736FE44
:205A400001200D4908701FB0F0BD00BF802300A0002200A0802200A000400440002000A091
:205A6000002100A07C80044000000240002400A0801A0600FF0F00005A010010482101405C
:205A80000E4808430E49086070470E490140202008430D49086070470C490A681043094AEA
:205AA0000240202010430860704708490A68824304481040202202430A607047B7FF000070
:205AC000308204405FA00000348204403882044007490A6808239A439B0313430B6000218F
:205AE0000160FF2141600349416103498161704780800440FFFF0000FFFFFF004A0703D549
:205B000002681B23134003600822114004D001688906890E0A4302607047000055566D408B
:205B2000256400005556314025640000555632402564000055563340256400005556726568
:205B40006C402564000000005556636C0000000043566D402564000043555672656C402531
:205B6000640000004356636C000000004F5450636C0000004555422054696D652053740025
:205B800045554220466C6167000000004555562054696D652053740045555620466C61677F
:205BA00000000000436854202564202564000000424348525F46563A25640000636C6C5626
:205BC0003E43465600000000496465633A256400563E434D5600000049696E633A256400B0
:205BE000436846756C0000004368527300000000F0B585B001000831009101684908C9003B
:205C0000009A521804920200083254184068C507ED0F4008C00026180020002108E0019AC8
:205C2000039B9A4204D017787FB2521C019211E0009A049B9A420AD01368D2180192009BE2
:205C40005B68D2180392009A08320092E7E7300005B0F0BD019A039B9A420AD1009A136837
:205C6000D2180192009B5B68D2180392009A08320092019A12786B461A72019A521C019266
:205C800088420DD1B44201D100F016F82068290001D0494640186168411808348842F1D044
:205CA0006A46127A0270401C002F02D57F1CE7D1B5E77F1ECED5B2E780B50120FAF7E0FAEB
:205CC00001BD0000650D510D3C0D270D110DFB0CE40CCD0CB50C9D0C850C6C0C530C390CB4
:205CE0001F0C040CEA0BCF0BB30B980B7B0B5F0B420B250B070BE90ACB0AAD0A8E0A6F0A2A
:205D0000500A310A110AF209D209B20992097209520932091209F108D108B10891087108DE
:205D2000510831081208F307D307B40795077607580739071B07FE06E006C306A606890660
:205D40006C06500635061906FE05E305C805AE0594057B0561054805300518050005E904A6
:205D6000D104BB04A40400003E0B100BE20AB30A840A540A240AF409C309920960092F09BB
:205D8000FD08CC089A08690838080708D607A507750746071707E806BA068C065F0633067A
:205DA0000706DD05B2058905610539051205EC04C604A2047E045C043A041904F803D90380
:205DC000BB039D038003640349032E031503000070B40123002413E00168001D194202D0D4
:205DE0004D466918491E0C60091D121F042AFAD20D00960701D50C80AD1C1A4000D02C70D0
:205E00000268001D002AE7D170BC70474842202575206D782025752D2534646D56206D6E8B
:205E20002025752D2534646D5620256443202537646D41202537646D41000000313330352A
:205E400039373030347C30303030303030303030303030307C5042503030357C00000000B3
:205E60000000000010B5074979441831064C7C44163404E0081D0A68891888470100A142DC
:205E8000F8D110BD080000003000000045FFFFFFB8010000500200100000000055FDFFFF87
:205EA0000200000002000000ECA3FFFF4E00000000000010500200000120C046002801D081
:205EC000FFF7D0FF00BF00BF002000BF00BFFEF7CBF900F000F880B500F002F801BD000063
:205EE00007463846FAF7CCF9FBE700000548014603B4684680F3098800BF00BF00BF00BF46
:205F0000FFF7DAFFA5EDF5FE00480047ED5E0000FEE7FEE7704700000000000000000000D2
:205F2000000000000000000000000000000000000000000000000000000000000000000061
:205F4000000000000000000000000000000000000000000000000000000000000000000041
:205F6000000000000000000000000000000000000000000000000000000000000000000021
:205F8000000000000000000000000000000000000000000000000000000000000000000001
:207E00000100834B5A5A0000317F6B0000000000934C48F410000000D79C1500D0DB060060
:207E20002051E64F2EB7FC4F3133303539373030347C303030303030303030303030303083
:207E40007C5042503030357C000000000000000000006400FFFFFFFFFFFFFFFFFFFF000059
:207E6000000000000000000000000000000000000C000900000008001E00010100000000C5
:207E80000000000000000000000000000000000000000000400000000000000000000000A2
:207EA0000000000000000000000000000000000000000000000000000000000000000000C2
:207EC000000000E0681000006C100000641000006510000060100000210000003C06000012
:207EE000E3000000000000003C060000E3000000000000000000000000000000000000007A
:207F0000000000000000000000000000000000000000000000000000000000000000000061
:207F2000000000000000000000000000000000000000000000000000000000000000000041
:207F4000000000000000000000000000000000000000000000000000000000000000000021
:207F6000000000000000000000000000000000000000000000000000000000000000000001
:00000001FF
