:20000000400F0010D5020000FB1A00002D5F0000000000000000000000000000C373FFEFE5
:2000200000000000000000000000000065020000000000000000000033490000E95D000097
:20004000097400000974000009740000F95E0000015F000009740000000000000974000078
:2000600009740000097400001D5E000009740000097400000974000009740000095F0000AF
:2000800009740000097400000974000009740000097400000974000009740000B50200003E
:2000A000695E00008D5E0000A35E0000C15E0000E95E0000097400000974000009740000B0
:2000C000010005D40121C006C00E81404B4801607047012181404A4802684A4B0B439A4385
:2000E00002600268484B13400B4303607047474881680122114081600021C9430160C16862
:200100008907890F0A43C260704780B50A20FFF7E0FF0A20FFF7D4FF3D480168CA07D20FCA
:200120000260FFF7E4FF3B483B4941603B490A681202120AC0231B0613430B6000218160EF
:20014000072101600920FFF7C4FF0121344800F073F83448016802220A4302600F20FFF75E
:20016000AFFF31480168314A0A40802109021143016001BD264801684907490F01220A431C
:2001800002607047224841688907890F01220A434260016806220A40026070470C2148434D
:2001A00080210906884200D3C843014320480160704700B5154841680022D2430260500877
:2001C000401A0C2101F07EFC00BDEFF3108272B6184803C882F31088704738B50400104D97
:2001E000280000F034F84443EC6031BD0C4801684907490F04220A430260704700E100E048
:20020000888004400F000204F0FFFDFB104000400840004010E000E0DF2E000020ED00E0B4
:20022000008000407C80044014820440BBB960C000400040A80500100129016803D1012289
:200240000A430260704701229143016070470068C00701D40148704701487047B0710B00F9
:2002600040420F00FEE70000F3B500220020104DAB78002B11D1DCB20825260601D50726A7
:2002800000E00026670034007C40E4B26D1EF4D1074DEC545B1CFF2BEDDD01998A4205D2DF
:2002A0000099895C4140685C521CF6E7F6BD0000A8030010704780B5012000F001F801BD0E
:2002C00080B500BF00BF024A11001820ABBEFBE72600020000480047FB7300000000000066
:2002E000000000000000000000000000000000000000000000000000000000007073694E64
:20030000FEB505000C00FFF760FF6A4603C2A14803C82A00A04B9A4213DA9E4C00290AD1CF
:20032000002808D1684603C803C4083C110000BF4AA001F0DDF803CC083C00220A305141B7
:2003400053E02300954CA2420EDA954CA3420BDA002942D1002840D1684603C88D4B03C363
:20036000110000BF3FA036E0B4242401A2420DDA8C4CA3420ADA00292FD100282DD1684652
:2003800003C8844B03C3110038A024E0864CA2420EDA864CA3420BDA00291ED100281CD1A9
:2003A000684603C87B4B03C3110000BF31A012E000240025AF4EB2421BDAAF4EB34228DA82
:2003C00000290AD1002808D1684603C8714B03C3110000BF29A001F08BF86E4C0CCC083C3A
:2003E000962040000021801859412200083203C221E0C8231B019A420BDB002901D10028A6
:2004000005D011001FA001F073F8624830C00020FEBDAC4A0CCA6E46C0CEBB420BD301D8A4
:20042000B24208D3002901D10028F0D0594830C017A001F05DF8574C200008300CC86846FF
:2004400003C88B42E3D801D38242E0D203CC002901D10028DBD00120FEBD000055566D402E
:200460002564000055563140256400005556324025640000555633402564000055563440E2
:2004800025640000555672656C402564000000005556636C00000000F8B504000E001700CC
:2004A000894DA868A04212DA28003030C079C009002805D169692800303001F07CF814E04D
:2004C0002800303001F096F800285FD10DE028003030C079C009002803D000BF34A001F0C7
:2004E00007F82800303001F0A7F86868A04212DA28002830C079C009002805D1296928000D
:20050000283001F058F814E02800283001F072F800283BD10DE028002830C079C0090028A8
:2005200003D000BF24A000F0E3FF2800283001F083F82868A04212DA28002030C079C009CF
:20054000002805D1E9682800203001F034F818E02800203001F04EF8002817D111E0AA491C
:20056000401886420DDA28002030C079C009002803D000BF12A000F0BBFF2800203001F07B
:200580005BF8002F04D0C348844201DB0120F2BD0020F2BDB0050010DC050000080C0000FF
:2005A00089130000214E0000320A0000419C00004F4333636C0000004F4332636C000000F0
:2005C0004F4331636C000000F8B586B0070001A8142101F06FF8002669460E8001208870ED
:2005E000C14801A948818E810024651C6946E8B201F04EF96946098800292FD0002835D1B4
:20060000084601A96200885201A8C08969460988401801A9C88101A880896946098888426D
:2006200004D2084601A9888101A845746846008801A94989884205D26846008801A9488185
:2006400001A80574641C052CCFD33800122201A901F00AFA6846807807B0F0BD611C00BFD4
:2006600006A000F045FF68468670F3E705A000F03FFFF8E72409000061EA00005A56433ACB
:2006800025640000414645436F6D6D45727228562900000038B59B4C002809D00125E56168
:2006A0000A2000F069FF256097A000F021FF31BD96A000F01DFF002525600A2000F05CFF9D
:2006C000E56131BDB805001078010010F8B5040001258F4E002904D1FFF776FF0500012845
:2006E00047D12000143001F0E6F8002804D000BF35A000F0FDFE63E06069A1694A0051186B
:2007000009188910A1616E2101F0C8F901001C20225E1000236A9C46A36AC71AE0235B0153
:200720005F436346DB190F004F43D919794B994200D379492162CB0E192A03DD1927BA1A20
:2007400012119B1A14225343FA2292009F18676200900800714901F0B5F9010000984018E5
:20076000A0626F4847433800FA21890001F0AAF97060012D10D1684601F0AFF8009800B257
:200780008002B1690A01511A40180011B0614112890D08188012A083002D11D0A08961492E
:2007A00088420DDA608900280AD060695E4940185E49884204D21C20205E23307E2801D307
:2007C0000020F2BD0120F2BD414645436F6D6D45727228492900000081B001000020544A6F
:2007E000914201DB04200DE0C83A914201DB032008E0AA3A914201DB022003E0783A914260
:2008000000DB012001B0704748F4FFFF7CB504000025484E022913D10125002C34D13000B4
:20082000C079C00900281BD0300000F0E3FE00282DD0300000F000FF002500BF16A020E0C4
:2008400001F028FA002804D015A000F051FE01251DE0002C18D03000C079C009002805D12E
:20086000FA218900300000F0A6FE10E0300000F0C1FE00280BD0300000F0DEFE012500BF5D
:2008800009A000F035FE02E0300000F0D5FE280076BD00007117000054314C2B544F000035
:2008A00041746563680000005431482B544F0000B0B515000024002800D001241E4F1F4829
:2008C000814206DB01241E49380000F074FE2000B0BD2000F7D1380000F08CFE0028F2D13C
:2008E000032DF0D10124F2E7E8FD0000154900220A604A60032800D1704780B50020FFF792
:20090000C9FE01BD401000A0464F6E00464F66007801001001286BEE00286BEE002D310179
:20092000C0D4010011270000409C0000C1B606006F0F0000E0050010E8050010D107000049
:20094000983A0000201000A0F3B583B001260125002769460F70B54C002A0BD0A77020003B
:20096000383000F069FE2000403000F065FEB0A000F0BEFD0398408903998989091AFF2284
:200980009232914221DBAB4988421EDB20003830C079C009002808D1A74800F0A9FDA7490D
:2009A0002000383000F007FE13E02000383000F021FE00280DD0A24800F09AFD04980078A6
:2009C000202101430498017003E02000383000F033FE03984089FA21890088421FDA20000E
:2009E0004030C079C009002809D1964800F080FDFA2189002000403000F0DDFD13E0200027
:200A0000403000F0F7FD00280DD0BF4800F070FD04980078402101430498017003E0200050
:200A2000403000F009FE01F035F902902078032805D103991C22895E302916DD0BE00028E5
:200A4000039904D11C22895E022908DB09E01C22895E322901DD032108E0002901D500217F
:200A600004E00A2901DA012100E002216170617881420CD02000183000F0BCFD00280CD001
:200A800062782178A14800F033FD60782070FA2189002000183000F08EFDA078002807D0D4
:200AA000022800D1D0E051D3032800D1E7E024E16248206160612670E77127726772FA2138
:200AC00089002000183000F076FDFA212000203000F071FD8E492000283000F06CFD8C495C
:200AE0002000303000F067FD03988089FFF774FE607120003830C079C009002805D120009D
:200B00004030C079C009002801D0002002E001200521E170039989897E4A914202DB012188
:200B2000032000E00021A172FA21490161612161A070607920712000483000F082FD0398B9
:200B40004189FA39A18189B273486CE0039880897249884251DBA672714800F0C9FC0298BF
:200B6000012803D001F0D3FA012834D12000203000F040FD00280CD0FA212000203000F071
:200B80001AFD6169C82904DD32396161654800F0AFFC039880896449884212DB634800F08A
:200BA000A7FCE079401CE071C0B2042802DD0320A07007E060695E494018C82802DB60619F
:200BC00000E0E7716069C82850DD5A492000303000F0F1FC92E02000283000F00BFD0028ED
:200BE000F8D04B492000283000F0E5FCB3492000303000F0E0FC02203FE001F088FA01282B
:200C000005D1A07A002802D1FA204001206103988089AB49884271DA6169206981426DDA03
:200C200032316161A74800F063FC67E02801001043685300E50C0000BC720000C4090000E7
:200C4000C8720000D4720000039880899E4988420CDA2000283000F0CDFC002806D02C4935
:200C60002000283000F0A7FCA67047E02000303000F0C0FC002841D00320A0703EE06761AE
:200C8000207A002817D1914800F032FC267266728F49882001F09EFC8E492000303000F0F1
:200CA0008AFC03984089A5214900411AA18189B2194800F01DFC03988089AF49884215DAC4
:200CC0002000303000F096FC00280FD0B24800F00FFC0F492000283000F06DFC0C49200078
:200CE000203000F068FC2772A67002E0A078032804D0002000F04EFE00E0A77060692178F3
:200D0000012919D1A5491CE0E0720000EC720000E2040000F10F0000F87200005410000071
:200D200004730000107300006810000018730000D4FEFFFF50460000A17A012904D1FA211B
:200D40004901884200DD616103988089FFF744FD0190217988421CDB20004830C079C0097F
:200D6000002804D18E492000483000F024FC2000483000F03FFC00280BD02000483000F0A9
:200D80005BFC2079401C20710199C0B2814200DA21712079042801D1872008E0032801D118
:200DA000862004E0022801D1852000E08420A17904291EDCA178012901D0022904D1637A52
:200DC000012B01D1042514E0022901D102250AE0032901D103250CE0002909D02178022912
:200DE00001D0012904D1FA21890001F0F3FB00E000252B0001222178606900F07FFE050079
:200E0000616902F046FC0298012806D1280000F0A8FE00F0C3FE0028FBD1A548C663A178A8
:200E2000002906D0022904D0032902D0A179042901DD07600DE02178002901D0032905D1A8
:200E400007600299002905D1466003E06A4616700660476069460978016268460078E17AB1
:200E6000884205D068460078E072642000F01BFF2900207803F08AF8A078012811D10398D9
:200E80004189A08981420CD2A279521CA271D2B211A000F02DFBA079042803DD0520A0717A
:200EA0000AE0A771A178E078814204D00FA000F01FFBA078E070A07805B0F0BDC832000093
:200EC0004A10000020730000041000002873000060EA0000E0930400436867563A2025646A
:200EE0006D56202564206661696C0000436853743A256400F8B51700BA890025B14C012645
:200F0000B14B9A421FDB7B89D21A332A1BDB012806D0022817D108784007400F032812D187
:200F200026706078002816D02000083000F062FB002806D0002000F02DFD65700FA000F0E4
:200F4000D7FA6078F2BD2570002000F023FD657020780128F5D1787C00F01CFD6670FA212A
:200F600089002000083000F026FB7A89B98900BF04A000F0BDFAE4E7D20F000042616C2055
:200F8000446E000042616C25753E2575000000008C4800787047000030730000C4090000AB
:200FA00030750000F8B504000F0061696089FFF7A7F93978DF220A4040011043387069469C
:200FC000A28B0A80000701D5322000E044200026944D009909B2814238DA2800C079C0098D
:200FE000002802D033A000F083FA280000F024FB00203978F7220A40C000104338706846E3
:20100000A18B0180009800B22121C943884235DB2800083000F010FB3878EF210140300124
:20102000084338700006800EC207D20FA1696069FFF732FA3978FB220A40800010433870F7
:201040003C210140481E8041C00FF2BD2800C079C00900280BD1009909B200BF17A000F065
:2010600047FAFA21C900280000F0A5FAC0E7280000F0C0FA0028BCD00120BAE72800083045
:20108000C079C00900280BD1009909B20DA000F02FFAFA21C9002800083000F08CFABBE7D4
:2010A0002800083000F0A6FA0600B5D00126B3E7201000A04F5450636C0000004F5450402F
:2010C0002564000055545040256400001CB51400FF23F433C918544B994222D2AF2109016E
:2010E000884201DA03200BE0CD210901884201DA022005E0B431884201DA012000E00020EE
:2011000064214A4B90420BD01A78521E1A70120607D119700400210003A000F0E9F900E089
:201120001970200016BD00004C77566C743A25750000000080B53E4802A1182200F094FC4E
:2011400001BD000060EA0000C0D40100400D030086010000BE00000005000000344980005B
:2011600008587047324980000818C06880B2704781B080003EA212582D4B1B18914201DBD7
:201180001A6006E03EA21058884201DB186000E01960186801B0704781B0800036A2125855
:2011A000234B1B18914201D3DA6006E036A21058884201D3D86000E0D960D86880B201B075
:2011C00070470000D0050010D30F0000012807D00ED3032808D005D3052807D006D307E011
:2011E0001448704714487047144870471448704700207047012807D011D3032809D005D30C
:2012000005280AD007D30AE00E487047B420000170470D4870470D4870470D487047002026
:2012200070470000C0050010C3090000B70000107801001088130000204E0000409C000021
:2012400060EA0000080C0000320A000024090000DC050000401E032802D9001F03D004E0AC
:201260009620400070470A20704700207047000080380100C0D4010088130000BE00000062
:20128000102700008038010032000000BE000000FFB50024002501270190039102920093FD
:2012A00001E0084647430198390000F00BFC03998842F6D2002F25D00198390000F002FC9A
:2012C00006000198390000F0FDFB01913800039900F0F8FB0700002D03D1002E01DC002FC3
:2012E000E8D10098411C00910A2E01DA302105E00299002901D0372100E057217118017027
:201300006D1CD7E700980470FFBDF8B5002B01D0302600E02026069C150022000F0000E0D1
:201320006D1E11004A1C0978002901D0012DF7DA6D1E03DB3100B847FAE7B8472178641C9F
:201340000A00FAD1F2BDF3B585B016001D0002E02000069A904704003178761C080063D006
:201360002529F5D1002769460F713278761C302A03D13278761C01200871100030380A2819
:2013800054D20AE04139062950D237380A284DD80A214F433F183278761C100011000B0030
:2013A000303B0A2B01D23038F0E70B00613B062BE8D25738EAE702AB28682D1D002806D5FF
:2013C000414208002D216A46117202A94B1C00220A21FFF75DFF02A80090684603793A00B2
:2013E00006992000FFF791FFB5E7582A01D1012200E0002202AB10212868FFF749FF2D1D9D
:20140000E9E72868C1B22000069A904704002D1DA2E72868009000233A0006992000FFF759
:2014200074FFF3E7252193E707B0F0BD1000FBD0252AF7D0582AD8D0632AE2D0642ABAD0C9
:20144000732AE6D0752A02D0782ACED084E702AB00220A212868FFF71BFF2D1DBBE738B5AA
:201460000C0000280CD13D4D287802F079FF21003B4803F025F8287802F042FF002032BD31
:201480000470401C32BD0EB400B5020001AB354801684068FFF757FF009804B0004770B5D6
:2014A0000C0011002D4DAA78002A16D1060002F053FE2100300002F076FE2A4CFF222100AA
:2014C000083184204000201802F0C3FF26482060002060600120A8702E7070BD10B51F4C01
:2014E0000020A070207802F071FF207810BD00000EB418B519498978012910D1040003F069
:2015000030F801001AA0FFF7BEFF03AB1548220001684068FFF717FF14A0FFF7B4FF01B0DD
:20152000019810BC04B0004780B50D4802F0A0FF401E8041C00F02BD80B5094802F094FF78
:2015400001BD06488178012900D0704780B500220349007803F03EF801BD0000B40000100F
:2015600020090010180800105F1400000D0A00002539757C2000000000BF00BF00BF401E6E
:20158000FAD1704738B50400FA25AD002800FFF7F3FF641EFAD131BDE0B501002EA00CC889
:2015A00068460CC0684600F006F8684600F022F80028FAD007BDB0B504000D00FEF705FE39
:2015C00002000B0003CC083CC0273F060F400021A818594102000B0015A003C810401940BF
:2015E000394303C4083CE079BF21014080200843E071B0BDD0B50400E0798109C90712D41F
:20160000C00913D0FEF7E1FD0CCC083C08A6C0CE16401F40B94208D301D8B04205D3E0796C
:2016200040210143E1710120D0BD0020D0BD0000FFFFFFFFFFFFFF3FC1794906490EC1710E
:201640007047C1798906890EC171704700000000000000000000000000000000000000008A
:20166000094205D083070BD00270401C491EF9D1704700001206130A1A43130C1A4300BF62
:20168000130030B414001500103902D310393CC0FCD2490700D30CC000D504C0890002D313
:2016A0000280801C002900D5027030BC704700000022D5E70022E3E778B585B004000D0AB2
:2016C0000E0004A80FA10A68026044708570C6700421FEF7C9FD03A90C704D708E70C870F2
:2016E00002A80021017001910090042303AA2921AF48007803F074F8002800D0012006B0D1
:2017000070BD0000520000007FB504000D006846047203A8002101600320019003A80090C5
:20172000012302AA2921A248007803F059F8002801D0012017E003A84178027812020A4399
:201740002A806A46BCA360CB60C26A4654700378D37011718078507106216846FEF784FDCB
:20176000002800D0022004B070BD10B5040021002720FFF7C9FF010003D121880905090DDD
:20178000218010BD80B501000220FFF7BDFF02BD10B5874A10700320FFF78EFF0400102121
:2017A0000520FFF789FF032002F003FF601E8041C00F10BD7CB5002569460D800024202698
:2017C0006846FFF7D2FF68460088241869460D80761EF5D18B48610901800021405E8A4A3B
:2017E0008118292901D3002076BD80B276BDF7B50400002769460F80002520266846FFF74E
:20180000B4FF684600882D1869460F80761EF5D16846868820007B4C00B2E9020914002283
:20182000A25E891A00F03AF90500656077487849694300F047F9B04205D3694609898142EE
:2018400001D32800FEBD0020FEBD6E4908800020085E6D49401829288041C00F70476949D9
:20186000486021388F21490088428041C00F704780B50020694608800320FFF745FF6846C6
:20188000008802BD80B563490220FFF715FF01BD1CB50C0069462030C0B2FFF735FF0100BD
:2018A00008D1694609880905090DA02252014A43110B218016BD1CB504000020694608808D
:2018C0006846FFF752FF4F496A4612880023CB5ED21A49684A43226016BDFEB50700002488
:2018E00069460C808C802020FFF70EFF69468870494D68460088284008800126684600889E
:201900004649884225DB01A90320FFF7FDFE684680884349014031430320FFF7CDFE694626
:201920002020FFF7F1FE6846008805406846058000213C4A0B04DB13D35A9D4202D32339F3
:20194000012400E0491C08B2322816DA200015D1F0E700210023344A684600884D00555B47
:20196000A84203D30B000A33012401E0491C09B250290ADA200009D1EEE70F213980684676
:2019800081880320FFF798FE01E05A233B8068468078FEBD80B52549020004D0062802D29A
:2019A00001228240114389B20E20FFF785FE02BDFC05001080B56846FFF7E4FE684640781B
:2019C000C106C80F02BDF8B500256C46617810220A4362700F4E07006078C0060DD53100E7
:2019E0000220FFF769FE6846FFF7CCFEA9B2B94205D2002803D16D1CEEE70020F2BD012083
:201A0000F2BD000018020010D4F9FFFF00809698C39C0000FFFF0000FF0F0000660D000096
:201A2000FCFF00000C71000068700000C0FF000080B5FFF7A7FE02BD520053000000000063
:201A4000124207D08B0706D00B78491C0370401C521EF7D87047830706D00B78491C03708B
:201A6000401C521EF9D1704770B4103A03D378C9103A78C0FBD2530701D318C918C001D588
:201A800008C908C0D20704D30B880380891C801C002A01D50B78037070BC7047CA0F00D024
:201AA000494203105A400DD004B500D3404200F009F8009AD20701D34942124200D5404295
:201AC00004BD0000094214D088420FD30122030C01D100041204002300185B418B4200D3D5
:201AE0005B1A5241F8D319001000704701000020704708B5C046C04608BDFEE710B55B07C1
:201B000014068022520414401C43002905D002290BD006D303290CD00FE021008A24240435
:201B20000AE021009024240306E02100C824640302E02100DC24A4030C436049884200D920
:201B400008003221FFF7BEFF0002FF21090201402143080E0A0C4240080A5040C0B2084398
:201B600010BD10B5040000F00CF800F011F85448046101214170FEF7FDFA5248FEF70EFB8A
:201B800010BD80B500204E494870FEF7FBFA01BD4B48002181704170017070474848407866
:201BA0007047F8B5464C6078002845D020000830C0C8FEF70AFB8F423ED801D386423BD2B0
:201BC0004148FA2149000225404A002301262778002F06D0022F0DD008D3042F28D017D37B
:201BE000F1BD1660FEF7DAFA2670F1BD1360FEF7D5FA1BE01660A278202A04D20800FEF7D5
:201C0000CDFA032002E0FEF7C9FA04202070F1BD13602069A278D040064001D02C4800E04D
:201C20000800FEF7BBFAA078401CA0702570F1BD13606370FFF7A5FFF1BDF8B5204C2279E9
:201C4000002A26D1234A80180023234D0126E778002F03D0022F0CD004D319E0012918D153
:201C6000E670F1BD002913D1A84211D20220E070F1BD01290CD1A8420AD2E3702671FEF7BA
:201C8000A4FA0022503051412200083203C2F1BDE370F1BD0A480079704700200849087136
:201CA000C8704870704738B50400FEF78EFA002524184D41094830C031BD0000E02E0000E3
:201CC000880500108813000094110000241000A0DC05000030F8FFFF89130000900500100B
:201CE00038B56C4C80256D002A0021001831200002F0AFFB2A008C204000211820000C3032
:201D000002F0A7FB002064498881C87088808882002100F00CF831BD401E032801D8012089
:201D200070475D48407B012800D000207047F3B583B00700584D02D0287C042807DB002091
:201D4000287407206874002F03D100209FE0022815DA504802F0A1FB062810D8032096E054
:201D60006946300002F0BFFB012807D168460078462803D10120287401F058FC6C74287CE9
:201D8000042800DB82E002E0A88A401CA882414E300002F082FB697C884277D30624287C4B
:201DA0000028DDD0022841D06ED2062201A9300002F0ADFB01AE3078B870307801F03DFCE6
:201DC00070780107090F39710109F97001F035FCB0787871B07801F030FCF0780102398042
:201DE00001F02BFC307939880143398001F025FC01F026FC7179C0B2884203D0002028748A
:201E0000052044E0080001F018FC224E6946300002F069FB641EF9D102202874B878801CF1
:201E2000687438880428AFD00020AFE76846008AB978884201D2072029E00024019611E0C3
:201E40006946019802F04FFB6846007801F0F5FBB978E0B2884204D268460078B968E2B2B9
:201E60008854641CB978891CE0B2C9B28842E7D301F0E6FB002805D0002028740120687417
:201E8000062004E0042000E008202874287C05B0F0BD00000006001000020010FEB504008B
:201EA0002088FFF739FF002801D10120FEBDA5780A35854802F0FCFAEDB2A84201D20220E7
:201EC000FEBD00252088042801D07E48858201F0ADFB9048009046210C3002F0F1FAA67811
:201EE00001274740310000980C3002F0E9FAC107C90F0120484038436946C871300001F08C
:201F00009CFB2079E1780E010643F1B200980C3002F0D6FA69468871F0B201F08EFB667904
:201F2000310000980C3002F0CBFA69464871300001F083FB2088060A310000980C3002F02F
:201F4000BFFA69460871300001F077FB2788F9B200980C3002F0B4FA0600F8B201F06DFB36
:201F600001F06EFB07006846C179827901205040084369464A790121514001436846007991
:201F8000012242400A430121714011430E00F9B200980C3002F094FAC107C90F01204840D2
:201FA00030430600F8B201F048FB11E0A068E9B2475C390000980C3002F082FAC107C90F78
:201FC0000120484030430600380001F036FB6D1CA178E8B28842E9D301F032FB4D4C010A01
:201FE00020000C3002F06CFAC107C90F01254D40354301F025FBC1B220000C3002F060FA36
:2020000001000120484028430500732120000C3002F056FAC107C90F01224A402A431206A2
:2020200001D00320FEBD01F00FFB0020FEBD80B501002448828A002A01D0042002BD042269
:2020400002806A468260012282706A4682E080B500210020FFF76BFE01BD7CB5194CE170CB
:20206000C37823718378032B01D2062005E00379994205D0052B03D00520FFF7D8FF76BD36
:202080001600816809782173002161738168487800028978084302F0DDFB02212180694603
:2020A000A1600521A1706D462E70010A6970A87001F0CFFA6082010AE970287102F0CAFB4B
:2020C000608286E0000200100C06001080B58178022901D2062013E08949CA7803799A42D3
:2020E00001D005200CE000224A7380680278120240780243488A824205D0FFF7A8FF042080
:20210000FFF795FF02BD01204873002002BD7C48407B7047000600107A4870477A4870477D
:2021200080B502009348052303808170826012E080B596218901FFF7C5FCC0B200F001F895
:2021400002BD80B501006E4806220280012282706A4682601170FFF7A1FE02BD817801298B
:2021600005D18068007896218901484370470020704780B501007F4807220280816000291D
:2021800000D028218170E6E78278282A08D1002283689B5C8B54521C282AF9DB01207047F4
:2021A000002070477CB5564C082525806D46A560FF2807D1FF2905D1FF2A03D1FF2B01D1F5
:2021C000002505E004256E4630707170B270F370A5702000FFF762FE76BD1CB57D4C03199E
:2021E000042B09D2634B1880200C814206D1824204D1002098700BE0032016BD04209870FB
:20220000684698600C0A04704170110A8170C2701800DCE010B58378042B0CD1806803789C
:202220001B02447823430B8081780902C07801431180012010BD002010BD3EB57C4D4419CF
:20224000052C0CD20C004B490880280C844208D1824206D1834204D1002088700EE0032016
:202260003EBD0620887068468860250A05704470140A8470C2701A0A027143710800FFF7CA
:202280000DFE3EBDF8B501003A488522520002806A468260002901D181702EE010228270DD
:2022A0006A460B7813704B7853704B881B0A93704B88D3708B881B0A13718B885371062315
:2022C000CB5E1B129371CB88D3710823CB5E1B1213720B8953720A23CB5E1B1293724B8952
:2022E000D3720C23CB5E1B1213738B8953730E23CB5E1B129373C989D173F5E000000000BC
:2023000000020010000600100C0600101FB501001848FF220C3202806A4682600022002980
:2023200001D1827021E00B2383706B460C88240A1C700C885C704C88240A9C704C88DC702A
:2023400004240C5F24121C718C885C7106240C5F24129C71CC88DC710C7A1C724C7A012CC6
:2023600000D101225A72897A9972FFF797FD04B010BD0000000200108378032B00D107E091
:20238000002070478378032B00D101E000207047806803780B704178090280780143118045
:2023A000012070471CB50A006849FF230E330B806B468B60002801D1002306E003236C4654
:2023C00000782070100A6070A2708B700800FFF765FD16BDFFFEFFFFF8B586B00A005B4B3D
:2023E00087214900198001A99960002801D1002417E054000026010000206D462A700CE0C7
:2024000001AA921945000F687F5B3F0A17700F687D5B5570401CB61CF6B26A46127890420A
:20242000EEDB9C701800FFF739FD07B0F0BD0000FBFEFFFFE0B501004448FF221032028021
:2024400001AA8260002901D1817015E0062282700A68009201AA6B46DB7813706B469B78FA
:2024600053706B465B7893706B461B78D3708B881B0A137189885171FFF710FD0EBDF8B581
:202480000100324888225200028001AA8260002901D1817028E00C22827001AA0B881B0A3F
:2024A00013700B8853704B881B0A93704B88D3704B6800936B46DB7813716B469B785371DC
:2024C0006B465B7893716B461B78D371896800916946C97811726946897851726946497814
:2024E000917269460978D172FFF7D8FC05B000BDE0B501001548FF22123202806A468260BE
:20250000002901D181701DE00A2282706A460B881B0A13700B8853704B881B0A93704B88A5
:20252000D3708B881B0A13718B8853710623CB5E1B129371CB88D3710823CB5E1B121372A5
:2025400009895172FFF7AAFC0EBD000000020010F8B590B00A001E4B89214900198001A917
:202560009960002801D100242BE0062454430026010000206D462A701FE001AA9219062564
:2025800045430F687F5B3F0A17700F687F5B57700F687F197F883F0A97700F687F197F88FE
:2025A000D7700F687F19BF883F0A17710F687D19AD885571401CB61DF6B26A4612789042C2
:2025C000DBDB9C701800FFF769FC11B0F0BD00000002001038B50400034D28000830FEF7B0
:2025E000EAFF2C7031BD0000E8010010F8B50027AA4C20000830FEF7FDFF002800D02770CD
:2026000060782178884207D0002120001030FEF7D2FF2078607067802078C11E0F2902D28F
:202620009F49A04A116061889F4E0125012843D0022843D0032853D0042853D0052853D0F5
:20264000062853D0072853D0082854D0092855D00A2855D00B2856D00C2857D00D2858D0C5
:202660000E2859D00F2859D0102859D0112823D0802858D0812867D0822871D0832800D1F7
:202680007DE0842800D18CE0852800D19AE0862800D1A9E0872800D1B8E088280CD089289F
:2026A00000D1C5E08A2800D1DBE08B2800D108E18C2800D133E150E1658038E120001030D1
:2026C000FEF798FF00280CD075486188002903D0B9490860002501E072490860658031E03F
:2026E0003562F1BDF561F1BDB561F1BD3560F1BDC02040051CE1A020400519E1B74817E172
:20270000C020000514E18120000511E18220C0040EE1E02040050BE1B14809E1B14807E1FD
:20272000C120000504E100292BD020001030FEF761FF0028DBD0C12000055A490860280702
:20274000A9490860FA2103E100291AD020001030FEF750FF002823D03562C1200005FDE0F4
:2027600000290ED020001030FEF744FF002817D0C0204005904908608220C004EEE00029E8
:2027800003D1491C61801421CDE020001030FEF731FF002804D0E0204005874908603760A8
:2027A000F1BDC12000053F49086020001030FEF721FF0028F4D0FA2120001030FEF7FBFECB
:2027C000280733E035628220C0043649086020001030FEF70FFF0028E2D0FA21200010301B
:2027E000FEF7E9FEE80621E0C020400572490860376020001030FEF7FDFE0028D0D0FA21FC
:2028000020001030FEF7D7FEA8060FE0E02040056949086020001030FEF7ECFE00281FD03C
:20282000FA2120001030FEF7C6FE28056E4996E020001030FEF7DEFE002811D0C8212000C7
:202840001030FEF7B8FE6088052809D801A1095C49008F441D2B2E315402F561B761678022
:20286000F1BD20001030FEF7C5FE0028F8D0642120001030FEF79FFE6088010006296FD8CC
:2028800001A2525652009744031114171A1AEA003562C12000050349086032E0E801001027
:2028A0000000101C802200A0501000A0F561376227E0B561F76124E03560B76121E03760FD
:2028C0002AE020001030FEF795FE002848D0642120001030FEF76FFE6088010006293FD850
:2028E00001A2525652009744030A0E121616BA00E02040053D49086035606580F1BDB561DC
:202900003760608808E0F561B761032005E03562F761042001E03762401C6080F1BD00293A
:2029200008D165800A2120001030FEF744FE3048214914E020001030FEF75CFE00280FD08B
:20294000C1200005294908602807274908607D2120001030FEF72FFEF1BD254823490860A1
:20296000F1BDF8B504000E0022490020FFF732FEFA208000FEF710FE00256846A41C047095
:2029800096277F00FA2464000FE0210068460078FFF720FEC820FEF7FFFD21000020FFF71F
:2029A00019FE3800FEF7F8FD6D1CE8B2B042ECD36000FEF7F1FDF1BD002200A010B50E4C38
:2029C00020000830FEF716FE002802D02078002800D0012010BD084800787047000010107F
:2029E0000000101800001014002300A0802200A00000101CDC050000E801001080B501F05A
:202A000031FFFFF76DF99620800100F001F801BD10B504000421002001F09EFB0021002073
:202A200001F0ACFB2100002001F0BDFB002001F08FFC10BD80B5002001F0C8FC002001F090
:202A4000AFFC01BD38B50025144C2573282120001030FEF72FFE6573A5734020255231BD83
:202A600080B5FEF767FB01F0FDFEFFF739F996208001FFF7CDFFFFF74AFB012803D100BFC6
:202A800007A0FEF735FD0548007B012803D100BF0FA0FEF72DFDFFF7D5FF01BD200200105C
:202AA000442D746563682044652D617574686F72697A656420616E64205061636B20526503
:202AC00073657420746F2064656661756C747300442D746563682046697874757265204DA6
:202AE0006F64652044652D617574686F72697A65642E0000F0B58DB0002669460E81B64CF3
:202B000020006030A060B420400020180690FEF771FD00280DD00698FEF793FD9621890157
:202B2000002001F083FB0720FFF781FAAB48FEF7DFFCC020400020180490BC20400020186B
:202B4000039096277F00FFF7E2FA002840D0607B002810D10398C079C009002801D164219C
:202B60001BE00398FEF746FD012819D10020FFF700FB01200FE0042812DC0398FEF73AFD72
:202B800001280DD1617BC048FEF7B2FC0020FFF7F0FA607B401C607339000398FEF70BFDCC
:202BA000E06D00780228049810D1C079C009002804D1FA21C9000498FEF7FDFC0498FEF7AB
:202BC00019FD012804D1FFF74BFF0498FEF734FDB820400020180590E07B012808D1B7489E
:202BE0000068002804D14020215A0598FEF7E3FC0598FEF7FFFC00280BD00020FDF74AFD39
:202C00000598FEF71EFDBE48FEF772FCE6730320A8E0B02040002518802149002000FFF74D
:202C200086F8801E062800D9B1E302A14000095A8F4400BFE00660070E00280732075007EB
:202C400054072800FEF7F8FCAE48FEF751FC20880190607900902379E278A178AA48FEF738
:202C600047FCAA48FEF70FFC0025A94F06E0A068A9B2415C3800FEF706FC6D1CA178A8B2F1
:202C80008842F4D3BEA0FEF7FEFB2088FFF744F800280BD1BB48FEF72BFC0820FFF7C7F97C
:202CA000002801D1B84856E3B84854E320880100022505274A1E3ED0521E55D0521E54D00F
:202CC000521E6AD0521E00D18AE0521E00D18FE0521E00D1DAE0521E00D1F1E0521E00D1A1
:202CE000FBE0F83A012A00D816E1921E00D16DE1521E00D17FE1521E042A00D896E1521FFF
:202D000000D1C2E1521E00D1EAE1521E00D10AE2521E00D11BE2521E00D17AE2521E00D1EA
:202D20008AE2521E00D19AE2521E00D1B8E2521E00D1CBE2EAE2FFF785FEB648FEF7D8FB96
:202D4000012201212000FFF788F9010003D1B248FEF7CEFB02E0B148FEF7CAFB0398FEF7E5
:202D600070FC01206946087214E3AD48FEF7C0FB2000FFF7ABF9002803D1AA48FEF7B8FBB1
:202D800003E00100A848FEF7B3FBFFF7C0F9002801D0CA48DFE2CA48DDE2A0680178C948DE
:202DA000FEF7A6FBA0680078801E012809D9801E012808D9801E012803D9801E03D0F73869
:202DC00008D1C148C7E2C148FEF792FBFFF73FF9FFF746FEDEE200BF20020010CC6900008F
:202DE000A1782000603000F061FC02A94870D1E22000FFF7B3F9040001D1002014E0962540
:202E0000ED01AC4236D82100B148FEF771FB002001F01CFAA0420AD10698FEF712FC2100A7
:202E2000AC48FEF765FB2000FFF782F9B2E22000FFF77EF9002803D12100A748FEF758FB43
:202E40002100A648FEF754FBFFF768F901F010FB0028F9D0002001F029FA0028FAD00A208B
:202E6000FEF79AFB2100002001F0E0F9FA2149000698EFE12900D248FEF73AFB2800FFF760
:202E800057F9069884E200BFEC690000210010312000FFF779F9012807D1062060732000C6
:202EA000103001F095F8C74855E203A801F086F803A8FFF75EF9C4484DE200BF001000A052
:202EC000C248FEF715FBA06DC378413BDBB2827841780078FFF766F95CE2BD48FEF708FBD7
:202EE000E06D00780328304604D1FDF7D3FB684605724FE2FFF79BF800280BD1B5482AE2E9
:202F0000086A00001C6A0000386A0000806A00008C6A0000B0481EE26946401E087068460C
:202F200007787F1C01ADFA26B600AA1C01A92000FFF770F901282BD16B882A883900A74812
:202F4000FEF7D6FA6B882A883900A548FEF7D0FA2988714368460078FEF70AF93100FEF779
:202F6000B1FD2880698868460078FEF715F903006B802A8839009B48FEF7BAFA18E000BFC5
:202F80000A0D0000946A0000BC6A0000D86A00009548FEF7ADFA68460078FEF7DFF8310018
:202FA000FEF790FD288068460078FEF7DBF868806A8829882088FFF710F9002805D16B88D6
:202FC0002A8839008948FEF793FAE3E18848FEF78FFA0220FEF7C2F804000220FEF7C2F8FB
:202FE00005002000FA218900FEF76CFD2A0081B2FF20001D0BE07F48FEF77AFA4420C0468C
:203000000400FA20C0000200A1B282204000FFF7E4F8BFE1FC6A0000306B00005C6B000061
:20302000806B0000A46B0000CC6B000083204000091A0DD0491E04D0491E04D0491E04D0CB
:2030400005E0032504E0042502E0052500E001252900CB48FEF74CFA2800FEF7B7F80700FA
:203060002800FEF7C7F806002800FEF7F3F8350006003800FA218900FEF724FD33002A00DC
:2030800081B22088FFF7D9F884E1C448FEF730FA03A807704570FA21C9004180C049818078
:2030A0001D21C943C180442101814581302181810A21C181FFF7E6F86CE100BFE86B0000E5
:2030C0000C6C00002C6C00004C6C0000706C0000846C0000A06C0000DC6C0000146D000087
:2030E000B048FEF705FA276D03AD78892880B88968807869FA218900FEF7D0FCA880B88B1D
:20310000E8807889FDF768FB2872FDF741FF6872E06D0078FE2801D0A87200E0AE7203A8C6
:20312000FFF7F4F836E100AA921C69462000FFF723F90128F6D16846428801789FA0FEF748
:20314000D7F9684641880078FFF744FA22E12200403221000E312000FFF714F9012851D117
:203160004020225AA17B00BFA1A0FEF7C1F9A07B012820D002283FD10125E573002001F0AB
:2031800025F9002001F00CF9874F3D618748016810220A4302603E60854801680D430560E5
:2031A000844D00221121280001F066FB686C2021014369643E614020215A05984AE000BF4A
:2031C000306D0000646D0000846D0000A86D0000CC6D0000E86D0000086E00003C6E0000CD
:2031E000806E00009C6E0000B86E0000D86E0000146F0000346F00000598FEF722FAE6733E
:2032000086A0A8E04020215A20000E30FFF7CAF8C0E000BF8AA0FEF76BF903A80090206D65
:203220007100425A009B5A52761C052EF8D305216846FFF7D1F8ADE08CA0FEF759F9E06DCA
:203240000078022809D120003830FFF7F3F8FA21C9000498FEF7AFF99CE0002057E000BFDA
:203260008DA0FEF745F9646D03A87621615A01807821615A41802000083003C8FA229200B9
:20328000002301F021FB04902000103003C84A4A002301F0FAFA059003A8FFF7F0F879E02C
:2032A00089A0FEF725F9606D03A97222825A0A804E807422825A8A805022825ACA80522209
:2032C000805A088103A8FFF713F963E089A0FEF70FF903A80090606D71004018020054321C
:2032E00006217143938A009D6B525289009B9B1C5A525422805A009A51188880761C052E83
:20330000E9D305216846FFF723F943E00120FEF78EFE3FE080A0FEF7EBF82800C079C00905
:20332000002803D139002800FEF745F92800FEF761F901282ED10720FEF779FE002801D1D1
:2033400081A000E08AA0FEF7D3F8FEF780FE2800FEF772F993A0FEF7CBF81BE0CF48FEF795
:20336000C7F8022004E000BF9FA0FEF7C1F80320FEF75DFE002801D1C94806E0C94804E083
:20338000546F0000A0A000E0C748FEF7B1F82800FEF752F902980DB0F0BD000040340000BD
:2033A000080C0000746F0000001000A0802300A0002400A00040044040420F00442D746500
:2033C0006368204675656C20476175676520436F6E74726F6C2C2053746174653A2025643C
:2033E0002C2054696D656F75743A2025642E0000442D7465636820486561727462656174C4
:2034000020536368656D613A2025642C2054696D656F75743A2025642E000000442D7465CA
:2034200063682048656172746265617420536368656D612063616E63656C6C65642E0000B7
:20344000442D746563682043656C6C20506172616D65746572732052657175657374205208
:20346000656365697665642E00000000442D746563682043686172676520526571205061B1
:20348000636B657420526571756573742052656365697665642E0000442D7465636820448E
:2034A0006973636861726765205374617469737469637320526571756573742052656365D3
:2034C000697665642E000000442D74656368204C696D697473205374617469737469637324
:2034E00020526571756573742052656365697665642E0000442D746563682043656C6C2079
:20350000555650277320526571756573742052656365697665642E00442D746563682068FB
:2035200065616465722072656365697665642C2077616974696E6720666F72207061796CA7
:203540006F61642E2E2E0A00442D7465636820436F6D6D732054696D656F7574204572721F
:203560006F72206D6573736167652073656E74004572726F722073656E64696E6720442DE8
:203580007465636820436F6D6D732054696D656F7574204572726F72206D65737361676532
:2035A00000000000442D74656368205061796C6F61642054696D656F75742E202048656189
:2035C000646572207468726F776E206F757420616E6420616E206572726F7220776173205F
:2035E00073656E742E000000442D7465636820426164205061796C6F616420435243205253
:203600006563656976656400442D7465636820496E73756666696369656E74205061796C03
:203620006F6164205370616365000000A020C005002101607B49416070477B490870704734
:203640007948006880B2704780B5002000F058FE01BD764803C802007548504080B270473E
:2036600010B5FEF759FD0400FEF758FD22000100002000F0AFFF10BD6E4A106551657047A4
:2036800030B5039C6B4DA865E9656A64AB64EC6430BD684A90639187704700009C6F0000FA
:2036A000BC6A0000D86A0000BC6F0000F3B581B007003E7831006048FDF71AFF0025012EA7
:2036C00022D101205B4908730A215C487A5C43185B1E1B789A4241D1491EC9B20029F5D1EC
:2036E0005748FDF705FF534C207B01280CD101213800FEF715FD0120FCF7CCFF05206073BB
:2037000050490120FEF766FF4A48007B01287DD16846047A4C48FDF7EBFEF01E0BD0401E2D
:2037200028D0401E032836D9001F38D0401E44D0401E56D073E0052C71D1791C495D0322B6
:20374000521BD2009140014308006D1C032DF4DD3E49884263D301F0FAF81AE03C48FDF7A7
:20376000C7FE34490D7300263D7001213800FEF7D7FCB5E7292C52D100F07EF85A206946EF
:203780000870009800F05CFC781C00F0EBFB00F0C3F8012121E00120FEF749FC3FE00121FD
:2037A0003800FEF7BDFCFA20C000FDF7F5FE402001F0F2F801F033F931E07D1C0024E0B2AA
:2037C00000F08FFC2A2201002800FEF739F92A35641CE0B20328F2DB7F213800FEF7A0FC00
:2037E0001DE001213800FEF79BFC1A4C21000420FEF7F0FE2000FDF7CFFE174C21000620CD
:20380000FEF7E8FE2000FDF7C7FEFEE70026962149000020FEF7DEFE1048FDF769FE300015
:20382000FEBD0000FFFF000008000050A805001055AA000020020010D06F00005C7000007E
:203840000070000040771B001C700000018EA454D86F0000A8610000409C00003470000043
:2038600080B500F009F800F041F800F063F87B497B48FFF701FF01BD10B58AB0684600BF07
:2038800010A12822FEF7F0F8744C0A2120005E30FDF70EFFFF220A2120005430FDF7EAFEEA
:2038A0002000503064214180002101802822694620002830FEF7D8F801206A4908720AB042
:2038C00010BD00003133303539373030337C30303030303030303030303030307C504250D5
:2038E0003030347C000000000000000018B5A5B0FC24E4010121200001F033F9002809D130
:2039000025222100684601F01CF9802269465348FEF7AAF826B010BD10B5524C207A002840
:2039200007D02522FC21C9014C4801F08DF80020207210BD7F224B480178114301704378CC
:203940001A43427082781F2313438370FF22C270037901221A430271FF2303700221114305
:2039600001717047F8B506003D4C200031002C22FEF77AF81C20205E384A11005031394C89
:203980005023D25E824204DA0880627801231343637002228A5E904204DA488060780221B4
:2039A0000143617000214A0020001C30801803881D01EB1AB55A5B191B090380274B9F1882
:2039C0003A005432038801258D405420385A83420BD213806778832038408446A800384387
:2039E0007C2707406046074367705089984208D25381A078E02202400543E806C00E104302
:203A0000A070491C0429CEDD042520003030FDF7F1FD002816D0144920003030FDF7CBFD27
:203A2000042041006218D289230010335A52401EC0B20028F5D10A48C08920822079802105
:203A4000014321717069C046C0460020C046012802D1207905432571F1BD00000000001054
:203A600058050010B0010010C0D40100FFB587B0B94803906846007F0290B84CB84E022811
:203A800000D082E0099800784007400F01284CD10027F079012806D0B24930002030FDF701
:203AA0008AFDB77141E030002030FDF7A3FD00283BD0B079002838D10120B071AA4D0399C0
:203AC000C988491C039AD180217901220A4322712072286A002809D100F03EFF68622862FE
:203AE00020786021014321700120207200F034FF696A401A009000F02FFF68622178402064
:203B000008432070E969009A914203D2EA61102101432170A8698018A8612078082101432E
:203B2000217001202072B76137720725099800780721014003290FD1F07903280CD000F066
:203B40000BFF894948622078402101432170012020720020B0613072099800780540F571C7
:203B6000C046C0466846007F70716846007F012802D0022800D0032800D1B2E0FE2800D184
:203B8000AAE0FF2800D1A9E0AAE00020F08002980328E5D101277079032810D0FCF715FB66
:203BA0003200103203C2B048C046C0460020C04601284FD120790421014321714AE0FCF7A8
:203BC00004FB04AD320010320CCA801A994103C5300010300CC804A803C880185941320090
:203BE000103203C2604D2800103003C8009001919E484069C11704AA0CCA00F0C9FF009A7F
:203C0000019B801859412A00103203C2280008300CC804A803C8801859412A00083203C29F
:203C20002078062101432170B26904A803C81018B061317A00290DD18D4988420AD303985B
:203C40008088401C03998880E07880210143E170277237720898007840063AD5C046C04613
:203C6000707A002834D177723F4808990978490708D57221415A491C039A1180E178202212
:203C80000A43E27008990978090708D503994988491C039A5180E17840220A43E27008993B
:203CA0000978890613D57149097C4A0080186622825A521C6623C252E278E0201040491E6B
:203CC00001238B401343D906C90E0143E170277248E70020707245E7052002E0072000E050
:203CE0000020A072A07A3179814204D0217920220A4322713071AD4D29780898007802071E
:203D000002D501220A4301E0FE220A402A706978420702D520220A4306E02279520604D436
:203D2000420602D4DF220A406A706978820602D502220A4301E0FD220A406A7029784B4F30
:203D4000029A032A12D1400610D41C20385E01280CDA082008430BE072000010B00100100B
:203D600028050010C027090000000010F720084028700A992A78802010430978022901D05A
:203D8000032904D1287068780121014307E0002901D15006400E28706878FE21014069700D
:203DA0006978029802282FD1099800784007400F032829D10420084368702878DB21014066
:203DC0002970FA20C000796981425EDAB96981425BDAB8897649884257DB6978090779898A
:203DE00032D4401A382850DB30002830C079C009002832D030002830FDF7FCFB012848D16F
:203E00006878082101433EE0FB200140697002990229D2D1099909784907490F012901D0D3
:203E20000229CAD1227B2978032A04D1DF20084004210143C4E7002A02D108402021F8E7BC
:203E4000DB2008402870BCE7401A2D281DDA30002830C079C00900280CD156493000283088
:203E6000FDF7A9FB15E000BF8000001058050010E193040030002830FDF7BCFB012808D14C
:203E80006878F7210140697003E030002830FDF7D3FB0298012801D0FE2825D11C20385E61
:203EA000F16927280BDB00290FD000F055FDF169401A414988421DD32878022112E0112249
:203EC000D243904210DA002903D100F045FDF06110E000F041FDF169401A3749884209D399
:203EE00028781021014304E00020F0612878ED2101402970A978FE200840A8706978490601
:203F0000490E6970F5210140607B40000843A87030682968884205D0207940210143217104
:203F20002868306009980078000715D5099800784007400F03280FD0FEF74DFD842801D1E1
:203F400001200CE0852801D1022008E0862801D1032004E0042002E07889FCF73DFCE072BF
:203F60000BB0F0BD80B5010028221748FDF768FD16A0FDF7BDFA1B4801210172017880222D
:203F80000A43027001BD27490860704781B0154A1073080A517AC3B2994204D050721079B6
:203FA00010210143117101B0704700009C050010850D000088130000312A000080B52822EA
:203FC0000149FDF73DFD01BD280000104243000080B518490A79082313430B71886200F0FE
:203FE00047F801BDB001001018B50E4B19007A310122104203D07A241B5D5B1C0B7083073F
:2040000002D54B785B1C4B70430702D58B785B1C8B70C00602D50879401C0871054802728A
:2040200011BD000000000010012002494873704700000000B001001000202D4948737047FB
:204040002A494860704729485A2101714171704726480079A52801D0012070470020704793
:2040600022484079A52801D00120704700207047F0B58BB0010028226846FDF7E1FC002600
:20408000694628228E5400251A4CE8B22A2148432118684600F09EFD002803D06D1CE8B2BA
:2040A0000228F2DD2800144D2F78C0B2032815D138002A2148432418282269462000FDF7FD
:2040C000BFFC6888010A2822A1542922A054401C68807F1CF8B2022800DD00272F700BB09B
:2040E000F0BD04492A2250430818704700000010B0010010A8040010F0050010010005D4A4
:204100000121C006C00E81409B4801607047010009D40121C006C00E814098480160BFF3E5
:204120004F8FBFF36F8F70470121814086480268864B0B439A4302600268974B13400B43D4
:204140000360704780B500F089FDE12292030021022000F026FE01BD80B5904A8300D1503A
:20416000002802D0012803D001BD1168C9B202E05168C9B2112000F053FE01BD10B5874ABB
:204180001300083384001951002802D0012804D010BD9168C9B2012002E0D168C9B21220C2
:2041A00000F03EFE10BD70B504000E0085480221002C03D0012C14D1834D17E0944D0161C4
:2041C000002D32D00821C943002C02D0012C0FD017E0026811408022D2010A4302600E206D
:2041E0000DE00025002CEAD0012CE9D14161E7E702681140802212020A4302600F20FFF72B
:2042000093FF31002868834A02402A60200000F00DF828688049014004200843286028687C
:204220007E49014001200843286070BD38B50C00002803D0012808D1634D00E0744D00F01E
:204240000DFD2100280000F01AFE31BD10B501000020002903D0012910D15B4C00E0704CE5
:20426000200000F04BFD216A9624A401491C0901FDF728FC2100FDF725FC604310BD38B5E2
:20428000002803D0012808D14F4C00E0644C04252561200000F0E4FDE56031BD002803D127
:2042A00060480068C0B2704700207047002802D0012802D006E05C4800E05C48006801077B
:2042C000C80F704700207047002802D0012802D006E0554800E0554800684107C80F704746
:2042E00000207047002802D0012802D006E04E4800E04E480168C807C00F7047002070476B
:2043000080B50421002802D0012804D001BD48480160032002E0474801600420FFF7EEFEA2
:2043200001BD80B50121002802D0012804D001BD3F480160032002E03E4801600420FFF7C5
:20434000DDFE01BD00000000888004400F00020410B50400FFF7D4FF2000FFF7E2FF10BD0D
:204360000421002802D0012802D07047324800E0324801607047000000E100E080E100E07E
:204380000121002802D0012802D070472A4800E02A48016070470000F0FFFDFB2C09001047
:2043A00010B50400FFF7DCFF2000FFF7E9FF002C02D0012C02D010BD032000E00420FFF77E
:2043C000A6FE10BD808004400080064010B50400FFF7E6FF0F48002C02D0012C0BD010BD94
:2043E0000B490A6810400860FF21002000F018FDFF21012009E012490A6810400860FF212B
:20440000112000F00DFDFF21122000F009FD10BD004006407CDA000001DA00007DDA00004E
:20442000004006401440064008400640088006400C4006400C800640104006401080064030
:2044400000800640401C82B28A4200D3002080B2704730B500230024002538C00C38016070
:2044600002818380C38030BD00218180C180704701000020CA8889888A4200D10120704773
:2044800038B5040000252189A088FFF7DBFFE188884200D10125280032BDC18882888A4204
:2044A00003D20089401A801800E0501A80B2704710B50400FFF7F1FF2189081A80B210BDFF
:2044C00070B504000E000025FFF7DAFF002808D101252068A18846542189A088FFF7B2FFC6
:2044E000A080280070BD70B504000E000025FFF7BFFF002809D101252068E188405C3070E2
:204500002189E088FFF79EFFE080280070BDF8B507000C0016000025FFF7AAFF002819D195
:2045200068460680F98841803800FFF7B6FF6A461288904200D206006846408807E0396830
:20454000095C21703989FFF77DFF641C6D1CA9B2B142F4DBA8B2F2BD1D480168491C01606E
:20456000704772B61A48006862B6704738B505000C00FFF7F6FF001968602878FD210140FA
:2045800001200843287031BD10B50400207881070BD4C0070BD5FFF7E4FF6168081A0128CD
:2045A00005DA2078022101432170012010BD002010BDE0B501006846002200230CC06846AE
:2045C000FFF7D4FF6846FFF7DFFF0028FAD007BDF80500107CB504000D001600FFF774FE0D
:2045E000012817D12000FFF76FFE012818D169462800FFF778FF012812D1012269462000D3
:20460000FFF73DFEEEE72000FFF748FE01003000FFF756FF2000FFF765FE0128F3D073BD27
:204620002800FFF725FF0028F4D02000FFF798FEF0E700000121814067480268674B0B43CD
:204640009A43026002687D4B13400B430360704770B504001D001600200007D0012C0CD1D1
:20466000712000F0DDFB3100722004E0502000F0D7FB3100512000F0D3FB2900200000F06F
:2046800038F870BD38B5050003D0012D03D16D4C03E06B4C01E00024E44320681E2101406F
:2046A0002160206817210140216080204004E06063498C4204D063498C4203D1152002E020
:2046C000052000E0FF20FFF7B5FF200000F0E2FB002D02D0012D05D031BD502000F0B0FB24
:2046E000512003E0712000F0ABFB722000F0A8FB31BDF8B5070000F0B1FA0820C043524E12
:20470000002F02D0012F07D00DE03168084020210143316005200DE031680840802189038D
:204720000143316003E0002FF4D0012F01D1152000E0FF20FFF77EFF414D424C0120002FB9
:2047400003D0012F04D1B06206E07062280004E0002FFBD0012F02D12000143000E0132037
:204760000E2101600026F643002F03D0012F03D1200002E0280000E030000122002100F0D6
:20478000ACFB002F03D0012F03D1200002E0280000E0300000F0A9FBF1BD10B52849294A47
:2047A000002803D0012804D1130000E00B00103300E00F23254C1C60002805D0012801D1C8
:2047C000110001E00021C9430868C006C00E082202430A6010BD0000888004400F000204AF
:2047E0007FB504000898099E6D466973002129732B816E810092019000F068FD002C03D0DC
:20480000012C03D10F4803E0114801E00020C043694600F0EFFB00280AD1002C03D0012C48
:2048200003D1152002E0052000E0FF20FFF702FF00F047FD287B04B070BD0000F0FFFDFBD3
:204840000000054000400540808004405F08000000000540020AD143C9B248400006000C69
:2048600008437047034801680822914392020A4302607047808004408900401801681823C1
:204880009943D2000A430260704730B4DC0F03D05B42524200D25B1E0D106C4013D0F44600
:2048A000002502D349424042A94100F00DF8E40703D35B425242AB41244202D549424042EA
:2048C000A94130BC604730BC124224D0994228D970B500251B4202D00C00002109E0002498
:2048E000012649186441944200D3A41A7641F8D33100012601E0764109D2001864416D416C
:20490000A41A9D41F7D2A4185D41B619F5D3300022002B0070BD1B42D8D108B5C046C046C8
:2049200008BD01D19042D3D202000B00002100207047FEE710B50E4C00F00CF80D4988424C
:2049400001D20D48206000F005F8206010BD08490860704710B500E010B5FBF736FC044A29
:204960001468FA2292000023FFF7AEFF201810BDF4050010008EA454704AE64F482101401A
:204980000E4808430E49086070470E490140202008430D49086070470C490A681043094AFB
:2049A0000240202010430860704708490A68824304481040202202430A607047B7FF000081
:2049C000308204405FA00000348204403882044080B50B4A904701BD80B58AB0322213E015
:2049E00080B58AB03323009301900291039205480068FA218900FDF765F8049007E0000081
:204A0000F11F000F8405001000920190029105A96846FFF7DDFF0598C0B20BB000BD80B53E
:204A20008AB03920059001200690694605A8FFF7CFFF0098F0E780B58AB03B220092019019
:204A4000029100200390E2E7F8B5A4B00D00FC21C9018D4201D3A90701D0012068E0019232
:204A6000060000F0FBF8EFF31080029072B6A806800E2C1A850801982818401E0009401C76
:204A800003900027009728E0A0090100FFF7D3FF002801D0643019E01F211F20FFF79CFFB5
:204AA000002801D0C83011E0402204A92000FFF797FF002827D096214900401806E001906B
:204AC0001F211F20FFF788FF0028DDD0010433D1403400250098401C0090009803998842E1
:204AE00022D21022210004A800F02BF8019804AAB9007158AB00D1507F1C8742DFD26D1C7D
:204B0000102DF5D3DBE71022210014A800F019F8002004AB810014AA525859588A4209D1AF
:204B2000401C1028D4D2F5E7029880F31088002025B0F0BDFA208000029981F3108880B2A5
:204B4000F6E770B504000D00160000F087F8002003E081006A586250401CB042F9D300208B
:204B600070BD10B5C0B00C00220001006846FFF7E8FF002000E0401CA04206D269468200D2
:204B800089580029F7D0002000E0012040B010BD30B4434351435D18010C0C00130C5C431C
:204BA0002D1980B2434392B251430024C918644124040B04090C09195043C018694130BC06
:204BC0007047000002780B78002A2FD0401C491C9A422BD18207F5D170B41F4CE5018A070A
:204BE00026D104C808C9161B96432E4208D19A42F7D070BC12BA1BBA9A4280414041704789
:204C000070BC12BA1BBA100E0BD0FF21100C084208D0100A084206D0D01A01D08041404139
:204C200070471B0A1B0A1B0AC01A7047D01A70470B784A78120213438A7812041343CA78BD
:204C400012061343091D04C8161B96432E42D7D19A42EDD0CDE700000101010180B500F05C
:204C600044F80149086001BD840500106048704700205D4909688907890F05D0022905D05C
:204C800007D3032904D070475A487047584870475948704780B5FFF7EBFF58490968C90685
:204CA000C90E491C484302BD80B500204F4909688907890F02D0012903D002BD00F004F86E
:204CC00002BDFFF7E7FF02BD0020484909688907890F04D0022904D0032904D07047454819
:204CE0007047434870474448704780B5FFF7DCFF43490968C9B2FCF7E5FE02BD80B500F040
:204D000001F802BD38B5010000203E4C3E4B994210D03E4B99420FD03D4B99420ED03D4BF3
:204D2000994203D03C4B994202D008E0226806E0626804E0626902E0A26900E0626AA50D75
:204D4000FC215207520F06D0022A09D005D3042A13D007D332BD274832BDFFF7A5FF32BD08
:204D6000A06C00E0A06D0140080000F008F8616C00024919FCF7A6FE32BD1F4832BD80B5BF
:204D8000010000208907890F03D0022906D002D302BD184802BDFFF787FF02BDFFF77AFF99
:204DA00002BDF8B50600080015001BD01B4C022E02D1A160FF212160FFF7E1FF0700290067
:204DC000FCF780FE0100000600D101213800C9B2FCF778FE00022900FCF774FE022E01D1BA
:204DE000C0B26060F1BD0000408004405080044040420F00001BB700808D5B000880044024
:204E000058800440908004400000054000400540008005400040064000800640D0800440B3
:204E200010B5C30078221A4000090C4B800018180368FF249440A34391401943016010BD43
:204E4000C200782111400009044A800010180268FF238B409A4313430360704700C0004003
:204E600030B5030000200424904207DA9D68254004D00D78DD61491C401CF5E730BD38B5D7
:204E800004000D00FFF73AFF2901FCF71BFE401E206231BD0749884201D1152000E00520A8
:204EA00005490A68012383400820184382430A6070470000004005408080044010B5010053
:204EC0000122012003064C68E40705D44C681C40F9D0002044490A7010BD090170230B4058
:204EE0005107490F19434162704780B50168C906C90E01220A430260FFF7E0FF01BDF0B5FE
:204F00004568012200231024254207D005250D734460087BFF2849D00120F0BD4024254282
:204F200001D00325F3E716060424354204D006250D7346600462ECE7154035D002272B4D8A
:204F400046683607760F06D0022E13D005D3042E28D025D328E00B73ECE74E89002EFAD0D6
:204F60004C68661C4E60866A26704C8964194C810262CEE70E89002E07D00C68671C0F608D
:204F80002478846274190C81F2E74D89002DE2D04C7B640001252543EDB285620762B8E7A0
:204FA0000F73C7E70C73C5E70A73B5E70020F0BD80B5FF220A73426880231B031343436079
:204FC0000B4A42600A89521E9241D20F497B49000A43D2B28262022101620021024A1170ED
:204FE000FFF76CFF01BD0000FD050010FFFF00005000000370B504000D00FFF7D9FF290002
:205000002000FFF77CFF06002000FFF757FF002EF5D0287B401E8041C00F70BD010005D402
:205020000121C006C00E8140B34801607047010009D40121C006C00E8140B2480160BFF384
:205040004F8FBFF36F8F7047AF49012282400868C0B210430860704789004018016820224E
:205060000A43026070478900401801688022D2000A430260704738B5994D2868994901431D
:20508000296099480168994A0A43026001689B4A0A4302609A4801689C4A0A4302609C4CE6
:2050A000002200212000FFF7E7FB002202212000FFF7E2FB002204212000FFF7DDFB002226
:2050C00007212000FFF7D8FB00220C212000FFF7D3FB002210212000FFF7CEFB00220B210C
:2050E0002000FFF7C9FB002217212000FFF7C4FB00220F212000FFF7BFFB00221121200011
:20510000FFF7BAFB1A212000FFF7ADFF19212000FFF7A9FF002208212000FFF7ADFB0022C4
:205120001D212000FFF7A8FB00220A212000FFF7A3FB002201212000FFF79EFB00221A2127
:205140002000FFF799FB002219212000FFF794FB022218212000FFF78FFB08212000FFF768
:205160007BFF1D212000FFF777FF18212000FFF773FF01212000FFF76FFF0A212000FFF743
:205180006BFF03212000FFF767FF6249012008612A68102313432B6000220A605E490A6885
:2051A00010430860002211212000FFF765FB11212000FFF751FF31BD10B5554C0022182123
:2051C0002000FFF759FB18212000FFF745FF00205249086042480168802212030A43026056
:2051E00010BD10B500204D4908604B480168802212030A430260464C022218212000FFF798
:205200003BFB18212000FFF727FF10BD70B54448016808229143434A0A430260FFF72BFFA2
:20522000414C2068FE210140216001256561A5603E4E0A203060656265621820FFF7EEFE99
:205240000020FFF701FF02202168C9B201432160A06012217160606260621920FFF7DEFEBA
:205260000120FFF7F1FE2068F72101402160082060611320F0602068FB21014021600420D0
:20528000A06060610F21B160606260621A20FFF7C5FE0220FFF7D8FE254841682943416084
:2052A000802142680A43426002681543056002681143016070BD80B502201E4908601920E2
:2052C00017E080B508201B49086011E080B51B20FFF7ADFE08201749086001BD00000000FE
:2052E000802300A0935BF37F802200A00003951C1B20FFF793FE01BD00E100E093182260A7
:20530000002200A080E100E00482044000C4400300400440001000A0002400A04C1000A0C5
:2053200080800440C0C62610004000A07881044020000240244000A0F8B586B0B64E01F012
:20534000B5F900280ED00120B44C207038217054B348436800680022002180185941220026
:20536000083203C201F0D8F970680090FEF70BFE0720C046C046012000F0BCFF0400C64DF0
:205380006869002806D0E86800283AD102E06420FCF702F968690028F9D0E868002813D149
:2053A000E00701D500F0CBFEA00701D500F043FFCF498A20FDF70EF900F019FE01210020C2
:2053C000FDF708F9012019E004202040A10710D0002812D0C7498B20FDF7FCF86420FCF78E
:2053E000DBF8E8680028F5D102210420FDF7B9FA01E0002801D000F039FF002000F07AFF23
:2054000004000D22E12189020120FCF748F83820305C00281AD0B848FCF76AF800203821B4
:20542000705413E0B5498920FDF7D4F8FA20FCF7B3F87A4D2878002808D0301D01F02CF9CC
:205440000020287021000120FDF78BFA18252C4005D0002000F04EFF04002540E2D1FDF7EE
:20546000FFFA00963300443332003B3231003931301DFEF705F93920305CFBF737FA01F080
:20548000C4F90122BE4930004C30FFF75AFBF06C0021C943884201D10020F064F06C3B21DD
:2054A000705430003430059031E000203A21705415E03000603001F069F800280FD1300070
:2054C0006830FCF797F8012809D1AE483B21715CFCF70EF83C20315C012000F071FF3920D4
:2054E000305C3A21715C88420ED0A7483A21725C3921715CFBF7FCFF3A20305CFBF7F6F95D
:205500003A20305C392170540020059908806248C068002807D13B20305C0C21014002D048
:20552000B06C401C00E00020B064B06CC92813D3FA2189000B20FDF74DF83B20315CF320E9
:2055400008403B217054F06401228D4930004C30FFF77AFA0020B064FAF737FED24A0023E7
:20556000994201D890420CD33720305C002808D1FEF782F9FEF767FDFEF7CEF901203721E4
:20558000705432000832310044313920305CFBF7B1FC04250400210030000830FBF796F87B
:2055A000002847D10520FBF7F7FF6D1EF3D101273920305C022835D1BC48FBF799FF364D01
:2055C000002028610A20FBF7E7FF2F611E20C046FBF7E2FFCB4B182219210120FFF738F8A8
:2055E000C9490120FFF7D9F80520FBF7D5FFC7490120FCF7CDF8210030000830FBF766F804
:2056000000280FD0C248FBF773FF3B20305CFE2101403B2031540DE0B8000010A005001084
:20562000100002403B20305C07433B203754B948FBF75EFFB848007800280CD00025B64812
:2056400005703420305C1021014305980170301D01F022F83565104F3868401E8041C00F93
:205660003921715CFBF7D2F8002817D03420305CF721014004200843059908703920305C95
:20568000022806D0FF2804D0A44930006030FBF792FF0020306509E0281000A03420305C89
:2056A000FB21014008200843059908709A4D287900280AD03420305C022101430598017025
:2056C0000020287196A0FBF713FF386A002800D0012001273921725CF169C0B2FBF7E8F82E
:2056E00000280DD03420305C012101430CE000BF80969800102700003872000080EE360081
:205700003420305CFE210140059801703420305C4006400E05990870E97800290BD000212B
:20572000E9702021014305980170316D491C3165002000F0C8FF3620305C002808D03520D6
:20574000305C0221014335203154002036217054687801280AD1002068703420305C402124
:205760000143059801706F48FBF7C2FE6E48406A00280BD000203F217054FEF75DFC2BE06E
:20578000947E0000A4720000B07200006846FCF74FF9664869460988FBF7AAFEFCF70AF958
:2057A00001280BD10020FAF775FF3420305C40210143059801700520FBF7EEFEFCF762F87C
:2057C0003F20305CFA2804DB06D1FEF72DFC3F20305C401C3F2170546879012811D1392038
:2057E000305C02280DD05248FBF782FE002068713920305CFF2804D0484930006030FBF7EE
:20580000DAFEA878002815D00020A8704948316A0491F16903912421715E0291718A019168
:20582000317E0091B38A727E3921715CFBF760FE00F0F8FFE87800280DD00020E87034206C
:20584000305C2021014305980170316D491C3165002000F038FF3C20325C316A708AFBF7D8
:2058600035FC3C217054B08A3349884220DB3B20305CC0071CD4FEF7EBFB002818D0402072
:20588000305C401C40217054C0B2C92813DB3B20305C042101433B203154C3A0FBF728FEFF
:2058A0000020FAF7F7FE06E0A086010040720000002040217054708ABC4988423EDA3B20A2
:2058C000305CC0073AD43920305C022836D0032834D0FEF7C5FB002830D04120305C401CFD
:2058E00041217054C0B2C9282BDB3B20305C082101433B203154C2A0FBF7FAFD0020FAF789
:20590000C9FE1EE0801A0600FF0F00009CFC0000805F000048720000A00500108813000093
:205920004444000050720000281000A058720000647200006C720000CC1000000020412169
:2059400070542420305E552811DB4220305C401C42217054C0B2C9280CDB3B20305C022183
:2059600001433B203154A7A0FBF7C2FD02E00020422170543420305CC0060BD53C20305C74
:205980000090330008333200310044313920305C00F00FFE30000830FDF7E4FF33003C336E
:2059A0003200443231003920305CFEF75FF8FDF7A1F8009068460078401E03D0401E0128E2
:2059C0000ED915E03920305CFF2811D1FA21890030006830FBF7EFFD0120FAF75BFE07E061
:2059E0003520305C0121014335203154FDF738F868464078002805D0FA21C900300060305B
:205A0000FBF7D9FD310030000830FBF7CBFA3178FD220A404000104330703B20305C3421ED
:205A2000715CFF253922B25C002A0DD0012A27D0022A3BD0032A00D190E0FE2A00D13FE125
:205A4000FF2A00D155E130E500244320305C012803D143217454FFF734FC3B20305C002890
:205A600002D03E20345406E03420305CC00701D4012500E0FE253A203554FCF70EF92EE5F3
:205A8000002800D01EE1480700D520E1C80703D503203A21705428E53000603000F076FDD1
:205AA0000028ECD13C20315C002016E54420305C010706D408210143442031543D217754AC
:205AC00003E03D20325C002A00D0012231003B3130000830FAF738FF07214422B25CF823F7
:205AE0001340084018434422B05400243D23F4540140052918D13000603000F047FD002806
:205B00000AD13C20315C022000F05AFC00F098FD002801D13A2177544420305CF82101406A
:205B200001200843442170543A20305C3B21715C002901D0FF2004E03421715C090700D5BD
:205B400001203A217054705C022806D07464FCF7A4F800210020FCF73DFDC0E43078C2074F
:205B600002D401220243327048060BD530787D210140042008433070A748FBF7B9FC0520C6
:205B8000FBF70AFD3520305CC00706D53078FD2101403170B2A0FBF7ABFC3B20305C0028E7
:205BA00006D03A20355486E0464F5600E90300003420305C400704D5AAA0FBF799FC0220FC
:205BC0002EE0307841062ED5BB49096A00291DD1BF210140317030005830FBF72DFDAAA057
:205BE000FBF786FC6420FBF7EEFE00280CD03A2035543B20305C102101433B20315405E0C7
:205C000046555600464F54003A20375430005830FBF7F0FC002849D0A8A0FBF769FCFE2031
:205C20003A21705447E0810708D5C10922D18021014331700120FAF72DFD1BE0FCF710FF3D
:205C40000020FAF727FD00BF61A031880091FBF74FFC3078402101433170A5493000583034
:205C6000FBF7A9FC30784006400E307000210020FCF7B0FC3420305CC00717D49DA0FBF710
:205C800037FC0020FAF706FDA64C8B48006A0028384606D1FBF770FC641EF6D13A20375485
:205CA00009E0FAF7F7FCA0A0FBF722FC3A20305C032800D113E430783E21014031704CE7D2
:205CC000002802D03A20355447E7480702D50220FFF7ECFB7848006A002807D030006030AB
:205CE00000F054FC0028EFD1FFF7F4FB3A203754D1E63E21715C012902D100213E22B1544C
:205D0000F16CCAB282420DD009020843F06401228F4930004C30FEF797FE00BF2FA0F16C43
:205D2000FBF7E6FB3B20305CC00714D589490120FBF72EFD210030000830FAF7C7FC002884
:205D400009D000BF8EA0FBF7D3FB3B20305CFE2101403B2031543B20305CC00611D5564865
:205D6000406A00280DD16420FBF72DFE002808D185A0FBF7BDFB3B20305CEF2101403B206F
:205D800031543B20305C810707D52421715E322903DAFD2101403B2031543B20305C002899
:205DA00001D0FFF786FBF06C0002F0640122684930004C30FEF748FE3F48006A002801D044
:205DC000FE2000E001203A2170543E203754C4E657464C523A782558000000004632466C5E
:205DE00073683A782558000010B55B4C2000083003C80022401C51412200083203C2FEF7E4
:205E0000ABFBFCF7F3FB2000083003C8C00401D10120A07010BD00009C720000F8B54F48F2
:205E2000046803274E4D0126344205D0FBF7B9FE2868384030432860A00703D5286938408B
:205E400030432861600703D5286A384030432862200703D5286B07403E432E63F1BD000067
:205E6000447453004344000010B5FAF7A2F90124394A547110490968002900D00121FBF7FB
:205E8000DCFE3848046010BD4C52000002203549086035480068002802D001202E490871E1
:205EA000704732480068002802D101202A49087004202C4908607047281000A04C526C00A8
:205EC00038B50220FBF77FFD002809D0284C002525600A20FBF750FBE56101201E49487039
:205EE00008202049086031BD10201E490860704760EA00004C4E440080B5FDF7B1FB01BD4A
:205F000080B5FBF71EFB01BD80B501201249C87000F038FA174801684907490F02220A4397
:205F2000026001BD400D0300424F000038B5104C002525600A20FBF71FFBE561BFF34F8F61
:205F40000D480E490860BFF34F8F00BFFDE70000947E00009CFC0000A0050010F840004023
:205F60000C400040244000A0481000A03C1000A0401000A0008000400400FA050CED00E021
:205F80004146455263000000444F435263000000B549012282400868C0B2104308607047BE
:205FA000B1490A6801238340FF20C043184382430A60704738B5050000200090CB4C01224F
:205FC00021006846FEF7BDFD00980121A94001430091012221006846FEF736FD31BD10B5FE
:205FE000FA24A40021000220FCF7F4FAFAE710B5BF4C02E06420FBF7CFFA20680028F9D16F
:2060000020680028FCD010BDF1B588B00F00160002A81421FBF74EFB00246420FBF7BCFACA
:206020001020019000256946681CC0B2FBF730FC02A8A900401801686A4612888918016057
:20604000694609888E4201D3B94200D2641C6D1C052DE8DB0198401E0190E3D102A9820028
:2060600089180A6812090A60401C0528F6DB0899002903D0052202A8FEF7E6FC032C01D3E6
:20608000FFF7ADFF09B0F0BDF3B583B016000024002710256846FBF720FC009800B2241845
:2060A0006D1EF7D1049800B2E110090F09190A11824201DB964200DA01270399019201222D
:2060C00001A8FEF7C1FC002F01D0FFF788FF05B0F0BD1CB5040000200090FBF76BFB009019
:2060E000012221006846FEF7AFFC0122A7496846FEF7AAFC1DE01CB504000020009001200F
:20610000FAF7C8FAC820FBF747FA9622920064219F48FBF76CFB0090012221006846FEF72B
:2061200093FC01229B496846FEF78EFC0020FAF7B1FA0098002801D1FFF751FF13BDF8B58B
:2061400000260096012269496846FEF77DFC924F39000620FCF73EFAFFF749FF00210020A8
:20616000FCF738FAFBF784FB8C4C0125A5653220FBF712FA0021012000F022F93900062085
:20618000FCF728FAFFF733FF3220FBF705FAA06C002801D1FFF723FF39000520FCF71AFAFC
:2061A000FFF725FFE5650220FBF7F6F9A06A002802D12068002801D0FFF711FFE665A56597
:2061C0000120FAF767FA65622562FCF733FC266139000420FCF7FEF9FFF709FFA6650020E5
:2061E000FAF758FA6662266296208001FCF710FC39000320FCF7EEF9FFF7F9FE0021002072
:20620000FCF7E8F9664A67496748FFF7FDFE39000620FCF7DFF9FFF7EAFE00210020FCF76E
:20622000D9F93C220921C943D248FFF72DFF1E20FFF7C0FEF1BD10B5574C21000320FCF77D
:20624000C9F9FFF7D4FE5948FFF743FF21000620FCF7C0F9FFF7CBFEC748FFF74CFF1F209A
:20626000FFF7A8FE3DE000000482044010B54A4C21000720FCF7AEF9FFF7B9FE4C4A4D4985
:206280000020FFF7C1FE21000A20FCF7A3F9FFF7AEFE3C220921C9434748FFF7F5FE210080
:2062A0000C20FCF797F9FFF7A2FE3848FFF711FF21000A20FCF78EF9FFF799FE3548FFF74E
:2062C0001AFF21000C20FCF785F9AC4C012020616420FBF761F920680028F9D10021FCF7EF
:2062E00079F91D20FFF766FE10BD0000C07E00003C1000A0FEB506000025002402950122E2
:206300002E4902A8FEF71DFC01270298400000D401240298002802D4200002240443029894
:20632000800002D42000042404430195012E02D1914E1E4901E0174E9149012201A8FEF7B9
:2063400000FC411E8941C90F00910198FBF77DFA0099014203D10027200008240443012220
:20636000310001A8FEF7EDFB451EAD41ED0F3D400198FBF774FA054202D1200010240443EE
:206380002000FEBD0120C04908707047E87E0000204E0000EC7E000080EE3600001000A037
:2063A0008B10000045100000C47E0000DC7E000068100000B80B0000E47E0000C07E000076
:2063C000F1B586B00C00B14801680907090F01600020FAF75FF9FCF743FBFBF75EFC0020E4
:2063E000AB498861FEF772FFFEF7E6FE0A256846007E0390002803D002280BD003D314E0C9
:2064000096256D0011E00020A14988630120FFF7C7FD0AE09E490020886308604860FFF7B1
:20642000BFFD0120FFF7BCFD05256846017E9948FBF75EF805216846FBF7BDF8FBF774F877
:20644000002804D06846FBF7D5F80028F6D0FBF773F8DC20FBF790F8FBF740F8FDF75CFA9E
:206460009C4807689C480668049402946846047E059500F0D7F9022C0BD00298032808D118
:2064800096A0FBF735F86420FBF776F8F9F7AEFE02E00598F9F7A1FE7D48806A002837D13A
:2064A000022C1CD00298032819D10399012000F00AF90499022000F006F9894D03CD083DCA
:2064C0000100032000F0FFF803CD042000F0FBF88448016803220A43026000F0C0F93100F7
:2064E000380000F0C9F90D22E12189020120FAF7D6FF65480178002913D000210170022C1D
:206500000FD100F08FF900F09BF80028B1D108E00D22E12189020120FAF7C1FF72A0FAF77D
:20652000E7FFF9F763FEFEF75CFE0124584DAC63FEF7C1FE0120FFF72BFD0020FFF728FDCE
:20654000AC611E20C046FBF727F868490120FBF71FF9FEF7B6FE4D480168C906C90E10227E
:206560000A4302606846017E06A0FAF7C1FF07B0F0BD0000D87E0000E07E0000481000A0D8
:20658000E87E000021536C702025750038B504000025FCF713FA002808D12000FBF72AF840
:2065A000002803D0FAF7F4FC002800D00125280032BDF3B581B0040017001D00FA26F600A3
:2065C000087800070ED5FAF7E3FC002802D03100872032E002980078000703D5FCF7FBF9C5
:2065E00000282CD1032C08D13878400627D40898032807D131008C201FE0FF2CF7D13100DA
:2066000002201AE0FE2C16D06889FAF7E5F8042802D13100012010E0032802D1310083207C
:206620000BE0022802D13100822006E0012802D13100812001E031008020FBF7CBFFF7BDC9
:20664000FEB52BA0FAF754FF2A4C276B002F00D0012700262EA003C86A4603C20125256367
:206660000F216846FAF7A7FF03E02068002800D101266846FAF7BEFF3043F6D027630220D9
:20668000FAF78AFF3000FEBDFE05001050810440201000A08565000080B5C17800918378B9
:2066A0004278017815A0FAF723FF01BD802000010C490A68024004D00A6810430860012055
:2066C000704700207047052802D20B4A8000115070470000002000A0002100A05600000067
:2066E000A805001000000240444431009CFC000053436300281000A0040002407625642E06
:2067000025642E25642D25630000000000000000000000000000000010B5FEF777FD002036
:20672000FAF7E4F8C820FAF72DFFF9F7EEFC1C4B182219210120FDF78BFF1A490120FEF7BA
:206740002CF81F241849086820400860FDF74CFC0120164908601E20C046FAF713FF144971
:206760000120FBF715F8002804D112490220FBF731FFFEE7FDF7E6FC00F020F8FAF7DAFCD3
:20678000FEF7D8F8FCF73AF9FDF76AF80A480521016001680C4010212143016010BD00BFA8
:2067A000801A0600FF0F000038800440381000A09CFC000080EE36005081044010B54020D1
:2067C000FEF7F3F88024E405200000F0D9F81E21022000F00BF820688006800E0221014314
:2067E00021600C21200000F0E1F810BD10B50C004008401E2021014310480160FEF736FA5B
:20680000800860430E49086010BD8020C00501688906890E01220A430260AA2181605521D9
:2068200081607047EFF3108072B60649AA220A6055220A6080F31088704700002480044016
:2068400004000040080000400A490A681623134004221A430A600221016030BF70470549F6
:206860000A681623134004221A430A600321016030BF704710ED00E0F3B59FB00500344CA9
:2068800020680C2101432160324E30680421014331603148016808220A4302600120FDF79C
:2068A000F1FEC02080042168014321603168084330600024002280216F469000274B1B18F2
:2068C0001E683E501960521C1F2AF6D320992800234A156810602348066801600820FEF719
:2068E0004DF84F20C043FEF750F80820FEF754F81D4F38680121884338601C48FFF7A4FFAD
:206900003868012101433960144AA000694609581150641C1F2CF8D9124806601048056050
:2069200013480C2102680A4302600B48026811430160104B182219210120FDF789FE0E4982
